{"contracts/TradCemFund.sol":{"TradCemFund":{"abi":[{"inputs":[{"internalType":"string","name":"name_","type":"string"},{"internalType":"string","name":"symbol_","type":"string"},{"internalType":"address","name":"_manager","type":"address"},{"internalType":"address[]","name":"_allowedAssets","type":"address[]"},{"internalType":"uint256[]","name":"_targetWeights","type":"uint256[]"},{"internalType":"address","name":"_priceOracle","type":"address"},{"internalType":"address","name":"_dexRouter","type":"address"},{"internalType":"address","name":"_feeCollector","type":"address"},{"internalType":"address","name":"_rebalanceValidator","type":"address"},{"internalType":"address","name":"_emergencyModule","type":"address"},{"internalType":"uint256","name":"_managementFee","type":"uint256"},{"internalType":"uint256","name":"_performanceFee","type":"uint256"},{"internalType":"uint256","name":"_rebalanceInterval","type":"uint256"},{"internalType":"uint256","name":"_weightTolerance","type":"uint256"}],"stateMutability":"nonpayable","type":"constructor"},{"anonymous":false,"inputs":[{"indexed":true,"internalType":"address","name":"owner","type":"address"},{"indexed":true,"internalType":"address","name":"spender","type":"address"},{"indexed":false,"internalType":"uint256","name":"value","type":"uint256"}],"name":"Approval","type":"event"},{"anonymous":false,"inputs":[{"indexed":true,"internalType":"address","name":"user","type":"address"},{"indexed":false,"internalType":"uint256","name":"amount","type":"uint256"},{"indexed":false,"internalType":"uint256","name":"shares","type":"uint256"}],"name":"Deposit","type":"event"},{"anonymous":false,"inputs":[],"name":"EmergencyModeDisabled","type":"event"},{"anonymous":false,"inputs":[],"name":"EmergencyModeEnabled","type":"event"},{"anonymous":false,"inputs":[{"indexed":false,"internalType":"uint256","name":"shares","type":"uint256"},{"indexed":false,"internalType":"uint256","name":"feeAmount","type":"uint256"}],"name":"ManagementFeeCollected","type":"event"},{"anonymous":false,"inputs":[{"indexed":true,"internalType":"address","name":"previousOwner","type":"address"},{"indexed":true,"internalType":"address","name":"newOwner","type":"address"}],"name":"OwnershipTransferred","type":"event"},{"anonymous":false,"inputs":[{"indexed":false,"internalType":"address","name":"account","type":"address"}],"name":"Paused","type":"event"},{"anonymous":false,"inputs":[{"indexed":false,"internalType":"uint256","name":"shares","type":"uint256"},{"indexed":false,"internalType":"uint256","name":"feeAmount","type":"uint256"}],"name":"PerformanceFeeCollected","type":"event"},{"anonymous":false,"inputs":[{"components":[{"internalType":"address","name":"fromAsset","type":"address"},{"internalType":"address","name":"toAsset","type":"address"},{"internalType":"uint256","name":"amountIn","type":"uint256"},{"internalType":"uint256","name":"minOut","type":"uint256"}],"indexed":false,"internalType":"struct TradCemFund.Trade[]","name":"trades","type":"tuple[]"}],"name":"Rebalanced","type":"event"},{"anonymous":false,"inputs":[{"indexed":true,"internalType":"address","name":"user","type":"address"},{"indexed":false,"internalType":"uint256","name":"shares","type":"uint256"},{"indexed":false,"internalType":"uint256","name":"amount","type":"uint256"}],"name":"Redemption","type":"event"},{"anonymous":false,"inputs":[{"indexed":true,"internalType":"address","name":"from","type":"address"},{"indexed":true,"internalType":"address","name":"to","type":"address"},{"indexed":false,"internalType":"uint256","name":"value","type":"uint256"}],"name":"Transfer","type":"event"},{"anonymous":false,"inputs":[{"indexed":false,"internalType":"address","name":"account","type":"address"}],"name":"Unpaused","type":"event"},{"inputs":[{"internalType":"address","name":"owner","type":"address"},{"internalType":"address","name":"spender","type":"address"}],"name":"allowance","outputs":[{"internalType":"uint256","name":"","type":"uint256"}],"stateMutability":"view","type":"function"},{"inputs":[{"internalType":"uint256","name":"","type":"uint256"}],"name":"allowedAssets","outputs":[{"internalType":"address","name":"","type":"address"}],"stateMutability":"view","type":"function"},{"inputs":[{"internalType":"address","name":"spender","type":"address"},{"internalType":"uint256","name":"amount","type":"uint256"}],"name":"approve","outputs":[{"internalType":"bool","name":"","type":"bool"}],"stateMutability":"nonpayable","type":"function"},{"inputs":[{"internalType":"address","name":"account","type":"address"}],"name":"balanceOf","outputs":[{"internalType":"uint256","name":"","type":"uint256"}],"stateMutability":"view","type":"function"},{"inputs":[],"name":"calculateNAV","outputs":[{"internalType":"uint256","name":"","type":"uint256"}],"stateMutability":"view","type":"function"},{"inputs":[],"name":"canRebalance","outputs":[{"internalType":"bool","name":"","type":"bool"}],"stateMutability":"view","type":"function"},{"inputs":[],"name":"config","outputs":[{"internalType":"uint128","name":"managementFee","type":"uint128"},{"internalType":"uint128","name":"performanceFee","type":"uint128"},{"internalType":"uint128","name":"rebalanceInterval","type":"uint128"},{"internalType":"uint128","name":"weightTolerance","type":"uint128"},{"internalType":"uint128","name":"lastRebalance","type":"uint128"},{"internalType":"uint128","name":"lastFeeCollection","type":"uint128"}],"stateMutability":"view","type":"function"},{"inputs":[],"name":"decimals","outputs":[{"internalType":"uint8","name":"","type":"uint8"}],"stateMutability":"view","type":"function"},{"inputs":[{"internalType":"address","name":"spender","type":"address"},{"internalType":"uint256","name":"subtractedValue","type":"uint256"}],"name":"decreaseAllowance","outputs":[{"internalType":"bool","name":"","type":"bool"}],"stateMutability":"nonpayable","type":"function"},{"inputs":[{"internalType":"uint256","name":"amount","type":"uint256"}],"name":"deposit","outputs":[],"stateMutability":"nonpayable","type":"function"},{"inputs":[],"name":"dexRouter","outputs":[{"internalType":"contract IDEXRouter","name":"","type":"address"}],"stateMutability":"view","type":"function"},{"inputs":[],"name":"disableEmergencyMode","outputs":[],"stateMutability":"nonpayable","type":"function"},{"inputs":[],"name":"emergencyModule","outputs":[{"internalType":"contract IEmergencyModule","name":"","type":"address"}],"stateMutability":"view","type":"function"},{"inputs":[{"internalType":"uint256","name":"shares","type":"uint256"}],"name":"emergencyRedeem","outputs":[],"stateMutability":"nonpayable","type":"function"},{"inputs":[],"name":"enableEmergencyMode","outputs":[],"stateMutability":"nonpayable","type":"function"},{"inputs":[],"name":"feeCollector","outputs":[{"internalType":"contract IFeeCollector","name":"","type":"address"}],"stateMutability":"view","type":"function"},{"inputs":[],"name":"getSharePrice","outputs":[{"internalType":"uint256","name":"","type":"uint256"}],"stateMutability":"view","type":"function"},{"inputs":[],"name":"highWaterMark","outputs":[{"internalType":"uint256","name":"","type":"uint256"}],"stateMutability":"view","type":"function"},{"inputs":[{"internalType":"address","name":"spender","type":"address"},{"internalType":"uint256","name":"addedValue","type":"uint256"}],"name":"increaseAllowance","outputs":[{"internalType":"bool","name":"","type":"bool"}],"stateMutability":"nonpayable","type":"function"},{"inputs":[{"internalType":"address","name":"","type":"address"}],"name":"isAllowedAsset","outputs":[{"internalType":"bool","name":"","type":"bool"}],"stateMutability":"view","type":"function"},{"inputs":[],"name":"isEmergencyMode","outputs":[{"internalType":"bool","name":"","type":"bool"}],"stateMutability":"view","type":"function"},{"inputs":[],"name":"manager","outputs":[{"internalType":"address","name":"","type":"address"}],"stateMutability":"view","type":"function"},{"inputs":[],"name":"name","outputs":[{"internalType":"string","name":"","type":"string"}],"stateMutability":"view","type":"function"},{"inputs":[],"name":"owner","outputs":[{"internalType":"address","name":"","type":"address"}],"stateMutability":"view","type":"function"},{"inputs":[],"name":"paused","outputs":[{"internalType":"bool","name":"","type":"bool"}],"stateMutability":"view","type":"function"},{"inputs":[],"name":"priceOracle","outputs":[{"internalType":"contract IPriceOracle","name":"","type":"address"}],"stateMutability":"view","type":"function"},{"inputs":[],"name":"rebalance","outputs":[],"stateMutability":"nonpayable","type":"function"},{"inputs":[],"name":"rebalanceValidator","outputs":[{"internalType":"contract IRebalanceValidator","name":"","type":"address"}],"stateMutability":"view","type":"function"},{"inputs":[{"internalType":"uint256","name":"shares","type":"uint256"}],"name":"redeem","outputs":[],"stateMutability":"nonpayable","type":"function"},{"inputs":[{"internalType":"uint256","name":"shares","type":"uint256"},{"internalType":"address","name":"outputAsset","type":"address"}],"name":"redeemToSingleAsset","outputs":[],"stateMutability":"nonpayable","type":"function"},{"inputs":[],"name":"renounceOwnership","outputs":[],"stateMutability":"nonpayable","type":"function"},{"inputs":[],"name":"symbol","outputs":[{"internalType":"string","name":"","type":"string"}],"stateMutability":"view","type":"function"},{"inputs":[{"internalType":"address","name":"","type":"address"}],"name":"targetWeights","outputs":[{"internalType":"uint256","name":"","type":"uint256"}],"stateMutability":"view","type":"function"},{"inputs":[],"name":"totalSupply","outputs":[{"internalType":"uint256","name":"","type":"uint256"}],"stateMutability":"view","type":"function"},{"inputs":[{"internalType":"address","name":"to","type":"address"},{"internalType":"uint256","name":"amount","type":"uint256"}],"name":"transfer","outputs":[{"internalType":"bool","name":"","type":"bool"}],"stateMutability":"nonpayable","type":"function"},{"inputs":[{"internalType":"address","name":"from","type":"address"},{"internalType":"address","name":"to","type":"address"},{"internalType":"uint256","name":"amount","type":"uint256"}],"name":"transferFrom","outputs":[{"internalType":"bool","name":"","type":"bool"}],"stateMutability":"nonpayable","type":"function"},{"inputs":[{"internalType":"address","name":"newOwner","type":"address"}],"name":"transferOwnership","outputs":[],"stateMutability":"nonpayable","type":"function"}],"evm":{"bytecode":{"linkReferences":{},"object":"608060405234620008f057620032da803803806200001d8162000910565b9283398101906101c081830312620008f05780516001600160401b038111620008f057826200004e91830162000936565b60208201519092906001600160401b038111620008f057816200007391840162000936565b926200008260408401620009a8565b60608401516001600160401b038111620008f05784019383601f86011215620008f057845192620000bd620000b785620009bd565b62000910565b95602087868152016020819660051b83010191878311620008f057602001905b828210620008f55750505060808201516001600160401b038111620008f05782019480601f87011215620008f05785516200011c620000b782620009bd565b9660208089848152019260051b820101928311620008f057602001905b828210620008df575050506200015260a08301620009a8565b966200016160c08401620009a8565b946200017060e08501620009a8565b6200017f6101008601620009a8565b906200018f6101208701620009a8565b9261014087015197610160880151956101a06101808a01519901519780519060018060401b0382116200056a5760035490600182811c92168015620008d4575b6020831014620007c55781601f84931162000881575b50602090601f8311600114620007f257600092620007e6575b50508160011b916000199060031b1c1916176003555b8051906001600160401b0382116200056a5760045490600182811c92168015620007db575b6020831014620007c55781601f84931162000766575b50602090601f8311600114620006d757600092620006cb575b50508160011b916000199060031b1c1916176004555b600160055560065460405190336001600160a01b0382167f8be0079c531659141344cd1fd0a4f28419497f9722a3daafe3b4186f6b6457e0600080a36001600160a81b0319163360ff60a01b1916176006556001600160a01b038216156200069757508b518b510362000652578b51156200062157600780546001600160a01b0319166001600160a01b03929092169190911790558a51906001600160401b0382116200056a576801000000000000000082116200056a5760085482600855808310620005e3575b506008600052602060002060005b838110620005c55750505050600097885b8b518a101562000469576200037b8a8c620009ee565b511562000424576200038e8a8c620009ee565b5181018091116200040e5798620003a6818c620009ee565b516001600160a01b03620003bb838f620009ee565b51166000908152600960205260409020556001600160a01b03620003e0828e620009ee565b5116600052600a6020526040600020600160ff1982541617905560001981146200040e576001019862000365565b634e487b7160e01b600052601160045260246000fd5b60405162461bcd60e51b815260206004820152601760248201527f5a65726f20776569676874206e6f7420616c6c6f7765640000000000000000006044820152606490fd5b6127108d91036200058057600b80546001600160a01b03199081166001600160a01b0393841617909155600c8054821693831693909317909255600d8054831693821693909317909255600e8054821693831693909317909255600f80549092169216919091179055604051426001600160801b03908116958116948116939160c08101906001600160401b038211818310176200056a57879260a092604052878252808616602083015286604083015284166060820152826080820152015260018060801b03199384809360801b161760105560801b16176011554260801b1617601255670de0b6b3a76400006013556040516128c0908162000a1a8239f35b634e487b7160e01b600052604160045260246000fd5b60405162461bcd60e51b815260206004820152601960248201527f57656967687473206d7573742073756d20746f203130303030000000000000006044820152606490fd5b82516001600160a01b03168183015560209092019160010162000354565b60086000526200061a907ff3f7a9fe364faab93b216da50a3214154f22a0a2b415b23a84c8169e8b636ee3908101908401620009d5565b3862000346565b60405162461bcd60e51b81526020600482015260096024820152684e6f2061737365747360b81b6044820152606490fd5b60405162461bcd60e51b815260206004820152601760248201527f4173736574732f77656967687473206d69736d617463680000000000000000006044820152606490fd5b62461bcd60e51b815260206004820152600f60248201526e24b73b30b634b21036b0b730b3b2b960891b6044820152606490fd5b01519050388062000268565b6004600090815293507f8a35acfbc15ff81a39ae7d344fd709f28e8600b4aa8c65c6b64bfe7fe36bd19b91905b601f19841685106200074a576001945083601f1981161062000730575b505050811b016004556200027e565b015160001960f88460031b161c1916905538808062000721565b8181015183556020948501946001909301929091019062000704565b6004600052620007b3907f8a35acfbc15ff81a39ae7d344fd709f28e8600b4aa8c65c6b64bfe7fe36bd19b601f850160051c81019160208610620007ba575b601f0160051c0190620009d5565b386200024f565b9091508190620007a5565b634e487b7160e01b600052602260045260246000fd5b91607f169162000239565b015190503880620001fe565b6003600090815293507fc2575a0e9e593c00f959f8c92f12db2869c3395a3b0502d05e2516446f71f85b91905b601f198416851062000865576001945083601f198116106200084b575b505050811b0160035562000214565b015160001960f88460031b161c191690553880806200083c565b818101518355602094850194600190930192909101906200081f565b6003600052620008cd907fc2575a0e9e593c00f959f8c92f12db2869c3395a3b0502d05e2516446f71f85b601f850160051c81019160208610620007ba57601f0160051c0190620009d5565b38620001e5565b91607f1691620001cf565b815181526020918201910162000139565b600080fd5b602080916200090484620009a8565b815201910190620000dd565b6040519190601f01601f191682016001600160401b038111838210176200056a57604052565b919080601f84011215620008f05782516001600160401b0381116200056a576020906200096c601f8201601f1916830162000910565b92818452828287010111620008f05760005b8181106200099457508260009394955001015290565b85810183015184820184015282016200097e565b51906001600160a01b0382168203620008f057565b6001600160401b0381116200056a5760051b60200190565b818110620009e1575050565b60008155600101620009d5565b805182101562000a035760209160051b010190565b634e487b7160e01b600052603260045260246000fdfe608080604052600436101561001357600080fd5b60003560e01c90816306fdde0314611984575080630758d9241461195b578063095ea7b3146119355780630ccd3ef9146118f357806311ebc619146118d857806318160ddd146118ba5780631e8410da1461189c57806320a194b81461187957806323b872dd146117bb5780632630c12f14611792578063313ce5671461177657806339509351146117255780633d61b2861461155257806342883e2b14611529578063481c6a75146115005780635b1dac60146114dd5780635c975abb146114b7578063608588301461148e57806370a0823114611454578063715018a6146113f757806379502c551461139e5780637d7c2a1c14610f7e5780638da5cb5b14610f5557806395d89b4114610e50578063a06880c014610e2b578063a457c2d714610d84578063a9059cbb14610d53578063b6b55f2514610b59578063bc97c95e14610b1f578063c171ebe81461078f578063c415b95c14610766578063c537bed014610727578063c5b1c7d0146105d3578063db006a75146103ad578063dd62ed3e1461035c578063ef952568146102845763f2fde38b146101b657600080fd5b3461027f57602036600319011261027f576101cf611a88565b6101d7611aeb565b6001600160a01b0390811690811561022b57600654826bffffffffffffffffffffffff60a01b821617600655167f8be0079c531659141344cd1fd0a4f28419497f9722a3daafe3b4186f6b6457e0600080a3005b60405162461bcd60e51b815260206004820152602660248201527f4f776e61626c653a206e6577206f776e657220697320746865207a65726f206160448201526564647265737360d01b6064820152608490fd5b600080fd5b3461027f57600036600319011261027f576102aa60018060a01b03600754163314612128565b60ff196014541660145560065460ff8160a01c16156103205760ff60a01b19166006556040513381527f5db9ee0a495bf2e6ff9c91a7834c1ba4fdd244a5e8aa4e537bd38aeae4b073aa90602090a17f0ba07ae52ba5d382f0af001934b3681d1490b6116d058e1b4bc448b15152280e600080a1005b60405162461bcd60e51b815260206004820152601460248201527314185d5cd8589b194e881b9bdd081c185d5cd95960621b6044820152606490fd5b3461027f57604036600319011261027f57610375611a88565b61037d611a9e565b9060018060a01b038091166000526001602052604060002091166000526020526020604060002054604051908152f35b3461027f5760208060031936011261027f576004356103ca611eeb565b6103d960ff6014541615611de2565b801515806105bc575b6103eb90611fe4565b6103f36127af565b6104106103fe612343565b61040b6002549184611e71565b611e84565b61041a8233612021565b60005b6008548110156105845761043081611ab4565b90546040516370a0823160e01b815230600482015260039290921b1c6001600160a01b031691908581602481865afa8015610547578691600091610553575b506104a061049261048c6104a99361048688612447565b90611e71565b87611e71565b61049a612343565b90611e84565b61049a85612447565b806104c0575b50506104bb9150612263565b61041d565b60405163a9059cbb60e01b8152336004820152602481019190915292839060449082906000905af19182156105475760009261050b575b506105046104bb92611e33565b84866104af565b91508482813d8311610540575b6105228183611b43565b8101031261027f576105046105396104bb93611e26565b92506104f7565b503d610518565b6040513d6000823e3d90fd5b82819392503d831161057d575b61056a8183611b43565b8101031261027f575185906104a061046f565b503d610560565b50826040519283528201527feebddeddf4ae1ee54a48517af27958e7666d69c7ba2e3e7c2b0ff87ef5f4491e60403392a26001600555005b5033600090815280835260409020548111156103e2565b3461027f57600036600319011261027f57600754336001600160a01b03918216149081156106b3575b501561067d57600160ff196014541617601455610617611ea4565b6006805460ff60a01b1916600160a01b1790556040513381527f62e78cea01bee320cd4e420270b5ea74000d11b0c9f74754ebdbfc544b05a25890602090a17f2064d51aa5a8bd67928c7675e267e05c67ad5adf7c9098d0a602d01f36fda9c5600080a1005b60405162461bcd60e51b815260206004820152600e60248201526d139bdd08185d5d1a1bdc9a5e995960921b6044820152606490fd5b600f5460405163a38292b560e01b8152306004820152925060209183916024918391165afa908115610547576000916106ee575b50816105fc565b90506020813d821161071f575b8161070860209383611b43565b8101031261027f5761071990611e26565b816106e7565b3d91506106fb565b3461027f57602036600319011261027f576001600160a01b03610748611a88565b16600052600a602052602060ff604060002054166040519015158152f35b3461027f57600036600319011261027f57600d546040516001600160a01b039091168152602090f35b3461027f57604036600319011261027f576004356107ab611a9e565b906107b4611eeb565b6107c360ff6014541615611de2565b80151580610b02575b6107d590611fe4565b60018060a01b039182811692836000526020600a815260ff6040600020541615610aca576108016127af565b61081961080c612343565b61040b6002549187611e71565b916108248533612021565b600093845b600854861015610a1d578261083d87611ab4565b90549060031b1c168881146000146108ea576040516370a0823160e01b81523060048201528581602481855afa908115610547576000916108b9575b50916108a78261049a6108a161049261089b6108b3986104866108ad99612447565b8c611e71565b91612447565b90611b65565b95612263565b94610829565b9290508583813d83116108e3575b6108d18183611b43565b8101031261027f5791516108a7610879565b503d6108c7565b6040516370a0823160e01b81523060048201529196918581602481855afa908115610547576000916109ee575b5061093461049261092e61093d9361048686612447565b89611e71565b61049a83612447565b908161094f575b50506108b390612263565b600c546040516304a5a72760e41b81526001600160a01b03928316600482015291851660248301526044820192909252603260648201529196919085908290608490829060009089165af1908115610547576000916109bf575b506109b7906108b392611b65565b959089610944565b90508481813d83116109e7575b6109d68183611b43565b8101031261027f57516108b36109a9565b503d6109cc565b90508581813d8311610a16575b610a058183611b43565b8101031261027f5751610934610917565b503d6109fb565b60405163a9059cbb60e01b8152336004820152602481018290528791908590818160448160008f5af1801561054757600090610a94575b610a5e9150611e33565b6040519283528201527feebddeddf4ae1ee54a48517af27958e7666d69c7ba2e3e7c2b0ff87ef5f4491e60403392a26001600555005b508181813d8311610ac3575b610aaa8183611b43565b8101031261027f57610abe610a5e91611e26565b610a54565b503d610aa0565b6064906040519062461bcd60e51b825260048201526011602482015270105cdcd95d081b9bdd08185b1b1bddd959607a1b6044820152fd5b503360005260006020526107d560406000205482111590506107cc565b3461027f57602036600319011261027f576001600160a01b03610b40611a88565b1660005260096020526020604060002054604051908152f35b3461027f5760208060031936011261027f5760043590610b77611eeb565b610b7f611ea4565b610b8e60ff6014541615611de2565b8115610d205760085415610d0a57600860005260018060a01b037ff3f7a9fe364faab93b216da50a3214154f22a0a2b415b23a84c8169e8b636ee35416906040516323b872dd60e01b815233600482015230602482015283604482015281816064816000875af1801561054757600090610cd4575b610c0d9150611e33565b610c156127af565b610c1d612343565b60025480610cb2575050670de0b6b3a76400008302670de0b6b3a763ffff1984820401610c9c57610c54610c669161049a85612447565b925b610c608433611f41565b8461250b565b6040519283528201527f90890809c654f11d6e72a28fa60149770a0d11ec6c92319d6ceb2bb0a4ea1a1560403392a26001600555005b634e487b7160e01b600052601160045260246000fd5b610c669161040b610cce92610cc961092e88612447565b611e71565b92610c56565b508181813d8311610d03575b610cea8183611b43565b8101031261027f57610cfe610c0d91611e26565b610c03565b503d610ce0565b634e487b7160e01b600052603260045260246000fd5b6064906040519062461bcd60e51b82526004820152600c60248201526b16995c9bc819195c1bdcda5d60a21b6044820152fd5b3461027f57604036600319011261027f57610d79610d6f611a88565b6024359033611b72565b602060405160018152f35b3461027f57604036600319011261027f57610d9d611a88565b60243590336000526001602052604060002060018060a01b03821660005260205260406000205491808310610dd857610d7992039033611ce0565b60405162461bcd60e51b815260206004820152602560248201527f45524332303a2064656372656173656420616c6c6f77616e63652062656c6f77604482015264207a65726f60d81b6064820152608490fd5b3461027f57600036600319011261027f576020610e46612286565b6040519015158152f35b3461027f57600036600319011261027f57604051600090600454600181811c90808316928315610f4b575b6020938484108114610f3557838652908115610f155750600114610eba575b610eb684610eaa81880382611b43565b60405191829182611a3f565b0390f35b600460009081529294507f8a35acfbc15ff81a39ae7d344fd709f28e8600b4aa8c65c6b64bfe7fe36bd19b5b828410610f025750505081610eb693610eaa9282010193610e9a565b8054858501870152928501928101610ee6565b60ff1916858501525050151560051b8201019150610eaa81610eb6610e9a565b634e487b7160e01b600052602260045260246000fd5b91607f1691610e7b565b3461027f57600036600319011261027f576006546040516001600160a01b039091168152602090f35b3461027f57600036600319011261027f57610fa460018060a01b03600754163314612128565b610fac611ea4565b610fbb60ff6014541615611de2565b610fc3612286565b1561136157610fd06127af565b600e54611018906000906001600160a01b0316610feb61264f565b90610ff4612755565b60115460405163890583f160e01b81529586948593849360801c91600485016121c2565b03915afa90811561054757600091611247575b5060005b81518110156111a1576110428183612272565b5160018060a01b03815116600052602090600a825260ff6040600020541680611181575b1561114b57600c5481518383015160408085015190516304a5a72760e41b81526001600160a01b03938416600482015291831660248301526044820152603260648201529291849184916084918391600091165af19182156105475760009261111b575b5060600151116110e357506110de90612263565b61102f565b6064906040519062461bcd60e51b82526004820152601160248201527014db1a5c1c1859d948195e18d959591959607a1b6044820152fd5b9091508281813d8311611144575b6111338183611b43565b8101031261027f57519060606110ca565b503d611129565b60405162461bcd60e51b815260048101839052600e60248201526d496e76616c69642061737365747360901b6044820152606490fd5b50808201516001600160a01b03166000908152604090205460ff16611066565b506001600160801b0342166001600160801b0319601254161760125560405160208082018183528351809152816040840194019160005b828110611207577f0e358a3e6bfb0e9b735aaa1110ece42522d0a8bcce395023c034bd015254d29b85870386a1005b835180516001600160a01b0390811688528184015116878401526040808201519088015260609081015190870152608090950194928101926001016111d8565b90503d806000833e6112598183611b43565b602082828101031261027f57815167ffffffffffffffff811161027f578201818301601f8201121561027f57805161129081612162565b9261129e6040519485611b43565b818452602084019281860160208460071b8301011161027f579260208401935b60208460071b82010185106112da57505050505090508161102b565b608085848901031261027f576040519182608081011067ffffffffffffffff60808501111761134b57602060809184838396016040526113198961217a565b8152611326838a0161217a565b83820152604089015160408201526060808a01519082015281520195019491506112be565b634e487b7160e01b600052604160045260246000fd5b60405162461bcd60e51b8152602060048201526015602482015274149958985b185b98d9481b9bdd08185b1b1bddd959605a1b6044820152606490fd5b3461027f57600036600319011261027f5760c06010546011549060125490604051926001600160801b0391828116855260801c6020850152818116604085015260801c60608401528116608083015260801c60a0820152f35b3461027f57600036600319011261027f57611410611aeb565b600680546001600160a01b031981169091556000906001600160a01b03167f8be0079c531659141344cd1fd0a4f28419497f9722a3daafe3b4186f6b6457e08280a3005b3461027f57602036600319011261027f576001600160a01b03611475611a88565b1660005260006020526020604060002054604051908152f35b3461027f57600036600319011261027f57600e546040516001600160a01b039091168152602090f35b3461027f57600036600319011261027f57602060ff60065460a01c166040519015158152f35b3461027f57600036600319011261027f5760206114f8612405565b604051908152f35b3461027f57600036600319011261027f576007546040516001600160a01b039091168152602090f35b3461027f57600036600319011261027f57600f546040516001600160a01b039091168152602090f35b3461027f5760208060031936011261027f5760043560ff601454161561157781611de2565b6116ed57801515806116d6575b61158d90611fe4565b60025461159a8233612021565b60005b6008548110156116d4576115b081611ab4565b90546040516370a0823160e01b815230600482015260039290921b1c6001600160a01b031691908581602481865afa908115610547578691859160009161169f575b509061040b6116019288611e71565b80611618575b50506116139150612263565b61159d565b60405163a9059cbb60e01b8152336004820152602481019190915292839060449082906000905af191821561054757600092611663575b5061165c61161392611e33565b8486611607565b91508482813d8311611698575b61167a8183611b43565b8101031261027f5761165c61169161161393611e26565b925061164f565b503d611670565b928092508391503d83116116cd575b6116b88183611b43565b8101031261027f57518590849061040b6115f2565b503d6116ae565b005b503360009081528083526040902054811115611584565b60405162461bcd60e51b815260048101839052601060248201526f4e6f7420696e20656d657267656e637960801b6044820152606490fd5b3461027f57604036600319011261027f57610d79611741611a88565b336000526001602052604060002060018060a01b03821660005260205261176f602435604060002054611b65565b9033611ce0565b3461027f57600036600319011261027f57602060405160128152f35b3461027f57600036600319011261027f57600b546040516001600160a01b039091168152602090f35b3461027f57606036600319011261027f576117d4611a88565b6117dc611a9e565b6044359060018060a01b0383166000526001602052604060002033600052602052604060002054926000198403611818575b610d799350611b72565b8284106118345761182f83610d7995033383611ce0565b61180e565b60405162461bcd60e51b815260206004820152601d60248201527f45524332303a20696e73756666696369656e7420616c6c6f77616e63650000006044820152606490fd5b3461027f57600036600319011261027f57602060ff601454166040519015158152f35b3461027f57600036600319011261027f576020601354604051908152f35b3461027f57600036600319011261027f576020600254604051908152f35b3461027f57600036600319011261027f5760206114f8612343565b3461027f57602036600319011261027f5760043560085481101561027f5761191c602091611ab4565b905460405160039290921b1c6001600160a01b03168152f35b3461027f57604036600319011261027f57610d79611951611a88565b6024359033611ce0565b3461027f57600036600319011261027f57600c546040516001600160a01b039091168152602090f35b3461027f57600036600319011261027f57600090600354600181811c90808316928315611a35575b6020938484108114610f3557838652908115610f1557506001146119da57610eb684610eaa81880382611b43565b600360009081529294507fc2575a0e9e593c00f959f8c92f12db2869c3395a3b0502d05e2516446f71f85b5b828410611a225750505081610eb693610eaa9282010193610e9a565b8054858501870152928501928101611a06565b91607f16916119ac565b6020808252825181830181905290939260005b828110611a7457505060409293506000838284010152601f8019910116010190565b818101860151848201604001528501611a52565b600435906001600160a01b038216820361027f57565b602435906001600160a01b038216820361027f57565b600854811015610d0a5760086000527ff3f7a9fe364faab93b216da50a3214154f22a0a2b415b23a84c8169e8b636ee30190600090565b6006546001600160a01b03163303611aff57565b606460405162461bcd60e51b815260206004820152602060248201527f4f776e61626c653a2063616c6c6572206973206e6f7420746865206f776e65726044820152fd5b90601f8019910116810190811067ffffffffffffffff82111761134b57604052565b91908201809211610c9c57565b6001600160a01b03908116918215611c8d5716918215611c3c57600082815280602052604081205491808310611be857604082827fddf252ad1be2c89b69c2b068fc378daa952ba7f163c4a11628f55a4df523b3ef958760209652828652038282205586815220818154019055604051908152a3565b60405162461bcd60e51b815260206004820152602660248201527f45524332303a207472616e7366657220616d6f756e7420657863656564732062604482015265616c616e636560d01b6064820152608490fd5b60405162461bcd60e51b815260206004820152602360248201527f45524332303a207472616e7366657220746f20746865207a65726f206164647260448201526265737360e81b6064820152608490fd5b60405162461bcd60e51b815260206004820152602560248201527f45524332303a207472616e736665722066726f6d20746865207a65726f206164604482015264647265737360d81b6064820152608490fd5b6001600160a01b03908116918215611d915716918215611d415760207f8c5be1e5ebec7d5bd14f71427d1e84f3dd0314c0f7b2291e5b200ac8c7c3b925918360005260018252604060002085600052825280604060002055604051908152a3565b60405162461bcd60e51b815260206004820152602260248201527f45524332303a20617070726f766520746f20746865207a65726f206164647265604482015261737360f01b6064820152608490fd5b60405162461bcd60e51b8152602060048201526024808201527f45524332303a20617070726f76652066726f6d20746865207a65726f206164646044820152637265737360e01b6064820152608490fd5b15611de957565b60405162461bcd60e51b8152602060048201526015602482015274456d657267656e6379206d6f64652061637469766560581b6044820152606490fd5b5190811515820361027f57565b15611e3a57565b60405162461bcd60e51b815260206004820152600f60248201526e151c985b9cd9995c8819985a5b1959608a1b6044820152606490fd5b81810292918115918404141715610c9c57565b8115611e8e570490565b634e487b7160e01b600052601260045260246000fd5b60ff60065460a01c16611eb357565b60405162461bcd60e51b815260206004820152601060248201526f14185d5cd8589b194e881c185d5cd95960821b6044820152606490fd5b600260055414611efc576002600555565b60405162461bcd60e51b815260206004820152601f60248201527f5265656e7472616e637947756172643a207265656e7472616e742063616c6c006044820152606490fd5b6001600160a01b0316908115611f9f577fddf252ad1be2c89b69c2b068fc378daa952ba7f163c4a11628f55a4df523b3ef602082611f83600094600254611b65565b60025584845283825260408420818154019055604051908152a3565b60405162461bcd60e51b815260206004820152601f60248201527f45524332303a206d696e7420746f20746865207a65726f2061646472657373006044820152606490fd5b15611feb57565b60405162461bcd60e51b815260206004820152600e60248201526d125b9d985b1a5908185b5bdd5b9d60921b6044820152606490fd5b6001600160a01b031680156120d95760009181835282602052604083205481811061208957817fddf252ad1be2c89b69c2b068fc378daa952ba7f163c4a11628f55a4df523b3ef926020928587528684520360408620558060025403600255604051908152a3565b60405162461bcd60e51b815260206004820152602260248201527f45524332303a206275726e20616d6f756e7420657863656564732062616c616e604482015261636560f01b6064820152608490fd5b60405162461bcd60e51b815260206004820152602160248201527f45524332303a206275726e2066726f6d20746865207a65726f206164647265736044820152607360f81b6064820152608490fd5b1561212f57565b60405162461bcd60e51b815260206004820152600b60248201526a2737ba1036b0b730b3b2b960a91b6044820152606490fd5b67ffffffffffffffff811161134b5760051b60200190565b51906001600160a01b038216820361027f57565b90815180825260208080930193019160005b8281106121ae575050505090565b8351855293810193928101926001016121a0565b919093929360808301906080845260085480925260a084019160086000527ff3f7a9fe364faab93b216da50a3214154f22a0a2b415b23a84c8169e8b636ee39060005b8181106122445750505060609261222f8361223d93876001600160801b039603602089015261218e565b90858203604087015261218e565b9416910152565b82546001600160a01b0316855260209094019360019283019201612205565b6000198114610c9c5760010190565b8051821015610d0a5760209160051b010190565b6001600160801b038060125416906011549181831601818111610c9c5716421061233d5760206122ee916122b861264f565b906122c1612755565b60018060a01b03600e54169160405195869485938493632999fd8960e01b855260801c91600485016121c2565b03915afa90811561054757600091612304575090565b906020823d8211612335575b8161231d60209383611b43565b81010312612332575061232f90611e26565b90565b80fd5b3d9150612310565b50600090565b6000806008545b80821061235657505090565b909161236183611ab4565b9054604080516370a0823160e01b8152306004820152909260031b9190911c6001600160a01b03169060208082602481865afa9384156123fb57506000936123c6575b5050916108a76123ba926104866123c095612447565b92612263565b9061234a565b8181949293943d83116123f4575b6123de8183611b43565b81010312612332575051906108a76123c06123a4565b503d6123d4565b513d6000823e3d90fd5b61240d612343565b600254801561243957670de0b6b3a764000091828102928184041490151715610c9c5761232f91611e84565b5050670de0b6b3a764000090565b600b54604080516395688c3960e01b81526001600160a01b039384166004820152929091829184916024918391165afa80156125005760009283916124c4575b5015612491575090565b5162461bcd60e51b815260206004820152600d60248201526c496e76616c696420707269636560981b6044820152606490fd5b9290508183813d83116124f9575b6124dc8183611b43565b8101031261233257506124f3602083519301611e26565b38612487565b503d6124d2565b50513d6000823e3d90fd5b612513612343565b156126195760005b6008548110156126145761252e81611ab4565b90546001600160a01b039160031b1c81168482168114612609578060005260209160098352604091612710612567846000205488611e71565b049182612582575b505050505061257d90612263565b61251b565b600c5484516304a5a72760e41b81526001600160a01b038a81166004830152939093166024840152604483019390935260326064830152909291849184916084918391600091165af19081156123fb57506125e0575b80808061256f565b813d8311612602575b6125f38183611b43565b8101031261027f5738806125d8565b503d6125e9565b505061257d90612263565b505050565b5050565b9061262782612162565b6126346040519182611b43565b8281528092612645601f1991612162565b0190602036910137565b612657612343565b600854906126648261261d565b9160005b8181106126755750505090565b61267e81611ab4565b9054604080516370a0823160e01b8152306004808301919091529360249360039190911b1c6001600160a01b03169190602080828681875afa9283156123fb5750600092612722575b50506104866126d592612447565b916127109283810293818504149015171561270f575050906126fa8461270a93611e84565b6127048287612272565b52612263565b612668565b601190634e487b7160e01b600052526000fd5b81819392933d831161274e575b6127398183611b43565b810103126123325750516104866126d56126c7565b503d61272f565b600854906127628261261d565b600092835b818110612775575090925050565b806127826127aa92611ab4565b905460039190911b1c6001600160a01b03168652600960205260408620546127048286612272565b612767565b6001600160801b0380601054169081156126195760125460801c9182420392428411610c9c57421461261457600254928315612884576127f864496cebb8009161280093611e71565b048093611e71565b670de0b6b3a7640000838103908111610c9c5761281c91611e84565b8061282657505050565b7f6f4a589972e181c1010960e6cb88e05776a4f3a28373e49c69ffdf8cc30f1a319260409261285f8360018060a01b03600d5416611f41565b601254906001600160801b03194260801b1691161760125582519182526020820152a1565b5050505056fea26469706673582212209239c67059851ecc6e0b8a80a0789d06fd32f068ef1dee0cc18c54dc550586fb64736f6c63430008130033","opcodes":"PUSH1 0x80 PUSH1 0x40 MSTORE CALLVALUE PUSH3 0x8F0 JUMPI PUSH3 0x32DA DUP1 CODESIZE SUB DUP1 PUSH3 0x1D DUP2 PUSH3 0x910 JUMP JUMPDEST SWAP3 DUP4 CODECOPY DUP2 ADD SWAP1 PUSH2 0x1C0 DUP2 DUP4 SUB SLT PUSH3 0x8F0 JUMPI DUP1 MLOAD PUSH1 0x1 PUSH1 0x1 PUSH1 0x40 SHL SUB DUP2 GT PUSH3 0x8F0 JUMPI DUP3 PUSH3 0x4E SWAP2 DUP4 ADD PUSH3 0x936 JUMP JUMPDEST PUSH1 0x20 DUP3 ADD MLOAD SWAP1 SWAP3 SWAP1 PUSH1 0x1 PUSH1 0x1 PUSH1 0x40 SHL SUB DUP2 GT PUSH3 0x8F0 JUMPI DUP2 PUSH3 0x73 SWAP2 DUP5 ADD PUSH3 0x936 JUMP JUMPDEST SWAP3 PUSH3 0x82 PUSH1 0x40 DUP5 ADD PUSH3 0x9A8 JUMP JUMPDEST PUSH1 0x60 DUP5 ADD MLOAD PUSH1 0x1 PUSH1 0x1 PUSH1 0x40 SHL SUB DUP2 GT PUSH3 0x8F0 JUMPI DUP5 ADD SWAP4 DUP4 PUSH1 0x1F DUP7 ADD SLT ISZERO PUSH3 0x8F0 JUMPI DUP5 MLOAD SWAP3 PUSH3 0xBD PUSH3 0xB7 DUP6 PUSH3 0x9BD JUMP JUMPDEST PUSH3 0x910 JUMP JUMPDEST SWAP6 PUSH1 0x20 DUP8 DUP7 DUP2 MSTORE ADD PUSH1 0x20 DUP2 SWAP7 PUSH1 0x5 SHL DUP4 ADD ADD SWAP2 DUP8 DUP4 GT PUSH3 0x8F0 JUMPI PUSH1 0x20 ADD SWAP1 JUMPDEST DUP3 DUP3 LT PUSH3 0x8F5 JUMPI POP POP POP PUSH1 0x80 DUP3 ADD MLOAD PUSH1 0x1 PUSH1 0x1 PUSH1 0x40 SHL SUB DUP2 GT PUSH3 0x8F0 JUMPI DUP3 ADD SWAP5 DUP1 PUSH1 0x1F DUP8 ADD SLT ISZERO PUSH3 0x8F0 JUMPI DUP6 MLOAD PUSH3 0x11C PUSH3 0xB7 DUP3 PUSH3 0x9BD JUMP JUMPDEST SWAP7 PUSH1 0x20 DUP1 DUP10 DUP5 DUP2 MSTORE ADD SWAP3 PUSH1 0x5 SHL DUP3 ADD ADD SWAP3 DUP4 GT PUSH3 0x8F0 JUMPI PUSH1 0x20 ADD SWAP1 JUMPDEST DUP3 DUP3 LT PUSH3 0x8DF JUMPI POP POP POP PUSH3 0x152 PUSH1 0xA0 DUP4 ADD PUSH3 0x9A8 JUMP JUMPDEST SWAP7 PUSH3 0x161 PUSH1 0xC0 DUP5 ADD PUSH3 0x9A8 JUMP JUMPDEST SWAP5 PUSH3 0x170 PUSH1 0xE0 DUP6 ADD PUSH3 0x9A8 JUMP JUMPDEST PUSH3 0x17F PUSH2 0x100 DUP7 ADD PUSH3 0x9A8 JUMP JUMPDEST SWAP1 PUSH3 0x18F PUSH2 0x120 DUP8 ADD PUSH3 0x9A8 JUMP JUMPDEST SWAP3 PUSH2 0x140 DUP8 ADD MLOAD SWAP8 PUSH2 0x160 DUP9 ADD MLOAD SWAP6 PUSH2 0x1A0 PUSH2 0x180 DUP11 ADD MLOAD SWAP10 ADD MLOAD SWAP8 DUP1 MLOAD SWAP1 PUSH1 0x1 DUP1 PUSH1 0x40 SHL SUB DUP3 GT PUSH3 0x56A JUMPI PUSH1 0x3 SLOAD SWAP1 PUSH1 0x1 DUP3 DUP2 SHR SWAP3 AND DUP1 ISZERO PUSH3 0x8D4 JUMPI JUMPDEST PUSH1 0x20 DUP4 LT EQ PUSH3 0x7C5 JUMPI DUP2 PUSH1 0x1F DUP5 SWAP4 GT PUSH3 0x881 JUMPI JUMPDEST POP PUSH1 0x20 SWAP1 PUSH1 0x1F DUP4 GT PUSH1 0x1 EQ PUSH3 0x7F2 JUMPI PUSH1 0x0 SWAP3 PUSH3 0x7E6 JUMPI JUMPDEST POP POP DUP2 PUSH1 0x1 SHL SWAP2 PUSH1 0x0 NOT SWAP1 PUSH1 0x3 SHL SHR NOT AND OR PUSH1 0x3 SSTORE JUMPDEST DUP1 MLOAD SWAP1 PUSH1 0x1 PUSH1 0x1 PUSH1 0x40 SHL SUB DUP3 GT PUSH3 0x56A JUMPI PUSH1 0x4 SLOAD SWAP1 PUSH1 0x1 DUP3 DUP2 SHR SWAP3 AND DUP1 ISZERO PUSH3 0x7DB JUMPI JUMPDEST PUSH1 0x20 DUP4 LT EQ PUSH3 0x7C5 JUMPI DUP2 PUSH1 0x1F DUP5 SWAP4 GT PUSH3 0x766 JUMPI JUMPDEST POP PUSH1 0x20 SWAP1 PUSH1 0x1F DUP4 GT PUSH1 0x1 EQ PUSH3 0x6D7 JUMPI PUSH1 0x0 SWAP3 PUSH3 0x6CB JUMPI JUMPDEST POP POP DUP2 PUSH1 0x1 SHL SWAP2 PUSH1 0x0 NOT SWAP1 PUSH1 0x3 SHL SHR NOT AND OR PUSH1 0x4 SSTORE JUMPDEST PUSH1 0x1 PUSH1 0x5 SSTORE PUSH1 0x6 SLOAD PUSH1 0x40 MLOAD SWAP1 CALLER PUSH1 0x1 PUSH1 0x1 PUSH1 0xA0 SHL SUB DUP3 AND PUSH32 0x8BE0079C531659141344CD1FD0A4F28419497F9722A3DAAFE3B4186F6B6457E0 PUSH1 0x0 DUP1 LOG3 PUSH1 0x1 PUSH1 0x1 PUSH1 0xA8 SHL SUB NOT AND CALLER PUSH1 0xFF PUSH1 0xA0 SHL NOT AND OR PUSH1 0x6 SSTORE PUSH1 0x1 PUSH1 0x1 PUSH1 0xA0 SHL SUB DUP3 AND ISZERO PUSH3 0x697 JUMPI POP DUP12 MLOAD DUP12 MLOAD SUB PUSH3 0x652 JUMPI DUP12 MLOAD ISZERO PUSH3 0x621 JUMPI PUSH1 0x7 DUP1 SLOAD PUSH1 0x1 PUSH1 0x1 PUSH1 0xA0 SHL SUB NOT AND PUSH1 0x1 PUSH1 0x1 PUSH1 0xA0 SHL SUB SWAP3 SWAP1 SWAP3 AND SWAP2 SWAP1 SWAP2 OR SWAP1 SSTORE DUP11 MLOAD SWAP1 PUSH1 0x1 PUSH1 0x1 PUSH1 0x40 SHL SUB DUP3 GT PUSH3 0x56A JUMPI PUSH9 0x10000000000000000 DUP3 GT PUSH3 0x56A JUMPI PUSH1 0x8 SLOAD DUP3 PUSH1 0x8 SSTORE DUP1 DUP4 LT PUSH3 0x5E3 JUMPI JUMPDEST POP PUSH1 0x8 PUSH1 0x0 MSTORE PUSH1 0x20 PUSH1 0x0 KECCAK256 PUSH1 0x0 JUMPDEST DUP4 DUP2 LT PUSH3 0x5C5 JUMPI POP POP POP POP PUSH1 0x0 SWAP8 DUP9 JUMPDEST DUP12 MLOAD DUP11 LT ISZERO PUSH3 0x469 JUMPI PUSH3 0x37B DUP11 DUP13 PUSH3 0x9EE JUMP JUMPDEST MLOAD ISZERO PUSH3 0x424 JUMPI PUSH3 0x38E DUP11 DUP13 PUSH3 0x9EE JUMP JUMPDEST MLOAD DUP2 ADD DUP1 SWAP2 GT PUSH3 0x40E JUMPI SWAP9 PUSH3 0x3A6 DUP2 DUP13 PUSH3 0x9EE JUMP JUMPDEST MLOAD PUSH1 0x1 PUSH1 0x1 PUSH1 0xA0 SHL SUB PUSH3 0x3BB DUP4 DUP16 PUSH3 0x9EE JUMP JUMPDEST MLOAD AND PUSH1 0x0 SWAP1 DUP2 MSTORE PUSH1 0x9 PUSH1 0x20 MSTORE PUSH1 0x40 SWAP1 KECCAK256 SSTORE PUSH1 0x1 PUSH1 0x1 PUSH1 0xA0 SHL SUB PUSH3 0x3E0 DUP3 DUP15 PUSH3 0x9EE JUMP JUMPDEST MLOAD AND PUSH1 0x0 MSTORE PUSH1 0xA PUSH1 0x20 MSTORE PUSH1 0x40 PUSH1 0x0 KECCAK256 PUSH1 0x1 PUSH1 0xFF NOT DUP3 SLOAD AND OR SWAP1 SSTORE PUSH1 0x0 NOT DUP2 EQ PUSH3 0x40E JUMPI PUSH1 0x1 ADD SWAP9 PUSH3 0x365 JUMP JUMPDEST PUSH4 0x4E487B71 PUSH1 0xE0 SHL PUSH1 0x0 MSTORE PUSH1 0x11 PUSH1 0x4 MSTORE PUSH1 0x24 PUSH1 0x0 REVERT JUMPDEST PUSH1 0x40 MLOAD PUSH3 0x461BCD PUSH1 0xE5 SHL DUP2 MSTORE PUSH1 0x20 PUSH1 0x4 DUP3 ADD MSTORE PUSH1 0x17 PUSH1 0x24 DUP3 ADD MSTORE PUSH32 0x5A65726F20776569676874206E6F7420616C6C6F776564000000000000000000 PUSH1 0x44 DUP3 ADD MSTORE PUSH1 0x64 SWAP1 REVERT JUMPDEST PUSH2 0x2710 DUP14 SWAP2 SUB PUSH3 0x580 JUMPI PUSH1 0xB DUP1 SLOAD PUSH1 0x1 PUSH1 0x1 PUSH1 0xA0 SHL SUB NOT SWAP1 DUP2 AND PUSH1 0x1 PUSH1 0x1 PUSH1 0xA0 SHL SUB SWAP4 DUP5 AND OR SWAP1 SWAP2 SSTORE PUSH1 0xC DUP1 SLOAD DUP3 AND SWAP4 DUP4 AND SWAP4 SWAP1 SWAP4 OR SWAP1 SWAP3 SSTORE PUSH1 0xD DUP1 SLOAD DUP4 AND SWAP4 DUP3 AND SWAP4 SWAP1 SWAP4 OR SWAP1 SWAP3 SSTORE PUSH1 0xE DUP1 SLOAD DUP3 AND SWAP4 DUP4 AND SWAP4 SWAP1 SWAP4 OR SWAP1 SWAP3 SSTORE PUSH1 0xF DUP1 SLOAD SWAP1 SWAP3 AND SWAP3 AND SWAP2 SWAP1 SWAP2 OR SWAP1 SSTORE PUSH1 0x40 MLOAD TIMESTAMP PUSH1 0x1 PUSH1 0x1 PUSH1 0x80 SHL SUB SWAP1 DUP2 AND SWAP6 DUP2 AND SWAP5 DUP2 AND SWAP4 SWAP2 PUSH1 0xC0 DUP2 ADD SWAP1 PUSH1 0x1 PUSH1 0x1 PUSH1 0x40 SHL SUB DUP3 GT DUP2 DUP4 LT OR PUSH3 0x56A JUMPI DUP8 SWAP3 PUSH1 0xA0 SWAP3 PUSH1 0x40 MSTORE DUP8 DUP3 MSTORE DUP1 DUP7 AND PUSH1 0x20 DUP4 ADD MSTORE DUP7 PUSH1 0x40 DUP4 ADD MSTORE DUP5 AND PUSH1 0x60 DUP3 ADD MSTORE DUP3 PUSH1 0x80 DUP3 ADD MSTORE ADD MSTORE PUSH1 0x1 DUP1 PUSH1 0x80 SHL SUB NOT SWAP4 DUP5 DUP1 SWAP4 PUSH1 0x80 SHL AND OR PUSH1 0x10 SSTORE PUSH1 0x80 SHL AND OR PUSH1 0x11 SSTORE TIMESTAMP PUSH1 0x80 SHL AND OR PUSH1 0x12 SSTORE PUSH8 0xDE0B6B3A7640000 PUSH1 0x13 SSTORE PUSH1 0x40 MLOAD PUSH2 0x28C0 SWAP1 DUP2 PUSH3 0xA1A DUP3 CODECOPY RETURN JUMPDEST PUSH4 0x4E487B71 PUSH1 0xE0 SHL PUSH1 0x0 MSTORE PUSH1 0x41 PUSH1 0x4 MSTORE PUSH1 0x24 PUSH1 0x0 REVERT JUMPDEST PUSH1 0x40 MLOAD PUSH3 0x461BCD PUSH1 0xE5 SHL DUP2 MSTORE PUSH1 0x20 PUSH1 0x4 DUP3 ADD MSTORE PUSH1 0x19 PUSH1 0x24 DUP3 ADD MSTORE PUSH32 0x57656967687473206D7573742073756D20746F20313030303000000000000000 PUSH1 0x44 DUP3 ADD MSTORE PUSH1 0x64 SWAP1 REVERT JUMPDEST DUP3 MLOAD PUSH1 0x1 PUSH1 0x1 PUSH1 0xA0 SHL SUB AND DUP2 DUP4 ADD SSTORE PUSH1 0x20 SWAP1 SWAP3 ADD SWAP2 PUSH1 0x1 ADD PUSH3 0x354 JUMP JUMPDEST PUSH1 0x8 PUSH1 0x0 MSTORE PUSH3 0x61A SWAP1 PUSH32 0xF3F7A9FE364FAAB93B216DA50A3214154F22A0A2B415B23A84C8169E8B636EE3 SWAP1 DUP2 ADD SWAP1 DUP5 ADD PUSH3 0x9D5 JUMP JUMPDEST CODESIZE PUSH3 0x346 JUMP JUMPDEST PUSH1 0x40 MLOAD PUSH3 0x461BCD PUSH1 0xE5 SHL DUP2 MSTORE PUSH1 0x20 PUSH1 0x4 DUP3 ADD MSTORE PUSH1 0x9 PUSH1 0x24 DUP3 ADD MSTORE PUSH9 0x4E6F20617373657473 PUSH1 0xB8 SHL PUSH1 0x44 DUP3 ADD MSTORE PUSH1 0x64 SWAP1 REVERT JUMPDEST PUSH1 0x40 MLOAD PUSH3 0x461BCD PUSH1 0xE5 SHL DUP2 MSTORE PUSH1 0x20 PUSH1 0x4 DUP3 ADD MSTORE PUSH1 0x17 PUSH1 0x24 DUP3 ADD MSTORE PUSH32 0x4173736574732F77656967687473206D69736D61746368000000000000000000 PUSH1 0x44 DUP3 ADD MSTORE PUSH1 0x64 SWAP1 REVERT JUMPDEST PUSH3 0x461BCD PUSH1 0xE5 SHL DUP2 MSTORE PUSH1 0x20 PUSH1 0x4 DUP3 ADD MSTORE PUSH1 0xF PUSH1 0x24 DUP3 ADD MSTORE PUSH15 0x24B73B30B634B21036B0B730B3B2B9 PUSH1 0x89 SHL PUSH1 0x44 DUP3 ADD MSTORE PUSH1 0x64 SWAP1 REVERT JUMPDEST ADD MLOAD SWAP1 POP CODESIZE DUP1 PUSH3 0x268 JUMP JUMPDEST PUSH1 0x4 PUSH1 0x0 SWAP1 DUP2 MSTORE SWAP4 POP PUSH32 0x8A35ACFBC15FF81A39AE7D344FD709F28E8600B4AA8C65C6B64BFE7FE36BD19B SWAP2 SWAP1 JUMPDEST PUSH1 0x1F NOT DUP5 AND DUP6 LT PUSH3 0x74A JUMPI PUSH1 0x1 SWAP5 POP DUP4 PUSH1 0x1F NOT DUP2 AND LT PUSH3 0x730 JUMPI JUMPDEST POP POP POP DUP2 SHL ADD PUSH1 0x4 SSTORE PUSH3 0x27E JUMP JUMPDEST ADD MLOAD PUSH1 0x0 NOT PUSH1 0xF8 DUP5 PUSH1 0x3 SHL AND SHR NOT AND SWAP1 SSTORE CODESIZE DUP1 DUP1 PUSH3 0x721 JUMP JUMPDEST DUP2 DUP2 ADD MLOAD DUP4 SSTORE PUSH1 0x20 SWAP5 DUP6 ADD SWAP5 PUSH1 0x1 SWAP1 SWAP4 ADD SWAP3 SWAP1 SWAP2 ADD SWAP1 PUSH3 0x704 JUMP JUMPDEST PUSH1 0x4 PUSH1 0x0 MSTORE PUSH3 0x7B3 SWAP1 PUSH32 0x8A35ACFBC15FF81A39AE7D344FD709F28E8600B4AA8C65C6B64BFE7FE36BD19B PUSH1 0x1F DUP6 ADD PUSH1 0x5 SHR DUP2 ADD SWAP2 PUSH1 0x20 DUP7 LT PUSH3 0x7BA JUMPI JUMPDEST PUSH1 0x1F ADD PUSH1 0x5 SHR ADD SWAP1 PUSH3 0x9D5 JUMP JUMPDEST CODESIZE PUSH3 0x24F JUMP JUMPDEST SWAP1 SWAP2 POP DUP2 SWAP1 PUSH3 0x7A5 JUMP JUMPDEST PUSH4 0x4E487B71 PUSH1 0xE0 SHL PUSH1 0x0 MSTORE PUSH1 0x22 PUSH1 0x4 MSTORE PUSH1 0x24 PUSH1 0x0 REVERT JUMPDEST SWAP2 PUSH1 0x7F AND SWAP2 PUSH3 0x239 JUMP JUMPDEST ADD MLOAD SWAP1 POP CODESIZE DUP1 PUSH3 0x1FE JUMP JUMPDEST PUSH1 0x3 PUSH1 0x0 SWAP1 DUP2 MSTORE SWAP4 POP PUSH32 0xC2575A0E9E593C00F959F8C92F12DB2869C3395A3B0502D05E2516446F71F85B SWAP2 SWAP1 JUMPDEST PUSH1 0x1F NOT DUP5 AND DUP6 LT PUSH3 0x865 JUMPI PUSH1 0x1 SWAP5 POP DUP4 PUSH1 0x1F NOT DUP2 AND LT PUSH3 0x84B JUMPI JUMPDEST POP POP POP DUP2 SHL ADD PUSH1 0x3 SSTORE PUSH3 0x214 JUMP JUMPDEST ADD MLOAD PUSH1 0x0 NOT PUSH1 0xF8 DUP5 PUSH1 0x3 SHL AND SHR NOT AND SWAP1 SSTORE CODESIZE DUP1 DUP1 PUSH3 0x83C JUMP JUMPDEST DUP2 DUP2 ADD MLOAD DUP4 SSTORE PUSH1 0x20 SWAP5 DUP6 ADD SWAP5 PUSH1 0x1 SWAP1 SWAP4 ADD SWAP3 SWAP1 SWAP2 ADD SWAP1 PUSH3 0x81F JUMP JUMPDEST PUSH1 0x3 PUSH1 0x0 MSTORE PUSH3 0x8CD SWAP1 PUSH32 0xC2575A0E9E593C00F959F8C92F12DB2869C3395A3B0502D05E2516446F71F85B PUSH1 0x1F DUP6 ADD PUSH1 0x5 SHR DUP2 ADD SWAP2 PUSH1 0x20 DUP7 LT PUSH3 0x7BA JUMPI PUSH1 0x1F ADD PUSH1 0x5 SHR ADD SWAP1 PUSH3 0x9D5 JUMP JUMPDEST CODESIZE PUSH3 0x1E5 JUMP JUMPDEST SWAP2 PUSH1 0x7F AND SWAP2 PUSH3 0x1CF JUMP JUMPDEST DUP2 MLOAD DUP2 MSTORE PUSH1 0x20 SWAP2 DUP3 ADD SWAP2 ADD PUSH3 0x139 JUMP JUMPDEST PUSH1 0x0 DUP1 REVERT JUMPDEST PUSH1 0x20 DUP1 SWAP2 PUSH3 0x904 DUP5 PUSH3 0x9A8 JUMP JUMPDEST DUP2 MSTORE ADD SWAP2 ADD SWAP1 PUSH3 0xDD JUMP JUMPDEST PUSH1 0x40 MLOAD SWAP2 SWAP1 PUSH1 0x1F ADD PUSH1 0x1F NOT AND DUP3 ADD PUSH1 0x1 PUSH1 0x1 PUSH1 0x40 SHL SUB DUP2 GT DUP4 DUP3 LT OR PUSH3 0x56A JUMPI PUSH1 0x40 MSTORE JUMP JUMPDEST SWAP2 SWAP1 DUP1 PUSH1 0x1F DUP5 ADD SLT ISZERO PUSH3 0x8F0 JUMPI DUP3 MLOAD PUSH1 0x1 PUSH1 0x1 PUSH1 0x40 SHL SUB DUP2 GT PUSH3 0x56A JUMPI PUSH1 0x20 SWAP1 PUSH3 0x96C PUSH1 0x1F DUP3 ADD PUSH1 0x1F NOT AND DUP4 ADD PUSH3 0x910 JUMP JUMPDEST SWAP3 DUP2 DUP5 MSTORE DUP3 DUP3 DUP8 ADD ADD GT PUSH3 0x8F0 JUMPI PUSH1 0x0 JUMPDEST DUP2 DUP2 LT PUSH3 0x994 JUMPI POP DUP3 PUSH1 0x0 SWAP4 SWAP5 SWAP6 POP ADD ADD MSTORE SWAP1 JUMP JUMPDEST DUP6 DUP2 ADD DUP4 ADD MLOAD DUP5 DUP3 ADD DUP5 ADD MSTORE DUP3 ADD PUSH3 0x97E JUMP JUMPDEST MLOAD SWAP1 PUSH1 0x1 PUSH1 0x1 PUSH1 0xA0 SHL SUB DUP3 AND DUP3 SUB PUSH3 0x8F0 JUMPI JUMP JUMPDEST PUSH1 0x1 PUSH1 0x1 PUSH1 0x40 SHL SUB DUP2 GT PUSH3 0x56A JUMPI PUSH1 0x5 SHL PUSH1 0x20 ADD SWAP1 JUMP JUMPDEST DUP2 DUP2 LT PUSH3 0x9E1 JUMPI POP POP JUMP JUMPDEST PUSH1 0x0 DUP2 SSTORE PUSH1 0x1 ADD PUSH3 0x9D5 JUMP JUMPDEST DUP1 MLOAD DUP3 LT ISZERO PUSH3 0xA03 JUMPI PUSH1 0x20 SWAP2 PUSH1 0x5 SHL ADD ADD SWAP1 JUMP JUMPDEST PUSH4 0x4E487B71 PUSH1 0xE0 SHL PUSH1 0x0 MSTORE PUSH1 0x32 PUSH1 0x4 MSTORE PUSH1 0x24 PUSH1 0x0 REVERT INVALID PUSH1 0x80 DUP1 PUSH1 0x40 MSTORE PUSH1 0x4 CALLDATASIZE LT ISZERO PUSH2 0x13 JUMPI PUSH1 0x0 DUP1 REVERT JUMPDEST PUSH1 0x0 CALLDATALOAD PUSH1 0xE0 SHR SWAP1 DUP2 PUSH4 0x6FDDE03 EQ PUSH2 0x1984 JUMPI POP DUP1 PUSH4 0x758D924 EQ PUSH2 0x195B JUMPI DUP1 PUSH4 0x95EA7B3 EQ PUSH2 0x1935 JUMPI DUP1 PUSH4 0xCCD3EF9 EQ PUSH2 0x18F3 JUMPI DUP1 PUSH4 0x11EBC619 EQ PUSH2 0x18D8 JUMPI DUP1 PUSH4 0x18160DDD EQ PUSH2 0x18BA JUMPI DUP1 PUSH4 0x1E8410DA EQ PUSH2 0x189C JUMPI DUP1 PUSH4 0x20A194B8 EQ PUSH2 0x1879 JUMPI DUP1 PUSH4 0x23B872DD EQ PUSH2 0x17BB JUMPI DUP1 PUSH4 0x2630C12F EQ PUSH2 0x1792 JUMPI DUP1 PUSH4 0x313CE567 EQ PUSH2 0x1776 JUMPI DUP1 PUSH4 0x39509351 EQ PUSH2 0x1725 JUMPI DUP1 PUSH4 0x3D61B286 EQ PUSH2 0x1552 JUMPI DUP1 PUSH4 0x42883E2B EQ PUSH2 0x1529 JUMPI DUP1 PUSH4 0x481C6A75 EQ PUSH2 0x1500 JUMPI DUP1 PUSH4 0x5B1DAC60 EQ PUSH2 0x14DD JUMPI DUP1 PUSH4 0x5C975ABB EQ PUSH2 0x14B7 JUMPI DUP1 PUSH4 0x60858830 EQ PUSH2 0x148E JUMPI DUP1 PUSH4 0x70A08231 EQ PUSH2 0x1454 JUMPI DUP1 PUSH4 0x715018A6 EQ PUSH2 0x13F7 JUMPI DUP1 PUSH4 0x79502C55 EQ PUSH2 0x139E JUMPI DUP1 PUSH4 0x7D7C2A1C EQ PUSH2 0xF7E JUMPI DUP1 PUSH4 0x8DA5CB5B EQ PUSH2 0xF55 JUMPI DUP1 PUSH4 0x95D89B41 EQ PUSH2 0xE50 JUMPI DUP1 PUSH4 0xA06880C0 EQ PUSH2 0xE2B JUMPI DUP1 PUSH4 0xA457C2D7 EQ PUSH2 0xD84 JUMPI DUP1 PUSH4 0xA9059CBB EQ PUSH2 0xD53 JUMPI DUP1 PUSH4 0xB6B55F25 EQ PUSH2 0xB59 JUMPI DUP1 PUSH4 0xBC97C95E EQ PUSH2 0xB1F JUMPI DUP1 PUSH4 0xC171EBE8 EQ PUSH2 0x78F JUMPI DUP1 PUSH4 0xC415B95C EQ PUSH2 0x766 JUMPI DUP1 PUSH4 0xC537BED0 EQ PUSH2 0x727 JUMPI DUP1 PUSH4 0xC5B1C7D0 EQ PUSH2 0x5D3 JUMPI DUP1 PUSH4 0xDB006A75 EQ PUSH2 0x3AD JUMPI DUP1 PUSH4 0xDD62ED3E EQ PUSH2 0x35C JUMPI DUP1 PUSH4 0xEF952568 EQ PUSH2 0x284 JUMPI PUSH4 0xF2FDE38B EQ PUSH2 0x1B6 JUMPI PUSH1 0x0 DUP1 REVERT JUMPDEST CALLVALUE PUSH2 0x27F JUMPI PUSH1 0x20 CALLDATASIZE PUSH1 0x3 NOT ADD SLT PUSH2 0x27F JUMPI PUSH2 0x1CF PUSH2 0x1A88 JUMP JUMPDEST PUSH2 0x1D7 PUSH2 0x1AEB JUMP JUMPDEST PUSH1 0x1 PUSH1 0x1 PUSH1 0xA0 SHL SUB SWAP1 DUP2 AND SWAP1 DUP2 ISZERO PUSH2 0x22B JUMPI PUSH1 0x6 SLOAD DUP3 PUSH12 0xFFFFFFFFFFFFFFFFFFFFFFFF PUSH1 0xA0 SHL DUP3 AND OR PUSH1 0x6 SSTORE AND PUSH32 0x8BE0079C531659141344CD1FD0A4F28419497F9722A3DAAFE3B4186F6B6457E0 PUSH1 0x0 DUP1 LOG3 STOP JUMPDEST PUSH1 0x40 MLOAD PUSH3 0x461BCD PUSH1 0xE5 SHL DUP2 MSTORE PUSH1 0x20 PUSH1 0x4 DUP3 ADD MSTORE PUSH1 0x26 PUSH1 0x24 DUP3 ADD MSTORE PUSH32 0x4F776E61626C653A206E6577206F776E657220697320746865207A65726F2061 PUSH1 0x44 DUP3 ADD MSTORE PUSH6 0x646472657373 PUSH1 0xD0 SHL PUSH1 0x64 DUP3 ADD MSTORE PUSH1 0x84 SWAP1 REVERT JUMPDEST PUSH1 0x0 DUP1 REVERT JUMPDEST CALLVALUE PUSH2 0x27F JUMPI PUSH1 0x0 CALLDATASIZE PUSH1 0x3 NOT ADD SLT PUSH2 0x27F JUMPI PUSH2 0x2AA PUSH1 0x1 DUP1 PUSH1 0xA0 SHL SUB PUSH1 0x7 SLOAD AND CALLER EQ PUSH2 0x2128 JUMP JUMPDEST PUSH1 0xFF NOT PUSH1 0x14 SLOAD AND PUSH1 0x14 SSTORE PUSH1 0x6 SLOAD PUSH1 0xFF DUP2 PUSH1 0xA0 SHR AND ISZERO PUSH2 0x320 JUMPI PUSH1 0xFF PUSH1 0xA0 SHL NOT AND PUSH1 0x6 SSTORE PUSH1 0x40 MLOAD CALLER DUP2 MSTORE PUSH32 0x5DB9EE0A495BF2E6FF9C91A7834C1BA4FDD244A5E8AA4E537BD38AEAE4B073AA SWAP1 PUSH1 0x20 SWAP1 LOG1 PUSH32 0xBA07AE52BA5D382F0AF001934B3681D1490B6116D058E1B4BC448B15152280E PUSH1 0x0 DUP1 LOG1 STOP JUMPDEST PUSH1 0x40 MLOAD PUSH3 0x461BCD PUSH1 0xE5 SHL DUP2 MSTORE PUSH1 0x20 PUSH1 0x4 DUP3 ADD MSTORE PUSH1 0x14 PUSH1 0x24 DUP3 ADD MSTORE PUSH20 0x14185D5CD8589B194E881B9BDD081C185D5CD959 PUSH1 0x62 SHL PUSH1 0x44 DUP3 ADD MSTORE PUSH1 0x64 SWAP1 REVERT JUMPDEST CALLVALUE PUSH2 0x27F JUMPI PUSH1 0x40 CALLDATASIZE PUSH1 0x3 NOT ADD SLT PUSH2 0x27F JUMPI PUSH2 0x375 PUSH2 0x1A88 JUMP JUMPDEST PUSH2 0x37D PUSH2 0x1A9E JUMP JUMPDEST SWAP1 PUSH1 0x1 DUP1 PUSH1 0xA0 SHL SUB DUP1 SWAP2 AND PUSH1 0x0 MSTORE PUSH1 0x1 PUSH1 0x20 MSTORE PUSH1 0x40 PUSH1 0x0 KECCAK256 SWAP2 AND PUSH1 0x0 MSTORE PUSH1 0x20 MSTORE PUSH1 0x20 PUSH1 0x40 PUSH1 0x0 KECCAK256 SLOAD PUSH1 0x40 MLOAD SWAP1 DUP2 MSTORE RETURN JUMPDEST CALLVALUE PUSH2 0x27F JUMPI PUSH1 0x20 DUP1 PUSH1 0x3 NOT CALLDATASIZE ADD SLT PUSH2 0x27F JUMPI PUSH1 0x4 CALLDATALOAD PUSH2 0x3CA PUSH2 0x1EEB JUMP JUMPDEST PUSH2 0x3D9 PUSH1 0xFF PUSH1 0x14 SLOAD AND ISZERO PUSH2 0x1DE2 JUMP JUMPDEST DUP1 ISZERO ISZERO DUP1 PUSH2 0x5BC JUMPI JUMPDEST PUSH2 0x3EB SWAP1 PUSH2 0x1FE4 JUMP JUMPDEST PUSH2 0x3F3 PUSH2 0x27AF JUMP JUMPDEST PUSH2 0x410 PUSH2 0x3FE PUSH2 0x2343 JUMP JUMPDEST PUSH2 0x40B PUSH1 0x2 SLOAD SWAP2 DUP5 PUSH2 0x1E71 JUMP JUMPDEST PUSH2 0x1E84 JUMP JUMPDEST PUSH2 0x41A DUP3 CALLER PUSH2 0x2021 JUMP JUMPDEST PUSH1 0x0 JUMPDEST PUSH1 0x8 SLOAD DUP2 LT ISZERO PUSH2 0x584 JUMPI PUSH2 0x430 DUP2 PUSH2 0x1AB4 JUMP JUMPDEST SWAP1 SLOAD PUSH1 0x40 MLOAD PUSH4 0x70A08231 PUSH1 0xE0 SHL DUP2 MSTORE ADDRESS PUSH1 0x4 DUP3 ADD MSTORE PUSH1 0x3 SWAP3 SWAP1 SWAP3 SHL SHR PUSH1 0x1 PUSH1 0x1 PUSH1 0xA0 SHL SUB AND SWAP2 SWAP1 DUP6 DUP2 PUSH1 0x24 DUP2 DUP7 GAS STATICCALL DUP1 ISZERO PUSH2 0x547 JUMPI DUP7 SWAP2 PUSH1 0x0 SWAP2 PUSH2 0x553 JUMPI JUMPDEST POP PUSH2 0x4A0 PUSH2 0x492 PUSH2 0x48C PUSH2 0x4A9 SWAP4 PUSH2 0x486 DUP9 PUSH2 0x2447 JUMP JUMPDEST SWAP1 PUSH2 0x1E71 JUMP JUMPDEST DUP8 PUSH2 0x1E71 JUMP JUMPDEST PUSH2 0x49A PUSH2 0x2343 JUMP JUMPDEST SWAP1 PUSH2 0x1E84 JUMP JUMPDEST PUSH2 0x49A DUP6 PUSH2 0x2447 JUMP JUMPDEST DUP1 PUSH2 0x4C0 JUMPI JUMPDEST POP POP PUSH2 0x4BB SWAP2 POP PUSH2 0x2263 JUMP JUMPDEST PUSH2 0x41D JUMP JUMPDEST PUSH1 0x40 MLOAD PUSH4 0xA9059CBB PUSH1 0xE0 SHL DUP2 MSTORE CALLER PUSH1 0x4 DUP3 ADD MSTORE PUSH1 0x24 DUP2 ADD SWAP2 SWAP1 SWAP2 MSTORE SWAP3 DUP4 SWAP1 PUSH1 0x44 SWAP1 DUP3 SWAP1 PUSH1 0x0 SWAP1 GAS CALL SWAP2 DUP3 ISZERO PUSH2 0x547 JUMPI PUSH1 0x0 SWAP3 PUSH2 0x50B JUMPI JUMPDEST POP PUSH2 0x504 PUSH2 0x4BB SWAP3 PUSH2 0x1E33 JUMP JUMPDEST DUP5 DUP7 PUSH2 0x4AF JUMP JUMPDEST SWAP2 POP DUP5 DUP3 DUP2 RETURNDATASIZE DUP4 GT PUSH2 0x540 JUMPI JUMPDEST PUSH2 0x522 DUP2 DUP4 PUSH2 0x1B43 JUMP JUMPDEST DUP2 ADD SUB SLT PUSH2 0x27F JUMPI PUSH2 0x504 PUSH2 0x539 PUSH2 0x4BB SWAP4 PUSH2 0x1E26 JUMP JUMPDEST SWAP3 POP PUSH2 0x4F7 JUMP JUMPDEST POP RETURNDATASIZE PUSH2 0x518 JUMP JUMPDEST PUSH1 0x40 MLOAD RETURNDATASIZE PUSH1 0x0 DUP3 RETURNDATACOPY RETURNDATASIZE SWAP1 REVERT JUMPDEST DUP3 DUP2 SWAP4 SWAP3 POP RETURNDATASIZE DUP4 GT PUSH2 0x57D JUMPI JUMPDEST PUSH2 0x56A DUP2 DUP4 PUSH2 0x1B43 JUMP JUMPDEST DUP2 ADD SUB SLT PUSH2 0x27F JUMPI MLOAD DUP6 SWAP1 PUSH2 0x4A0 PUSH2 0x46F JUMP JUMPDEST POP RETURNDATASIZE PUSH2 0x560 JUMP JUMPDEST POP DUP3 PUSH1 0x40 MLOAD SWAP3 DUP4 MSTORE DUP3 ADD MSTORE PUSH32 0xEEBDDEDDF4AE1EE54A48517AF27958E7666D69C7BA2E3E7C2B0FF87EF5F4491E PUSH1 0x40 CALLER SWAP3 LOG2 PUSH1 0x1 PUSH1 0x5 SSTORE STOP JUMPDEST POP CALLER PUSH1 0x0 SWAP1 DUP2 MSTORE DUP1 DUP4 MSTORE PUSH1 0x40 SWAP1 KECCAK256 SLOAD DUP2 GT ISZERO PUSH2 0x3E2 JUMP JUMPDEST CALLVALUE PUSH2 0x27F JUMPI PUSH1 0x0 CALLDATASIZE PUSH1 0x3 NOT ADD SLT PUSH2 0x27F JUMPI PUSH1 0x7 SLOAD CALLER PUSH1 0x1 PUSH1 0x1 PUSH1 0xA0 SHL SUB SWAP2 DUP3 AND EQ SWAP1 DUP2 ISZERO PUSH2 0x6B3 JUMPI JUMPDEST POP ISZERO PUSH2 0x67D JUMPI PUSH1 0x1 PUSH1 0xFF NOT PUSH1 0x14 SLOAD AND OR PUSH1 0x14 SSTORE PUSH2 0x617 PUSH2 0x1EA4 JUMP JUMPDEST PUSH1 0x6 DUP1 SLOAD PUSH1 0xFF PUSH1 0xA0 SHL NOT AND PUSH1 0x1 PUSH1 0xA0 SHL OR SWAP1 SSTORE PUSH1 0x40 MLOAD CALLER DUP2 MSTORE PUSH32 0x62E78CEA01BEE320CD4E420270B5EA74000D11B0C9F74754EBDBFC544B05A258 SWAP1 PUSH1 0x20 SWAP1 LOG1 PUSH32 0x2064D51AA5A8BD67928C7675E267E05C67AD5ADF7C9098D0A602D01F36FDA9C5 PUSH1 0x0 DUP1 LOG1 STOP JUMPDEST PUSH1 0x40 MLOAD PUSH3 0x461BCD PUSH1 0xE5 SHL DUP2 MSTORE PUSH1 0x20 PUSH1 0x4 DUP3 ADD MSTORE PUSH1 0xE PUSH1 0x24 DUP3 ADD MSTORE PUSH14 0x139BDD08185D5D1A1BDC9A5E9959 PUSH1 0x92 SHL PUSH1 0x44 DUP3 ADD MSTORE PUSH1 0x64 SWAP1 REVERT JUMPDEST PUSH1 0xF SLOAD PUSH1 0x40 MLOAD PUSH4 0xA38292B5 PUSH1 0xE0 SHL DUP2 MSTORE ADDRESS PUSH1 0x4 DUP3 ADD MSTORE SWAP3 POP PUSH1 0x20 SWAP2 DUP4 SWAP2 PUSH1 0x24 SWAP2 DUP4 SWAP2 AND GAS STATICCALL SWAP1 DUP2 ISZERO PUSH2 0x547 JUMPI PUSH1 0x0 SWAP2 PUSH2 0x6EE JUMPI JUMPDEST POP DUP2 PUSH2 0x5FC JUMP JUMPDEST SWAP1 POP PUSH1 0x20 DUP2 RETURNDATASIZE DUP3 GT PUSH2 0x71F JUMPI JUMPDEST DUP2 PUSH2 0x708 PUSH1 0x20 SWAP4 DUP4 PUSH2 0x1B43 JUMP JUMPDEST DUP2 ADD SUB SLT PUSH2 0x27F JUMPI PUSH2 0x719 SWAP1 PUSH2 0x1E26 JUMP JUMPDEST DUP2 PUSH2 0x6E7 JUMP JUMPDEST RETURNDATASIZE SWAP2 POP PUSH2 0x6FB JUMP JUMPDEST CALLVALUE PUSH2 0x27F JUMPI PUSH1 0x20 CALLDATASIZE PUSH1 0x3 NOT ADD SLT PUSH2 0x27F JUMPI PUSH1 0x1 PUSH1 0x1 PUSH1 0xA0 SHL SUB PUSH2 0x748 PUSH2 0x1A88 JUMP JUMPDEST AND PUSH1 0x0 MSTORE PUSH1 0xA PUSH1 0x20 MSTORE PUSH1 0x20 PUSH1 0xFF PUSH1 0x40 PUSH1 0x0 KECCAK256 SLOAD AND PUSH1 0x40 MLOAD SWAP1 ISZERO ISZERO DUP2 MSTORE RETURN JUMPDEST CALLVALUE PUSH2 0x27F JUMPI PUSH1 0x0 CALLDATASIZE PUSH1 0x3 NOT ADD SLT PUSH2 0x27F JUMPI PUSH1 0xD SLOAD PUSH1 0x40 MLOAD PUSH1 0x1 PUSH1 0x1 PUSH1 0xA0 SHL SUB SWAP1 SWAP2 AND DUP2 MSTORE PUSH1 0x20 SWAP1 RETURN JUMPDEST CALLVALUE PUSH2 0x27F JUMPI PUSH1 0x40 CALLDATASIZE PUSH1 0x3 NOT ADD SLT PUSH2 0x27F JUMPI PUSH1 0x4 CALLDATALOAD PUSH2 0x7AB PUSH2 0x1A9E JUMP JUMPDEST SWAP1 PUSH2 0x7B4 PUSH2 0x1EEB JUMP JUMPDEST PUSH2 0x7C3 PUSH1 0xFF PUSH1 0x14 SLOAD AND ISZERO PUSH2 0x1DE2 JUMP JUMPDEST DUP1 ISZERO ISZERO DUP1 PUSH2 0xB02 JUMPI JUMPDEST PUSH2 0x7D5 SWAP1 PUSH2 0x1FE4 JUMP JUMPDEST PUSH1 0x1 DUP1 PUSH1 0xA0 SHL SUB SWAP2 DUP3 DUP2 AND SWAP3 DUP4 PUSH1 0x0 MSTORE PUSH1 0x20 PUSH1 0xA DUP2 MSTORE PUSH1 0xFF PUSH1 0x40 PUSH1 0x0 KECCAK256 SLOAD AND ISZERO PUSH2 0xACA JUMPI PUSH2 0x801 PUSH2 0x27AF JUMP JUMPDEST PUSH2 0x819 PUSH2 0x80C PUSH2 0x2343 JUMP JUMPDEST PUSH2 0x40B PUSH1 0x2 SLOAD SWAP2 DUP8 PUSH2 0x1E71 JUMP JUMPDEST SWAP2 PUSH2 0x824 DUP6 CALLER PUSH2 0x2021 JUMP JUMPDEST PUSH1 0x0 SWAP4 DUP5 JUMPDEST PUSH1 0x8 SLOAD DUP7 LT ISZERO PUSH2 0xA1D JUMPI DUP3 PUSH2 0x83D DUP8 PUSH2 0x1AB4 JUMP JUMPDEST SWAP1 SLOAD SWAP1 PUSH1 0x3 SHL SHR AND DUP9 DUP2 EQ PUSH1 0x0 EQ PUSH2 0x8EA JUMPI PUSH1 0x40 MLOAD PUSH4 0x70A08231 PUSH1 0xE0 SHL DUP2 MSTORE ADDRESS PUSH1 0x4 DUP3 ADD MSTORE DUP6 DUP2 PUSH1 0x24 DUP2 DUP6 GAS STATICCALL SWAP1 DUP2 ISZERO PUSH2 0x547 JUMPI PUSH1 0x0 SWAP2 PUSH2 0x8B9 JUMPI JUMPDEST POP SWAP2 PUSH2 0x8A7 DUP3 PUSH2 0x49A PUSH2 0x8A1 PUSH2 0x492 PUSH2 0x89B PUSH2 0x8B3 SWAP9 PUSH2 0x486 PUSH2 0x8AD SWAP10 PUSH2 0x2447 JUMP JUMPDEST DUP13 PUSH2 0x1E71 JUMP JUMPDEST SWAP2 PUSH2 0x2447 JUMP JUMPDEST SWAP1 PUSH2 0x1B65 JUMP JUMPDEST SWAP6 PUSH2 0x2263 JUMP JUMPDEST SWAP5 PUSH2 0x829 JUMP JUMPDEST SWAP3 SWAP1 POP DUP6 DUP4 DUP2 RETURNDATASIZE DUP4 GT PUSH2 0x8E3 JUMPI JUMPDEST PUSH2 0x8D1 DUP2 DUP4 PUSH2 0x1B43 JUMP JUMPDEST DUP2 ADD SUB SLT PUSH2 0x27F JUMPI SWAP2 MLOAD PUSH2 0x8A7 PUSH2 0x879 JUMP JUMPDEST POP RETURNDATASIZE PUSH2 0x8C7 JUMP JUMPDEST PUSH1 0x40 MLOAD PUSH4 0x70A08231 PUSH1 0xE0 SHL DUP2 MSTORE ADDRESS PUSH1 0x4 DUP3 ADD MSTORE SWAP2 SWAP7 SWAP2 DUP6 DUP2 PUSH1 0x24 DUP2 DUP6 GAS STATICCALL SWAP1 DUP2 ISZERO PUSH2 0x547 JUMPI PUSH1 0x0 SWAP2 PUSH2 0x9EE JUMPI JUMPDEST POP PUSH2 0x934 PUSH2 0x492 PUSH2 0x92E PUSH2 0x93D SWAP4 PUSH2 0x486 DUP7 PUSH2 0x2447 JUMP JUMPDEST DUP10 PUSH2 0x1E71 JUMP JUMPDEST PUSH2 0x49A DUP4 PUSH2 0x2447 JUMP JUMPDEST SWAP1 DUP2 PUSH2 0x94F JUMPI JUMPDEST POP POP PUSH2 0x8B3 SWAP1 PUSH2 0x2263 JUMP JUMPDEST PUSH1 0xC SLOAD PUSH1 0x40 MLOAD PUSH4 0x4A5A727 PUSH1 0xE4 SHL DUP2 MSTORE PUSH1 0x1 PUSH1 0x1 PUSH1 0xA0 SHL SUB SWAP3 DUP4 AND PUSH1 0x4 DUP3 ADD MSTORE SWAP2 DUP6 AND PUSH1 0x24 DUP4 ADD MSTORE PUSH1 0x44 DUP3 ADD SWAP3 SWAP1 SWAP3 MSTORE PUSH1 0x32 PUSH1 0x64 DUP3 ADD MSTORE SWAP2 SWAP7 SWAP2 SWAP1 DUP6 SWAP1 DUP3 SWAP1 PUSH1 0x84 SWAP1 DUP3 SWAP1 PUSH1 0x0 SWAP1 DUP10 AND GAS CALL SWAP1 DUP2 ISZERO PUSH2 0x547 JUMPI PUSH1 0x0 SWAP2 PUSH2 0x9BF JUMPI JUMPDEST POP PUSH2 0x9B7 SWAP1 PUSH2 0x8B3 SWAP3 PUSH2 0x1B65 JUMP JUMPDEST SWAP6 SWAP1 DUP10 PUSH2 0x944 JUMP JUMPDEST SWAP1 POP DUP5 DUP2 DUP2 RETURNDATASIZE DUP4 GT PUSH2 0x9E7 JUMPI JUMPDEST PUSH2 0x9D6 DUP2 DUP4 PUSH2 0x1B43 JUMP JUMPDEST DUP2 ADD SUB SLT PUSH2 0x27F JUMPI MLOAD PUSH2 0x8B3 PUSH2 0x9A9 JUMP JUMPDEST POP RETURNDATASIZE PUSH2 0x9CC JUMP JUMPDEST SWAP1 POP DUP6 DUP2 DUP2 RETURNDATASIZE DUP4 GT PUSH2 0xA16 JUMPI JUMPDEST PUSH2 0xA05 DUP2 DUP4 PUSH2 0x1B43 JUMP JUMPDEST DUP2 ADD SUB SLT PUSH2 0x27F JUMPI MLOAD PUSH2 0x934 PUSH2 0x917 JUMP JUMPDEST POP RETURNDATASIZE PUSH2 0x9FB JUMP JUMPDEST PUSH1 0x40 MLOAD PUSH4 0xA9059CBB PUSH1 0xE0 SHL DUP2 MSTORE CALLER PUSH1 0x4 DUP3 ADD MSTORE PUSH1 0x24 DUP2 ADD DUP3 SWAP1 MSTORE DUP8 SWAP2 SWAP1 DUP6 SWAP1 DUP2 DUP2 PUSH1 0x44 DUP2 PUSH1 0x0 DUP16 GAS CALL DUP1 ISZERO PUSH2 0x547 JUMPI PUSH1 0x0 SWAP1 PUSH2 0xA94 JUMPI JUMPDEST PUSH2 0xA5E SWAP2 POP PUSH2 0x1E33 JUMP JUMPDEST PUSH1 0x40 MLOAD SWAP3 DUP4 MSTORE DUP3 ADD MSTORE PUSH32 0xEEBDDEDDF4AE1EE54A48517AF27958E7666D69C7BA2E3E7C2B0FF87EF5F4491E PUSH1 0x40 CALLER SWAP3 LOG2 PUSH1 0x1 PUSH1 0x5 SSTORE STOP JUMPDEST POP DUP2 DUP2 DUP2 RETURNDATASIZE DUP4 GT PUSH2 0xAC3 JUMPI JUMPDEST PUSH2 0xAAA DUP2 DUP4 PUSH2 0x1B43 JUMP JUMPDEST DUP2 ADD SUB SLT PUSH2 0x27F JUMPI PUSH2 0xABE PUSH2 0xA5E SWAP2 PUSH2 0x1E26 JUMP JUMPDEST PUSH2 0xA54 JUMP JUMPDEST POP RETURNDATASIZE PUSH2 0xAA0 JUMP JUMPDEST PUSH1 0x64 SWAP1 PUSH1 0x40 MLOAD SWAP1 PUSH3 0x461BCD PUSH1 0xE5 SHL DUP3 MSTORE PUSH1 0x4 DUP3 ADD MSTORE PUSH1 0x11 PUSH1 0x24 DUP3 ADD MSTORE PUSH17 0x105CDCD95D081B9BDD08185B1B1BDDD959 PUSH1 0x7A SHL PUSH1 0x44 DUP3 ADD MSTORE REVERT JUMPDEST POP CALLER PUSH1 0x0 MSTORE PUSH1 0x0 PUSH1 0x20 MSTORE PUSH2 0x7D5 PUSH1 0x40 PUSH1 0x0 KECCAK256 SLOAD DUP3 GT ISZERO SWAP1 POP PUSH2 0x7CC JUMP JUMPDEST CALLVALUE PUSH2 0x27F JUMPI PUSH1 0x20 CALLDATASIZE PUSH1 0x3 NOT ADD SLT PUSH2 0x27F JUMPI PUSH1 0x1 PUSH1 0x1 PUSH1 0xA0 SHL SUB PUSH2 0xB40 PUSH2 0x1A88 JUMP JUMPDEST AND PUSH1 0x0 MSTORE PUSH1 0x9 PUSH1 0x20 MSTORE PUSH1 0x20 PUSH1 0x40 PUSH1 0x0 KECCAK256 SLOAD PUSH1 0x40 MLOAD SWAP1 DUP2 MSTORE RETURN JUMPDEST CALLVALUE PUSH2 0x27F JUMPI PUSH1 0x20 DUP1 PUSH1 0x3 NOT CALLDATASIZE ADD SLT PUSH2 0x27F JUMPI PUSH1 0x4 CALLDATALOAD SWAP1 PUSH2 0xB77 PUSH2 0x1EEB JUMP JUMPDEST PUSH2 0xB7F PUSH2 0x1EA4 JUMP JUMPDEST PUSH2 0xB8E PUSH1 0xFF PUSH1 0x14 SLOAD AND ISZERO PUSH2 0x1DE2 JUMP JUMPDEST DUP2 ISZERO PUSH2 0xD20 JUMPI PUSH1 0x8 SLOAD ISZERO PUSH2 0xD0A JUMPI PUSH1 0x8 PUSH1 0x0 MSTORE PUSH1 0x1 DUP1 PUSH1 0xA0 SHL SUB PUSH32 0xF3F7A9FE364FAAB93B216DA50A3214154F22A0A2B415B23A84C8169E8B636EE3 SLOAD AND SWAP1 PUSH1 0x40 MLOAD PUSH4 0x23B872DD PUSH1 0xE0 SHL DUP2 MSTORE CALLER PUSH1 0x4 DUP3 ADD MSTORE ADDRESS PUSH1 0x24 DUP3 ADD MSTORE DUP4 PUSH1 0x44 DUP3 ADD MSTORE DUP2 DUP2 PUSH1 0x64 DUP2 PUSH1 0x0 DUP8 GAS CALL DUP1 ISZERO PUSH2 0x547 JUMPI PUSH1 0x0 SWAP1 PUSH2 0xCD4 JUMPI JUMPDEST PUSH2 0xC0D SWAP2 POP PUSH2 0x1E33 JUMP JUMPDEST PUSH2 0xC15 PUSH2 0x27AF JUMP JUMPDEST PUSH2 0xC1D PUSH2 0x2343 JUMP JUMPDEST PUSH1 0x2 SLOAD DUP1 PUSH2 0xCB2 JUMPI POP POP PUSH8 0xDE0B6B3A7640000 DUP4 MUL PUSH8 0xDE0B6B3A763FFFF NOT DUP5 DUP3 DIV ADD PUSH2 0xC9C JUMPI PUSH2 0xC54 PUSH2 0xC66 SWAP2 PUSH2 0x49A DUP6 PUSH2 0x2447 JUMP JUMPDEST SWAP3 JUMPDEST PUSH2 0xC60 DUP5 CALLER PUSH2 0x1F41 JUMP JUMPDEST DUP5 PUSH2 0x250B JUMP JUMPDEST PUSH1 0x40 MLOAD SWAP3 DUP4 MSTORE DUP3 ADD MSTORE PUSH32 0x90890809C654F11D6E72A28FA60149770A0D11EC6C92319D6CEB2BB0A4EA1A15 PUSH1 0x40 CALLER SWAP3 LOG2 PUSH1 0x1 PUSH1 0x5 SSTORE STOP JUMPDEST PUSH4 0x4E487B71 PUSH1 0xE0 SHL PUSH1 0x0 MSTORE PUSH1 0x11 PUSH1 0x4 MSTORE PUSH1 0x24 PUSH1 0x0 REVERT JUMPDEST PUSH2 0xC66 SWAP2 PUSH2 0x40B PUSH2 0xCCE SWAP3 PUSH2 0xCC9 PUSH2 0x92E DUP9 PUSH2 0x2447 JUMP JUMPDEST PUSH2 0x1E71 JUMP JUMPDEST SWAP3 PUSH2 0xC56 JUMP JUMPDEST POP DUP2 DUP2 DUP2 RETURNDATASIZE DUP4 GT PUSH2 0xD03 JUMPI JUMPDEST PUSH2 0xCEA DUP2 DUP4 PUSH2 0x1B43 JUMP JUMPDEST DUP2 ADD SUB SLT PUSH2 0x27F JUMPI PUSH2 0xCFE PUSH2 0xC0D SWAP2 PUSH2 0x1E26 JUMP JUMPDEST PUSH2 0xC03 JUMP JUMPDEST POP RETURNDATASIZE PUSH2 0xCE0 JUMP JUMPDEST PUSH4 0x4E487B71 PUSH1 0xE0 SHL PUSH1 0x0 MSTORE PUSH1 0x32 PUSH1 0x4 MSTORE PUSH1 0x24 PUSH1 0x0 REVERT JUMPDEST PUSH1 0x64 SWAP1 PUSH1 0x40 MLOAD SWAP1 PUSH3 0x461BCD PUSH1 0xE5 SHL DUP3 MSTORE PUSH1 0x4 DUP3 ADD MSTORE PUSH1 0xC PUSH1 0x24 DUP3 ADD MSTORE PUSH12 0x16995C9BC819195C1BDCDA5D PUSH1 0xA2 SHL PUSH1 0x44 DUP3 ADD MSTORE REVERT JUMPDEST CALLVALUE PUSH2 0x27F JUMPI PUSH1 0x40 CALLDATASIZE PUSH1 0x3 NOT ADD SLT PUSH2 0x27F JUMPI PUSH2 0xD79 PUSH2 0xD6F PUSH2 0x1A88 JUMP JUMPDEST PUSH1 0x24 CALLDATALOAD SWAP1 CALLER PUSH2 0x1B72 JUMP JUMPDEST PUSH1 0x20 PUSH1 0x40 MLOAD PUSH1 0x1 DUP2 MSTORE RETURN JUMPDEST CALLVALUE PUSH2 0x27F JUMPI PUSH1 0x40 CALLDATASIZE PUSH1 0x3 NOT ADD SLT PUSH2 0x27F JUMPI PUSH2 0xD9D PUSH2 0x1A88 JUMP JUMPDEST PUSH1 0x24 CALLDATALOAD SWAP1 CALLER PUSH1 0x0 MSTORE PUSH1 0x1 PUSH1 0x20 MSTORE PUSH1 0x40 PUSH1 0x0 KECCAK256 PUSH1 0x1 DUP1 PUSH1 0xA0 SHL SUB DUP3 AND PUSH1 0x0 MSTORE PUSH1 0x20 MSTORE PUSH1 0x40 PUSH1 0x0 KECCAK256 SLOAD SWAP2 DUP1 DUP4 LT PUSH2 0xDD8 JUMPI PUSH2 0xD79 SWAP3 SUB SWAP1 CALLER PUSH2 0x1CE0 JUMP JUMPDEST PUSH1 0x40 MLOAD PUSH3 0x461BCD PUSH1 0xE5 SHL DUP2 MSTORE PUSH1 0x20 PUSH1 0x4 DUP3 ADD MSTORE PUSH1 0x25 PUSH1 0x24 DUP3 ADD MSTORE PUSH32 0x45524332303A2064656372656173656420616C6C6F77616E63652062656C6F77 PUSH1 0x44 DUP3 ADD MSTORE PUSH5 0x207A65726F PUSH1 0xD8 SHL PUSH1 0x64 DUP3 ADD MSTORE PUSH1 0x84 SWAP1 REVERT JUMPDEST CALLVALUE PUSH2 0x27F JUMPI PUSH1 0x0 CALLDATASIZE PUSH1 0x3 NOT ADD SLT PUSH2 0x27F JUMPI PUSH1 0x20 PUSH2 0xE46 PUSH2 0x2286 JUMP JUMPDEST PUSH1 0x40 MLOAD SWAP1 ISZERO ISZERO DUP2 MSTORE RETURN JUMPDEST CALLVALUE PUSH2 0x27F JUMPI PUSH1 0x0 CALLDATASIZE PUSH1 0x3 NOT ADD SLT PUSH2 0x27F JUMPI PUSH1 0x40 MLOAD PUSH1 0x0 SWAP1 PUSH1 0x4 SLOAD PUSH1 0x1 DUP2 DUP2 SHR SWAP1 DUP1 DUP4 AND SWAP3 DUP4 ISZERO PUSH2 0xF4B JUMPI JUMPDEST PUSH1 0x20 SWAP4 DUP5 DUP5 LT DUP2 EQ PUSH2 0xF35 JUMPI DUP4 DUP7 MSTORE SWAP1 DUP2 ISZERO PUSH2 0xF15 JUMPI POP PUSH1 0x1 EQ PUSH2 0xEBA JUMPI JUMPDEST PUSH2 0xEB6 DUP5 PUSH2 0xEAA DUP2 DUP9 SUB DUP3 PUSH2 0x1B43 JUMP JUMPDEST PUSH1 0x40 MLOAD SWAP2 DUP3 SWAP2 DUP3 PUSH2 0x1A3F JUMP JUMPDEST SUB SWAP1 RETURN JUMPDEST PUSH1 0x4 PUSH1 0x0 SWAP1 DUP2 MSTORE SWAP3 SWAP5 POP PUSH32 0x8A35ACFBC15FF81A39AE7D344FD709F28E8600B4AA8C65C6B64BFE7FE36BD19B JUMPDEST DUP3 DUP5 LT PUSH2 0xF02 JUMPI POP POP POP DUP2 PUSH2 0xEB6 SWAP4 PUSH2 0xEAA SWAP3 DUP3 ADD ADD SWAP4 PUSH2 0xE9A JUMP JUMPDEST DUP1 SLOAD DUP6 DUP6 ADD DUP8 ADD MSTORE SWAP3 DUP6 ADD SWAP3 DUP2 ADD PUSH2 0xEE6 JUMP JUMPDEST PUSH1 0xFF NOT AND DUP6 DUP6 ADD MSTORE POP POP ISZERO ISZERO PUSH1 0x5 SHL DUP3 ADD ADD SWAP2 POP PUSH2 0xEAA DUP2 PUSH2 0xEB6 PUSH2 0xE9A JUMP JUMPDEST PUSH4 0x4E487B71 PUSH1 0xE0 SHL PUSH1 0x0 MSTORE PUSH1 0x22 PUSH1 0x4 MSTORE PUSH1 0x24 PUSH1 0x0 REVERT JUMPDEST SWAP2 PUSH1 0x7F AND SWAP2 PUSH2 0xE7B JUMP JUMPDEST CALLVALUE PUSH2 0x27F JUMPI PUSH1 0x0 CALLDATASIZE PUSH1 0x3 NOT ADD SLT PUSH2 0x27F JUMPI PUSH1 0x6 SLOAD PUSH1 0x40 MLOAD PUSH1 0x1 PUSH1 0x1 PUSH1 0xA0 SHL SUB SWAP1 SWAP2 AND DUP2 MSTORE PUSH1 0x20 SWAP1 RETURN JUMPDEST CALLVALUE PUSH2 0x27F JUMPI PUSH1 0x0 CALLDATASIZE PUSH1 0x3 NOT ADD SLT PUSH2 0x27F JUMPI PUSH2 0xFA4 PUSH1 0x1 DUP1 PUSH1 0xA0 SHL SUB PUSH1 0x7 SLOAD AND CALLER EQ PUSH2 0x2128 JUMP JUMPDEST PUSH2 0xFAC PUSH2 0x1EA4 JUMP JUMPDEST PUSH2 0xFBB PUSH1 0xFF PUSH1 0x14 SLOAD AND ISZERO PUSH2 0x1DE2 JUMP JUMPDEST PUSH2 0xFC3 PUSH2 0x2286 JUMP JUMPDEST ISZERO PUSH2 0x1361 JUMPI PUSH2 0xFD0 PUSH2 0x27AF JUMP JUMPDEST PUSH1 0xE SLOAD PUSH2 0x1018 SWAP1 PUSH1 0x0 SWAP1 PUSH1 0x1 PUSH1 0x1 PUSH1 0xA0 SHL SUB AND PUSH2 0xFEB PUSH2 0x264F JUMP JUMPDEST SWAP1 PUSH2 0xFF4 PUSH2 0x2755 JUMP JUMPDEST PUSH1 0x11 SLOAD PUSH1 0x40 MLOAD PUSH4 0x890583F1 PUSH1 0xE0 SHL DUP2 MSTORE SWAP6 DUP7 SWAP5 DUP6 SWAP4 DUP5 SWAP4 PUSH1 0x80 SHR SWAP2 PUSH1 0x4 DUP6 ADD PUSH2 0x21C2 JUMP JUMPDEST SUB SWAP2 GAS STATICCALL SWAP1 DUP2 ISZERO PUSH2 0x547 JUMPI PUSH1 0x0 SWAP2 PUSH2 0x1247 JUMPI JUMPDEST POP PUSH1 0x0 JUMPDEST DUP2 MLOAD DUP2 LT ISZERO PUSH2 0x11A1 JUMPI PUSH2 0x1042 DUP2 DUP4 PUSH2 0x2272 JUMP JUMPDEST MLOAD PUSH1 0x1 DUP1 PUSH1 0xA0 SHL SUB DUP2 MLOAD AND PUSH1 0x0 MSTORE PUSH1 0x20 SWAP1 PUSH1 0xA DUP3 MSTORE PUSH1 0xFF PUSH1 0x40 PUSH1 0x0 KECCAK256 SLOAD AND DUP1 PUSH2 0x1181 JUMPI JUMPDEST ISZERO PUSH2 0x114B JUMPI PUSH1 0xC SLOAD DUP2 MLOAD DUP4 DUP4 ADD MLOAD PUSH1 0x40 DUP1 DUP6 ADD MLOAD SWAP1 MLOAD PUSH4 0x4A5A727 PUSH1 0xE4 SHL DUP2 MSTORE PUSH1 0x1 PUSH1 0x1 PUSH1 0xA0 SHL SUB SWAP4 DUP5 AND PUSH1 0x4 DUP3 ADD MSTORE SWAP2 DUP4 AND PUSH1 0x24 DUP4 ADD MSTORE PUSH1 0x44 DUP3 ADD MSTORE PUSH1 0x32 PUSH1 0x64 DUP3 ADD MSTORE SWAP3 SWAP2 DUP5 SWAP2 DUP5 SWAP2 PUSH1 0x84 SWAP2 DUP4 SWAP2 PUSH1 0x0 SWAP2 AND GAS CALL SWAP2 DUP3 ISZERO PUSH2 0x547 JUMPI PUSH1 0x0 SWAP3 PUSH2 0x111B JUMPI JUMPDEST POP PUSH1 0x60 ADD MLOAD GT PUSH2 0x10E3 JUMPI POP PUSH2 0x10DE SWAP1 PUSH2 0x2263 JUMP JUMPDEST PUSH2 0x102F JUMP JUMPDEST PUSH1 0x64 SWAP1 PUSH1 0x40 MLOAD SWAP1 PUSH3 0x461BCD PUSH1 0xE5 SHL DUP3 MSTORE PUSH1 0x4 DUP3 ADD MSTORE PUSH1 0x11 PUSH1 0x24 DUP3 ADD MSTORE PUSH17 0x14DB1A5C1C1859D948195E18D959591959 PUSH1 0x7A SHL PUSH1 0x44 DUP3 ADD MSTORE REVERT JUMPDEST SWAP1 SWAP2 POP DUP3 DUP2 DUP2 RETURNDATASIZE DUP4 GT PUSH2 0x1144 JUMPI JUMPDEST PUSH2 0x1133 DUP2 DUP4 PUSH2 0x1B43 JUMP JUMPDEST DUP2 ADD SUB SLT PUSH2 0x27F JUMPI MLOAD SWAP1 PUSH1 0x60 PUSH2 0x10CA JUMP JUMPDEST POP RETURNDATASIZE PUSH2 0x1129 JUMP JUMPDEST PUSH1 0x40 MLOAD PUSH3 0x461BCD PUSH1 0xE5 SHL DUP2 MSTORE PUSH1 0x4 DUP2 ADD DUP4 SWAP1 MSTORE PUSH1 0xE PUSH1 0x24 DUP3 ADD MSTORE PUSH14 0x496E76616C696420617373657473 PUSH1 0x90 SHL PUSH1 0x44 DUP3 ADD MSTORE PUSH1 0x64 SWAP1 REVERT JUMPDEST POP DUP1 DUP3 ADD MLOAD PUSH1 0x1 PUSH1 0x1 PUSH1 0xA0 SHL SUB AND PUSH1 0x0 SWAP1 DUP2 MSTORE PUSH1 0x40 SWAP1 KECCAK256 SLOAD PUSH1 0xFF AND PUSH2 0x1066 JUMP JUMPDEST POP PUSH1 0x1 PUSH1 0x1 PUSH1 0x80 SHL SUB TIMESTAMP AND PUSH1 0x1 PUSH1 0x1 PUSH1 0x80 SHL SUB NOT PUSH1 0x12 SLOAD AND OR PUSH1 0x12 SSTORE PUSH1 0x40 MLOAD PUSH1 0x20 DUP1 DUP3 ADD DUP2 DUP4 MSTORE DUP4 MLOAD DUP1 SWAP2 MSTORE DUP2 PUSH1 0x40 DUP5 ADD SWAP5 ADD SWAP2 PUSH1 0x0 JUMPDEST DUP3 DUP2 LT PUSH2 0x1207 JUMPI PUSH32 0xE358A3E6BFB0E9B735AAA1110ECE42522D0A8BCCE395023C034BD015254D29B DUP6 DUP8 SUB DUP7 LOG1 STOP JUMPDEST DUP4 MLOAD DUP1 MLOAD PUSH1 0x1 PUSH1 0x1 PUSH1 0xA0 SHL SUB SWAP1 DUP2 AND DUP9 MSTORE DUP2 DUP5 ADD MLOAD AND DUP8 DUP5 ADD MSTORE PUSH1 0x40 DUP1 DUP3 ADD MLOAD SWAP1 DUP9 ADD MSTORE PUSH1 0x60 SWAP1 DUP2 ADD MLOAD SWAP1 DUP8 ADD MSTORE PUSH1 0x80 SWAP1 SWAP6 ADD SWAP5 SWAP3 DUP2 ADD SWAP3 PUSH1 0x1 ADD PUSH2 0x11D8 JUMP JUMPDEST SWAP1 POP RETURNDATASIZE DUP1 PUSH1 0x0 DUP4 RETURNDATACOPY PUSH2 0x1259 DUP2 DUP4 PUSH2 0x1B43 JUMP JUMPDEST PUSH1 0x20 DUP3 DUP3 DUP2 ADD SUB SLT PUSH2 0x27F JUMPI DUP2 MLOAD PUSH8 0xFFFFFFFFFFFFFFFF DUP2 GT PUSH2 0x27F JUMPI DUP3 ADD DUP2 DUP4 ADD PUSH1 0x1F DUP3 ADD SLT ISZERO PUSH2 0x27F JUMPI DUP1 MLOAD PUSH2 0x1290 DUP2 PUSH2 0x2162 JUMP JUMPDEST SWAP3 PUSH2 0x129E PUSH1 0x40 MLOAD SWAP5 DUP6 PUSH2 0x1B43 JUMP JUMPDEST DUP2 DUP5 MSTORE PUSH1 0x20 DUP5 ADD SWAP3 DUP2 DUP7 ADD PUSH1 0x20 DUP5 PUSH1 0x7 SHL DUP4 ADD ADD GT PUSH2 0x27F JUMPI SWAP3 PUSH1 0x20 DUP5 ADD SWAP4 JUMPDEST PUSH1 0x20 DUP5 PUSH1 0x7 SHL DUP3 ADD ADD DUP6 LT PUSH2 0x12DA JUMPI POP POP POP POP POP SWAP1 POP DUP2 PUSH2 0x102B JUMP JUMPDEST PUSH1 0x80 DUP6 DUP5 DUP10 ADD SUB SLT PUSH2 0x27F JUMPI PUSH1 0x40 MLOAD SWAP2 DUP3 PUSH1 0x80 DUP2 ADD LT PUSH8 0xFFFFFFFFFFFFFFFF PUSH1 0x80 DUP6 ADD GT OR PUSH2 0x134B JUMPI PUSH1 0x20 PUSH1 0x80 SWAP2 DUP5 DUP4 DUP4 SWAP7 ADD PUSH1 0x40 MSTORE PUSH2 0x1319 DUP10 PUSH2 0x217A JUMP JUMPDEST DUP2 MSTORE PUSH2 0x1326 DUP4 DUP11 ADD PUSH2 0x217A JUMP JUMPDEST DUP4 DUP3 ADD MSTORE PUSH1 0x40 DUP10 ADD MLOAD PUSH1 0x40 DUP3 ADD MSTORE PUSH1 0x60 DUP1 DUP11 ADD MLOAD SWAP1 DUP3 ADD MSTORE DUP2 MSTORE ADD SWAP6 ADD SWAP5 SWAP2 POP PUSH2 0x12BE JUMP JUMPDEST PUSH4 0x4E487B71 PUSH1 0xE0 SHL PUSH1 0x0 MSTORE PUSH1 0x41 PUSH1 0x4 MSTORE PUSH1 0x24 PUSH1 0x0 REVERT JUMPDEST PUSH1 0x40 MLOAD PUSH3 0x461BCD PUSH1 0xE5 SHL DUP2 MSTORE PUSH1 0x20 PUSH1 0x4 DUP3 ADD MSTORE PUSH1 0x15 PUSH1 0x24 DUP3 ADD MSTORE PUSH21 0x149958985B185B98D9481B9BDD08185B1B1BDDD959 PUSH1 0x5A SHL PUSH1 0x44 DUP3 ADD MSTORE PUSH1 0x64 SWAP1 REVERT JUMPDEST CALLVALUE PUSH2 0x27F JUMPI PUSH1 0x0 CALLDATASIZE PUSH1 0x3 NOT ADD SLT PUSH2 0x27F JUMPI PUSH1 0xC0 PUSH1 0x10 SLOAD PUSH1 0x11 SLOAD SWAP1 PUSH1 0x12 SLOAD SWAP1 PUSH1 0x40 MLOAD SWAP3 PUSH1 0x1 PUSH1 0x1 PUSH1 0x80 SHL SUB SWAP2 DUP3 DUP2 AND DUP6 MSTORE PUSH1 0x80 SHR PUSH1 0x20 DUP6 ADD MSTORE DUP2 DUP2 AND PUSH1 0x40 DUP6 ADD MSTORE PUSH1 0x80 SHR PUSH1 0x60 DUP5 ADD MSTORE DUP2 AND PUSH1 0x80 DUP4 ADD MSTORE PUSH1 0x80 SHR PUSH1 0xA0 DUP3 ADD MSTORE RETURN JUMPDEST CALLVALUE PUSH2 0x27F JUMPI PUSH1 0x0 CALLDATASIZE PUSH1 0x3 NOT ADD SLT PUSH2 0x27F JUMPI PUSH2 0x1410 PUSH2 0x1AEB JUMP JUMPDEST PUSH1 0x6 DUP1 SLOAD PUSH1 0x1 PUSH1 0x1 PUSH1 0xA0 SHL SUB NOT DUP2 AND SWAP1 SWAP2 SSTORE PUSH1 0x0 SWAP1 PUSH1 0x1 PUSH1 0x1 PUSH1 0xA0 SHL SUB AND PUSH32 0x8BE0079C531659141344CD1FD0A4F28419497F9722A3DAAFE3B4186F6B6457E0 DUP3 DUP1 LOG3 STOP JUMPDEST CALLVALUE PUSH2 0x27F JUMPI PUSH1 0x20 CALLDATASIZE PUSH1 0x3 NOT ADD SLT PUSH2 0x27F JUMPI PUSH1 0x1 PUSH1 0x1 PUSH1 0xA0 SHL SUB PUSH2 0x1475 PUSH2 0x1A88 JUMP JUMPDEST AND PUSH1 0x0 MSTORE PUSH1 0x0 PUSH1 0x20 MSTORE PUSH1 0x20 PUSH1 0x40 PUSH1 0x0 KECCAK256 SLOAD PUSH1 0x40 MLOAD SWAP1 DUP2 MSTORE RETURN JUMPDEST CALLVALUE PUSH2 0x27F JUMPI PUSH1 0x0 CALLDATASIZE PUSH1 0x3 NOT ADD SLT PUSH2 0x27F JUMPI PUSH1 0xE SLOAD PUSH1 0x40 MLOAD PUSH1 0x1 PUSH1 0x1 PUSH1 0xA0 SHL SUB SWAP1 SWAP2 AND DUP2 MSTORE PUSH1 0x20 SWAP1 RETURN JUMPDEST CALLVALUE PUSH2 0x27F JUMPI PUSH1 0x0 CALLDATASIZE PUSH1 0x3 NOT ADD SLT PUSH2 0x27F JUMPI PUSH1 0x20 PUSH1 0xFF PUSH1 0x6 SLOAD PUSH1 0xA0 SHR AND PUSH1 0x40 MLOAD SWAP1 ISZERO ISZERO DUP2 MSTORE RETURN JUMPDEST CALLVALUE PUSH2 0x27F JUMPI PUSH1 0x0 CALLDATASIZE PUSH1 0x3 NOT ADD SLT PUSH2 0x27F JUMPI PUSH1 0x20 PUSH2 0x14F8 PUSH2 0x2405 JUMP JUMPDEST PUSH1 0x40 MLOAD SWAP1 DUP2 MSTORE RETURN JUMPDEST CALLVALUE PUSH2 0x27F JUMPI PUSH1 0x0 CALLDATASIZE PUSH1 0x3 NOT ADD SLT PUSH2 0x27F JUMPI PUSH1 0x7 SLOAD PUSH1 0x40 MLOAD PUSH1 0x1 PUSH1 0x1 PUSH1 0xA0 SHL SUB SWAP1 SWAP2 AND DUP2 MSTORE PUSH1 0x20 SWAP1 RETURN JUMPDEST CALLVALUE PUSH2 0x27F JUMPI PUSH1 0x0 CALLDATASIZE PUSH1 0x3 NOT ADD SLT PUSH2 0x27F JUMPI PUSH1 0xF SLOAD PUSH1 0x40 MLOAD PUSH1 0x1 PUSH1 0x1 PUSH1 0xA0 SHL SUB SWAP1 SWAP2 AND DUP2 MSTORE PUSH1 0x20 SWAP1 RETURN JUMPDEST CALLVALUE PUSH2 0x27F JUMPI PUSH1 0x20 DUP1 PUSH1 0x3 NOT CALLDATASIZE ADD SLT PUSH2 0x27F JUMPI PUSH1 0x4 CALLDATALOAD PUSH1 0xFF PUSH1 0x14 SLOAD AND ISZERO PUSH2 0x1577 DUP2 PUSH2 0x1DE2 JUMP JUMPDEST PUSH2 0x16ED JUMPI DUP1 ISZERO ISZERO DUP1 PUSH2 0x16D6 JUMPI JUMPDEST PUSH2 0x158D SWAP1 PUSH2 0x1FE4 JUMP JUMPDEST PUSH1 0x2 SLOAD PUSH2 0x159A DUP3 CALLER PUSH2 0x2021 JUMP JUMPDEST PUSH1 0x0 JUMPDEST PUSH1 0x8 SLOAD DUP2 LT ISZERO PUSH2 0x16D4 JUMPI PUSH2 0x15B0 DUP2 PUSH2 0x1AB4 JUMP JUMPDEST SWAP1 SLOAD PUSH1 0x40 MLOAD PUSH4 0x70A08231 PUSH1 0xE0 SHL DUP2 MSTORE ADDRESS PUSH1 0x4 DUP3 ADD MSTORE PUSH1 0x3 SWAP3 SWAP1 SWAP3 SHL SHR PUSH1 0x1 PUSH1 0x1 PUSH1 0xA0 SHL SUB AND SWAP2 SWAP1 DUP6 DUP2 PUSH1 0x24 DUP2 DUP7 GAS STATICCALL SWAP1 DUP2 ISZERO PUSH2 0x547 JUMPI DUP7 SWAP2 DUP6 SWAP2 PUSH1 0x0 SWAP2 PUSH2 0x169F JUMPI JUMPDEST POP SWAP1 PUSH2 0x40B PUSH2 0x1601 SWAP3 DUP9 PUSH2 0x1E71 JUMP JUMPDEST DUP1 PUSH2 0x1618 JUMPI JUMPDEST POP POP PUSH2 0x1613 SWAP2 POP PUSH2 0x2263 JUMP JUMPDEST PUSH2 0x159D JUMP JUMPDEST PUSH1 0x40 MLOAD PUSH4 0xA9059CBB PUSH1 0xE0 SHL DUP2 MSTORE CALLER PUSH1 0x4 DUP3 ADD MSTORE PUSH1 0x24 DUP2 ADD SWAP2 SWAP1 SWAP2 MSTORE SWAP3 DUP4 SWAP1 PUSH1 0x44 SWAP1 DUP3 SWAP1 PUSH1 0x0 SWAP1 GAS CALL SWAP2 DUP3 ISZERO PUSH2 0x547 JUMPI PUSH1 0x0 SWAP3 PUSH2 0x1663 JUMPI JUMPDEST POP PUSH2 0x165C PUSH2 0x1613 SWAP3 PUSH2 0x1E33 JUMP JUMPDEST DUP5 DUP7 PUSH2 0x1607 JUMP JUMPDEST SWAP2 POP DUP5 DUP3 DUP2 RETURNDATASIZE DUP4 GT PUSH2 0x1698 JUMPI JUMPDEST PUSH2 0x167A DUP2 DUP4 PUSH2 0x1B43 JUMP JUMPDEST DUP2 ADD SUB SLT PUSH2 0x27F JUMPI PUSH2 0x165C PUSH2 0x1691 PUSH2 0x1613 SWAP4 PUSH2 0x1E26 JUMP JUMPDEST SWAP3 POP PUSH2 0x164F JUMP JUMPDEST POP RETURNDATASIZE PUSH2 0x1670 JUMP JUMPDEST SWAP3 DUP1 SWAP3 POP DUP4 SWAP2 POP RETURNDATASIZE DUP4 GT PUSH2 0x16CD JUMPI JUMPDEST PUSH2 0x16B8 DUP2 DUP4 PUSH2 0x1B43 JUMP JUMPDEST DUP2 ADD SUB SLT PUSH2 0x27F JUMPI MLOAD DUP6 SWAP1 DUP5 SWAP1 PUSH2 0x40B PUSH2 0x15F2 JUMP JUMPDEST POP RETURNDATASIZE PUSH2 0x16AE JUMP JUMPDEST STOP JUMPDEST POP CALLER PUSH1 0x0 SWAP1 DUP2 MSTORE DUP1 DUP4 MSTORE PUSH1 0x40 SWAP1 KECCAK256 SLOAD DUP2 GT ISZERO PUSH2 0x1584 JUMP JUMPDEST PUSH1 0x40 MLOAD PUSH3 0x461BCD PUSH1 0xE5 SHL DUP2 MSTORE PUSH1 0x4 DUP2 ADD DUP4 SWAP1 MSTORE PUSH1 0x10 PUSH1 0x24 DUP3 ADD MSTORE PUSH16 0x4E6F7420696E20656D657267656E6379 PUSH1 0x80 SHL PUSH1 0x44 DUP3 ADD MSTORE PUSH1 0x64 SWAP1 REVERT JUMPDEST CALLVALUE PUSH2 0x27F JUMPI PUSH1 0x40 CALLDATASIZE PUSH1 0x3 NOT ADD SLT PUSH2 0x27F JUMPI PUSH2 0xD79 PUSH2 0x1741 PUSH2 0x1A88 JUMP JUMPDEST CALLER PUSH1 0x0 MSTORE PUSH1 0x1 PUSH1 0x20 MSTORE PUSH1 0x40 PUSH1 0x0 KECCAK256 PUSH1 0x1 DUP1 PUSH1 0xA0 SHL SUB DUP3 AND PUSH1 0x0 MSTORE PUSH1 0x20 MSTORE PUSH2 0x176F PUSH1 0x24 CALLDATALOAD PUSH1 0x40 PUSH1 0x0 KECCAK256 SLOAD PUSH2 0x1B65 JUMP JUMPDEST SWAP1 CALLER PUSH2 0x1CE0 JUMP JUMPDEST CALLVALUE PUSH2 0x27F JUMPI PUSH1 0x0 CALLDATASIZE PUSH1 0x3 NOT ADD SLT PUSH2 0x27F JUMPI PUSH1 0x20 PUSH1 0x40 MLOAD PUSH1 0x12 DUP2 MSTORE RETURN JUMPDEST CALLVALUE PUSH2 0x27F JUMPI PUSH1 0x0 CALLDATASIZE PUSH1 0x3 NOT ADD SLT PUSH2 0x27F JUMPI PUSH1 0xB SLOAD PUSH1 0x40 MLOAD PUSH1 0x1 PUSH1 0x1 PUSH1 0xA0 SHL SUB SWAP1 SWAP2 AND DUP2 MSTORE PUSH1 0x20 SWAP1 RETURN JUMPDEST CALLVALUE PUSH2 0x27F JUMPI PUSH1 0x60 CALLDATASIZE PUSH1 0x3 NOT ADD SLT PUSH2 0x27F JUMPI PUSH2 0x17D4 PUSH2 0x1A88 JUMP JUMPDEST PUSH2 0x17DC PUSH2 0x1A9E JUMP JUMPDEST PUSH1 0x44 CALLDATALOAD SWAP1 PUSH1 0x1 DUP1 PUSH1 0xA0 SHL SUB DUP4 AND PUSH1 0x0 MSTORE PUSH1 0x1 PUSH1 0x20 MSTORE PUSH1 0x40 PUSH1 0x0 KECCAK256 CALLER PUSH1 0x0 MSTORE PUSH1 0x20 MSTORE PUSH1 0x40 PUSH1 0x0 KECCAK256 SLOAD SWAP3 PUSH1 0x0 NOT DUP5 SUB PUSH2 0x1818 JUMPI JUMPDEST PUSH2 0xD79 SWAP4 POP PUSH2 0x1B72 JUMP JUMPDEST DUP3 DUP5 LT PUSH2 0x1834 JUMPI PUSH2 0x182F DUP4 PUSH2 0xD79 SWAP6 SUB CALLER DUP4 PUSH2 0x1CE0 JUMP JUMPDEST PUSH2 0x180E JUMP JUMPDEST PUSH1 0x40 MLOAD PUSH3 0x461BCD PUSH1 0xE5 SHL DUP2 MSTORE PUSH1 0x20 PUSH1 0x4 DUP3 ADD MSTORE PUSH1 0x1D PUSH1 0x24 DUP3 ADD MSTORE PUSH32 0x45524332303A20696E73756666696369656E7420616C6C6F77616E6365000000 PUSH1 0x44 DUP3 ADD MSTORE PUSH1 0x64 SWAP1 REVERT JUMPDEST CALLVALUE PUSH2 0x27F JUMPI PUSH1 0x0 CALLDATASIZE PUSH1 0x3 NOT ADD SLT PUSH2 0x27F JUMPI PUSH1 0x20 PUSH1 0xFF PUSH1 0x14 SLOAD AND PUSH1 0x40 MLOAD SWAP1 ISZERO ISZERO DUP2 MSTORE RETURN JUMPDEST CALLVALUE PUSH2 0x27F JUMPI PUSH1 0x0 CALLDATASIZE PUSH1 0x3 NOT ADD SLT PUSH2 0x27F JUMPI PUSH1 0x20 PUSH1 0x13 SLOAD PUSH1 0x40 MLOAD SWAP1 DUP2 MSTORE RETURN JUMPDEST CALLVALUE PUSH2 0x27F JUMPI PUSH1 0x0 CALLDATASIZE PUSH1 0x3 NOT ADD SLT PUSH2 0x27F JUMPI PUSH1 0x20 PUSH1 0x2 SLOAD PUSH1 0x40 MLOAD SWAP1 DUP2 MSTORE RETURN JUMPDEST CALLVALUE PUSH2 0x27F JUMPI PUSH1 0x0 CALLDATASIZE PUSH1 0x3 NOT ADD SLT PUSH2 0x27F JUMPI PUSH1 0x20 PUSH2 0x14F8 PUSH2 0x2343 JUMP JUMPDEST CALLVALUE PUSH2 0x27F JUMPI PUSH1 0x20 CALLDATASIZE PUSH1 0x3 NOT ADD SLT PUSH2 0x27F JUMPI PUSH1 0x4 CALLDATALOAD PUSH1 0x8 SLOAD DUP2 LT ISZERO PUSH2 0x27F JUMPI PUSH2 0x191C PUSH1 0x20 SWAP2 PUSH2 0x1AB4 JUMP JUMPDEST SWAP1 SLOAD PUSH1 0x40 MLOAD PUSH1 0x3 SWAP3 SWAP1 SWAP3 SHL SHR PUSH1 0x1 PUSH1 0x1 PUSH1 0xA0 SHL SUB AND DUP2 MSTORE RETURN JUMPDEST CALLVALUE PUSH2 0x27F JUMPI PUSH1 0x40 CALLDATASIZE PUSH1 0x3 NOT ADD SLT PUSH2 0x27F JUMPI PUSH2 0xD79 PUSH2 0x1951 PUSH2 0x1A88 JUMP JUMPDEST PUSH1 0x24 CALLDATALOAD SWAP1 CALLER PUSH2 0x1CE0 JUMP JUMPDEST CALLVALUE PUSH2 0x27F JUMPI PUSH1 0x0 CALLDATASIZE PUSH1 0x3 NOT ADD SLT PUSH2 0x27F JUMPI PUSH1 0xC SLOAD PUSH1 0x40 MLOAD PUSH1 0x1 PUSH1 0x1 PUSH1 0xA0 SHL SUB SWAP1 SWAP2 AND DUP2 MSTORE PUSH1 0x20 SWAP1 RETURN JUMPDEST CALLVALUE PUSH2 0x27F JUMPI PUSH1 0x0 CALLDATASIZE PUSH1 0x3 NOT ADD SLT PUSH2 0x27F JUMPI PUSH1 0x0 SWAP1 PUSH1 0x3 SLOAD PUSH1 0x1 DUP2 DUP2 SHR SWAP1 DUP1 DUP4 AND SWAP3 DUP4 ISZERO PUSH2 0x1A35 JUMPI JUMPDEST PUSH1 0x20 SWAP4 DUP5 DUP5 LT DUP2 EQ PUSH2 0xF35 JUMPI DUP4 DUP7 MSTORE SWAP1 DUP2 ISZERO PUSH2 0xF15 JUMPI POP PUSH1 0x1 EQ PUSH2 0x19DA JUMPI PUSH2 0xEB6 DUP5 PUSH2 0xEAA DUP2 DUP9 SUB DUP3 PUSH2 0x1B43 JUMP JUMPDEST PUSH1 0x3 PUSH1 0x0 SWAP1 DUP2 MSTORE SWAP3 SWAP5 POP PUSH32 0xC2575A0E9E593C00F959F8C92F12DB2869C3395A3B0502D05E2516446F71F85B JUMPDEST DUP3 DUP5 LT PUSH2 0x1A22 JUMPI POP POP POP DUP2 PUSH2 0xEB6 SWAP4 PUSH2 0xEAA SWAP3 DUP3 ADD ADD SWAP4 PUSH2 0xE9A JUMP JUMPDEST DUP1 SLOAD DUP6 DUP6 ADD DUP8 ADD MSTORE SWAP3 DUP6 ADD SWAP3 DUP2 ADD PUSH2 0x1A06 JUMP JUMPDEST SWAP2 PUSH1 0x7F AND SWAP2 PUSH2 0x19AC JUMP JUMPDEST PUSH1 0x20 DUP1 DUP3 MSTORE DUP3 MLOAD DUP2 DUP4 ADD DUP2 SWAP1 MSTORE SWAP1 SWAP4 SWAP3 PUSH1 0x0 JUMPDEST DUP3 DUP2 LT PUSH2 0x1A74 JUMPI POP POP PUSH1 0x40 SWAP3 SWAP4 POP PUSH1 0x0 DUP4 DUP3 DUP5 ADD ADD MSTORE PUSH1 0x1F DUP1 NOT SWAP2 ADD AND ADD ADD SWAP1 JUMP JUMPDEST DUP2 DUP2 ADD DUP7 ADD MLOAD DUP5 DUP3 ADD PUSH1 0x40 ADD MSTORE DUP6 ADD PUSH2 0x1A52 JUMP JUMPDEST PUSH1 0x4 CALLDATALOAD SWAP1 PUSH1 0x1 PUSH1 0x1 PUSH1 0xA0 SHL SUB DUP3 AND DUP3 SUB PUSH2 0x27F JUMPI JUMP JUMPDEST PUSH1 0x24 CALLDATALOAD SWAP1 PUSH1 0x1 PUSH1 0x1 PUSH1 0xA0 SHL SUB DUP3 AND DUP3 SUB PUSH2 0x27F JUMPI JUMP JUMPDEST PUSH1 0x8 SLOAD DUP2 LT ISZERO PUSH2 0xD0A JUMPI PUSH1 0x8 PUSH1 0x0 MSTORE PUSH32 0xF3F7A9FE364FAAB93B216DA50A3214154F22A0A2B415B23A84C8169E8B636EE3 ADD SWAP1 PUSH1 0x0 SWAP1 JUMP JUMPDEST PUSH1 0x6 SLOAD PUSH1 0x1 PUSH1 0x1 PUSH1 0xA0 SHL SUB AND CALLER SUB PUSH2 0x1AFF JUMPI JUMP JUMPDEST PUSH1 0x64 PUSH1 0x40 MLOAD PUSH3 0x461BCD PUSH1 0xE5 SHL DUP2 MSTORE PUSH1 0x20 PUSH1 0x4 DUP3 ADD MSTORE PUSH1 0x20 PUSH1 0x24 DUP3 ADD MSTORE PUSH32 0x4F776E61626C653A2063616C6C6572206973206E6F7420746865206F776E6572 PUSH1 0x44 DUP3 ADD MSTORE REVERT JUMPDEST SWAP1 PUSH1 0x1F DUP1 NOT SWAP2 ADD AND DUP2 ADD SWAP1 DUP2 LT PUSH8 0xFFFFFFFFFFFFFFFF DUP3 GT OR PUSH2 0x134B JUMPI PUSH1 0x40 MSTORE JUMP JUMPDEST SWAP2 SWAP1 DUP3 ADD DUP1 SWAP3 GT PUSH2 0xC9C JUMPI JUMP JUMPDEST PUSH1 0x1 PUSH1 0x1 PUSH1 0xA0 SHL SUB SWAP1 DUP2 AND SWAP2 DUP3 ISZERO PUSH2 0x1C8D JUMPI AND SWAP2 DUP3 ISZERO PUSH2 0x1C3C JUMPI PUSH1 0x0 DUP3 DUP2 MSTORE DUP1 PUSH1 0x20 MSTORE PUSH1 0x40 DUP2 KECCAK256 SLOAD SWAP2 DUP1 DUP4 LT PUSH2 0x1BE8 JUMPI PUSH1 0x40 DUP3 DUP3 PUSH32 0xDDF252AD1BE2C89B69C2B068FC378DAA952BA7F163C4A11628F55A4DF523B3EF SWAP6 DUP8 PUSH1 0x20 SWAP7 MSTORE DUP3 DUP7 MSTORE SUB DUP3 DUP3 KECCAK256 SSTORE DUP7 DUP2 MSTORE KECCAK256 DUP2 DUP2 SLOAD ADD SWAP1 SSTORE PUSH1 0x40 MLOAD SWAP1 DUP2 MSTORE LOG3 JUMP JUMPDEST PUSH1 0x40 MLOAD PUSH3 0x461BCD PUSH1 0xE5 SHL DUP2 MSTORE PUSH1 0x20 PUSH1 0x4 DUP3 ADD MSTORE PUSH1 0x26 PUSH1 0x24 DUP3 ADD MSTORE PUSH32 0x45524332303A207472616E7366657220616D6F756E7420657863656564732062 PUSH1 0x44 DUP3 ADD MSTORE PUSH6 0x616C616E6365 PUSH1 0xD0 SHL PUSH1 0x64 DUP3 ADD MSTORE PUSH1 0x84 SWAP1 REVERT JUMPDEST PUSH1 0x40 MLOAD PUSH3 0x461BCD PUSH1 0xE5 SHL DUP2 MSTORE PUSH1 0x20 PUSH1 0x4 DUP3 ADD MSTORE PUSH1 0x23 PUSH1 0x24 DUP3 ADD MSTORE PUSH32 0x45524332303A207472616E7366657220746F20746865207A65726F2061646472 PUSH1 0x44 DUP3 ADD MSTORE PUSH3 0x657373 PUSH1 0xE8 SHL PUSH1 0x64 DUP3 ADD MSTORE PUSH1 0x84 SWAP1 REVERT JUMPDEST PUSH1 0x40 MLOAD PUSH3 0x461BCD PUSH1 0xE5 SHL DUP2 MSTORE PUSH1 0x20 PUSH1 0x4 DUP3 ADD MSTORE PUSH1 0x25 PUSH1 0x24 DUP3 ADD MSTORE PUSH32 0x45524332303A207472616E736665722066726F6D20746865207A65726F206164 PUSH1 0x44 DUP3 ADD MSTORE PUSH5 0x6472657373 PUSH1 0xD8 SHL PUSH1 0x64 DUP3 ADD MSTORE PUSH1 0x84 SWAP1 REVERT JUMPDEST PUSH1 0x1 PUSH1 0x1 PUSH1 0xA0 SHL SUB SWAP1 DUP2 AND SWAP2 DUP3 ISZERO PUSH2 0x1D91 JUMPI AND SWAP2 DUP3 ISZERO PUSH2 0x1D41 JUMPI PUSH1 0x20 PUSH32 0x8C5BE1E5EBEC7D5BD14F71427D1E84F3DD0314C0F7B2291E5B200AC8C7C3B925 SWAP2 DUP4 PUSH1 0x0 MSTORE PUSH1 0x1 DUP3 MSTORE PUSH1 0x40 PUSH1 0x0 KECCAK256 DUP6 PUSH1 0x0 MSTORE DUP3 MSTORE DUP1 PUSH1 0x40 PUSH1 0x0 KECCAK256 SSTORE PUSH1 0x40 MLOAD SWAP1 DUP2 MSTORE LOG3 JUMP JUMPDEST PUSH1 0x40 MLOAD PUSH3 0x461BCD PUSH1 0xE5 SHL DUP2 MSTORE PUSH1 0x20 PUSH1 0x4 DUP3 ADD MSTORE PUSH1 0x22 PUSH1 0x24 DUP3 ADD MSTORE PUSH32 0x45524332303A20617070726F766520746F20746865207A65726F206164647265 PUSH1 0x44 DUP3 ADD MSTORE PUSH2 0x7373 PUSH1 0xF0 SHL PUSH1 0x64 DUP3 ADD MSTORE PUSH1 0x84 SWAP1 REVERT JUMPDEST PUSH1 0x40 MLOAD PUSH3 0x461BCD PUSH1 0xE5 SHL DUP2 MSTORE PUSH1 0x20 PUSH1 0x4 DUP3 ADD MSTORE PUSH1 0x24 DUP1 DUP3 ADD MSTORE PUSH32 0x45524332303A20617070726F76652066726F6D20746865207A65726F20616464 PUSH1 0x44 DUP3 ADD MSTORE PUSH4 0x72657373 PUSH1 0xE0 SHL PUSH1 0x64 DUP3 ADD MSTORE PUSH1 0x84 SWAP1 REVERT JUMPDEST ISZERO PUSH2 0x1DE9 JUMPI JUMP JUMPDEST PUSH1 0x40 MLOAD PUSH3 0x461BCD PUSH1 0xE5 SHL DUP2 MSTORE PUSH1 0x20 PUSH1 0x4 DUP3 ADD MSTORE PUSH1 0x15 PUSH1 0x24 DUP3 ADD MSTORE PUSH21 0x456D657267656E6379206D6F646520616374697665 PUSH1 0x58 SHL PUSH1 0x44 DUP3 ADD MSTORE PUSH1 0x64 SWAP1 REVERT JUMPDEST MLOAD SWAP1 DUP2 ISZERO ISZERO DUP3 SUB PUSH2 0x27F JUMPI JUMP JUMPDEST ISZERO PUSH2 0x1E3A JUMPI JUMP JUMPDEST PUSH1 0x40 MLOAD PUSH3 0x461BCD PUSH1 0xE5 SHL DUP2 MSTORE PUSH1 0x20 PUSH1 0x4 DUP3 ADD MSTORE PUSH1 0xF PUSH1 0x24 DUP3 ADD MSTORE PUSH15 0x151C985B9CD9995C8819985A5B1959 PUSH1 0x8A SHL PUSH1 0x44 DUP3 ADD MSTORE PUSH1 0x64 SWAP1 REVERT JUMPDEST DUP2 DUP2 MUL SWAP3 SWAP2 DUP2 ISZERO SWAP2 DUP5 DIV EQ OR ISZERO PUSH2 0xC9C JUMPI JUMP JUMPDEST DUP2 ISZERO PUSH2 0x1E8E JUMPI DIV SWAP1 JUMP JUMPDEST PUSH4 0x4E487B71 PUSH1 0xE0 SHL PUSH1 0x0 MSTORE PUSH1 0x12 PUSH1 0x4 MSTORE PUSH1 0x24 PUSH1 0x0 REVERT JUMPDEST PUSH1 0xFF PUSH1 0x6 SLOAD PUSH1 0xA0 SHR AND PUSH2 0x1EB3 JUMPI JUMP JUMPDEST PUSH1 0x40 MLOAD PUSH3 0x461BCD PUSH1 0xE5 SHL DUP2 MSTORE PUSH1 0x20 PUSH1 0x4 DUP3 ADD MSTORE PUSH1 0x10 PUSH1 0x24 DUP3 ADD MSTORE PUSH16 0x14185D5CD8589B194E881C185D5CD959 PUSH1 0x82 SHL PUSH1 0x44 DUP3 ADD MSTORE PUSH1 0x64 SWAP1 REVERT JUMPDEST PUSH1 0x2 PUSH1 0x5 SLOAD EQ PUSH2 0x1EFC JUMPI PUSH1 0x2 PUSH1 0x5 SSTORE JUMP JUMPDEST PUSH1 0x40 MLOAD PUSH3 0x461BCD PUSH1 0xE5 SHL DUP2 MSTORE PUSH1 0x20 PUSH1 0x4 DUP3 ADD MSTORE PUSH1 0x1F PUSH1 0x24 DUP3 ADD MSTORE PUSH32 0x5265656E7472616E637947756172643A207265656E7472616E742063616C6C00 PUSH1 0x44 DUP3 ADD MSTORE PUSH1 0x64 SWAP1 REVERT JUMPDEST PUSH1 0x1 PUSH1 0x1 PUSH1 0xA0 SHL SUB AND SWAP1 DUP2 ISZERO PUSH2 0x1F9F JUMPI PUSH32 0xDDF252AD1BE2C89B69C2B068FC378DAA952BA7F163C4A11628F55A4DF523B3EF PUSH1 0x20 DUP3 PUSH2 0x1F83 PUSH1 0x0 SWAP5 PUSH1 0x2 SLOAD PUSH2 0x1B65 JUMP JUMPDEST PUSH1 0x2 SSTORE DUP5 DUP5 MSTORE DUP4 DUP3 MSTORE PUSH1 0x40 DUP5 KECCAK256 DUP2 DUP2 SLOAD ADD SWAP1 SSTORE PUSH1 0x40 MLOAD SWAP1 DUP2 MSTORE LOG3 JUMP JUMPDEST PUSH1 0x40 MLOAD PUSH3 0x461BCD PUSH1 0xE5 SHL DUP2 MSTORE PUSH1 0x20 PUSH1 0x4 DUP3 ADD MSTORE PUSH1 0x1F PUSH1 0x24 DUP3 ADD MSTORE PUSH32 0x45524332303A206D696E7420746F20746865207A65726F206164647265737300 PUSH1 0x44 DUP3 ADD MSTORE PUSH1 0x64 SWAP1 REVERT JUMPDEST ISZERO PUSH2 0x1FEB JUMPI JUMP JUMPDEST PUSH1 0x40 MLOAD PUSH3 0x461BCD PUSH1 0xE5 SHL DUP2 MSTORE PUSH1 0x20 PUSH1 0x4 DUP3 ADD MSTORE PUSH1 0xE PUSH1 0x24 DUP3 ADD MSTORE PUSH14 0x125B9D985B1A5908185B5BDD5B9D PUSH1 0x92 SHL PUSH1 0x44 DUP3 ADD MSTORE PUSH1 0x64 SWAP1 REVERT JUMPDEST PUSH1 0x1 PUSH1 0x1 PUSH1 0xA0 SHL SUB AND DUP1 ISZERO PUSH2 0x20D9 JUMPI PUSH1 0x0 SWAP2 DUP2 DUP4 MSTORE DUP3 PUSH1 0x20 MSTORE PUSH1 0x40 DUP4 KECCAK256 SLOAD DUP2 DUP2 LT PUSH2 0x2089 JUMPI DUP2 PUSH32 0xDDF252AD1BE2C89B69C2B068FC378DAA952BA7F163C4A11628F55A4DF523B3EF SWAP3 PUSH1 0x20 SWAP3 DUP6 DUP8 MSTORE DUP7 DUP5 MSTORE SUB PUSH1 0x40 DUP7 KECCAK256 SSTORE DUP1 PUSH1 0x2 SLOAD SUB PUSH1 0x2 SSTORE PUSH1 0x40 MLOAD SWAP1 DUP2 MSTORE LOG3 JUMP JUMPDEST PUSH1 0x40 MLOAD PUSH3 0x461BCD PUSH1 0xE5 SHL DUP2 MSTORE PUSH1 0x20 PUSH1 0x4 DUP3 ADD MSTORE PUSH1 0x22 PUSH1 0x24 DUP3 ADD MSTORE PUSH32 0x45524332303A206275726E20616D6F756E7420657863656564732062616C616E PUSH1 0x44 DUP3 ADD MSTORE PUSH2 0x6365 PUSH1 0xF0 SHL PUSH1 0x64 DUP3 ADD MSTORE PUSH1 0x84 SWAP1 REVERT JUMPDEST PUSH1 0x40 MLOAD PUSH3 0x461BCD PUSH1 0xE5 SHL DUP2 MSTORE PUSH1 0x20 PUSH1 0x4 DUP3 ADD MSTORE PUSH1 0x21 PUSH1 0x24 DUP3 ADD MSTORE PUSH32 0x45524332303A206275726E2066726F6D20746865207A65726F20616464726573 PUSH1 0x44 DUP3 ADD MSTORE PUSH1 0x73 PUSH1 0xF8 SHL PUSH1 0x64 DUP3 ADD MSTORE PUSH1 0x84 SWAP1 REVERT JUMPDEST ISZERO PUSH2 0x212F JUMPI JUMP JUMPDEST PUSH1 0x40 MLOAD PUSH3 0x461BCD PUSH1 0xE5 SHL DUP2 MSTORE PUSH1 0x20 PUSH1 0x4 DUP3 ADD MSTORE PUSH1 0xB PUSH1 0x24 DUP3 ADD MSTORE PUSH11 0x2737BA1036B0B730B3B2B9 PUSH1 0xA9 SHL PUSH1 0x44 DUP3 ADD MSTORE PUSH1 0x64 SWAP1 REVERT JUMPDEST PUSH8 0xFFFFFFFFFFFFFFFF DUP2 GT PUSH2 0x134B JUMPI PUSH1 0x5 SHL PUSH1 0x20 ADD SWAP1 JUMP JUMPDEST MLOAD SWAP1 PUSH1 0x1 PUSH1 0x1 PUSH1 0xA0 SHL SUB DUP3 AND DUP3 SUB PUSH2 0x27F JUMPI JUMP JUMPDEST SWAP1 DUP2 MLOAD DUP1 DUP3 MSTORE PUSH1 0x20 DUP1 DUP1 SWAP4 ADD SWAP4 ADD SWAP2 PUSH1 0x0 JUMPDEST DUP3 DUP2 LT PUSH2 0x21AE JUMPI POP POP POP POP SWAP1 JUMP JUMPDEST DUP4 MLOAD DUP6 MSTORE SWAP4 DUP2 ADD SWAP4 SWAP3 DUP2 ADD SWAP3 PUSH1 0x1 ADD PUSH2 0x21A0 JUMP JUMPDEST SWAP2 SWAP1 SWAP4 SWAP3 SWAP4 PUSH1 0x80 DUP4 ADD SWAP1 PUSH1 0x80 DUP5 MSTORE PUSH1 0x8 SLOAD DUP1 SWAP3 MSTORE PUSH1 0xA0 DUP5 ADD SWAP2 PUSH1 0x8 PUSH1 0x0 MSTORE PUSH32 0xF3F7A9FE364FAAB93B216DA50A3214154F22A0A2B415B23A84C8169E8B636EE3 SWAP1 PUSH1 0x0 JUMPDEST DUP2 DUP2 LT PUSH2 0x2244 JUMPI POP POP POP PUSH1 0x60 SWAP3 PUSH2 0x222F DUP4 PUSH2 0x223D SWAP4 DUP8 PUSH1 0x1 PUSH1 0x1 PUSH1 0x80 SHL SUB SWAP7 SUB PUSH1 0x20 DUP10 ADD MSTORE PUSH2 0x218E JUMP JUMPDEST SWAP1 DUP6 DUP3 SUB PUSH1 0x40 DUP8 ADD MSTORE PUSH2 0x218E JUMP JUMPDEST SWAP5 AND SWAP2 ADD MSTORE JUMP JUMPDEST DUP3 SLOAD PUSH1 0x1 PUSH1 0x1 PUSH1 0xA0 SHL SUB AND DUP6 MSTORE PUSH1 0x20 SWAP1 SWAP5 ADD SWAP4 PUSH1 0x1 SWAP3 DUP4 ADD SWAP3 ADD PUSH2 0x2205 JUMP JUMPDEST PUSH1 0x0 NOT DUP2 EQ PUSH2 0xC9C JUMPI PUSH1 0x1 ADD SWAP1 JUMP JUMPDEST DUP1 MLOAD DUP3 LT ISZERO PUSH2 0xD0A JUMPI PUSH1 0x20 SWAP2 PUSH1 0x5 SHL ADD ADD SWAP1 JUMP JUMPDEST PUSH1 0x1 PUSH1 0x1 PUSH1 0x80 SHL SUB DUP1 PUSH1 0x12 SLOAD AND SWAP1 PUSH1 0x11 SLOAD SWAP2 DUP2 DUP4 AND ADD DUP2 DUP2 GT PUSH2 0xC9C JUMPI AND TIMESTAMP LT PUSH2 0x233D JUMPI PUSH1 0x20 PUSH2 0x22EE SWAP2 PUSH2 0x22B8 PUSH2 0x264F JUMP JUMPDEST SWAP1 PUSH2 0x22C1 PUSH2 0x2755 JUMP JUMPDEST PUSH1 0x1 DUP1 PUSH1 0xA0 SHL SUB PUSH1 0xE SLOAD AND SWAP2 PUSH1 0x40 MLOAD SWAP6 DUP7 SWAP5 DUP6 SWAP4 DUP5 SWAP4 PUSH4 0x2999FD89 PUSH1 0xE0 SHL DUP6 MSTORE PUSH1 0x80 SHR SWAP2 PUSH1 0x4 DUP6 ADD PUSH2 0x21C2 JUMP JUMPDEST SUB SWAP2 GAS STATICCALL SWAP1 DUP2 ISZERO PUSH2 0x547 JUMPI PUSH1 0x0 SWAP2 PUSH2 0x2304 JUMPI POP SWAP1 JUMP JUMPDEST SWAP1 PUSH1 0x20 DUP3 RETURNDATASIZE DUP3 GT PUSH2 0x2335 JUMPI JUMPDEST DUP2 PUSH2 0x231D PUSH1 0x20 SWAP4 DUP4 PUSH2 0x1B43 JUMP JUMPDEST DUP2 ADD SUB SLT PUSH2 0x2332 JUMPI POP PUSH2 0x232F SWAP1 PUSH2 0x1E26 JUMP JUMPDEST SWAP1 JUMP JUMPDEST DUP1 REVERT JUMPDEST RETURNDATASIZE SWAP2 POP PUSH2 0x2310 JUMP JUMPDEST POP PUSH1 0x0 SWAP1 JUMP JUMPDEST PUSH1 0x0 DUP1 PUSH1 0x8 SLOAD JUMPDEST DUP1 DUP3 LT PUSH2 0x2356 JUMPI POP POP SWAP1 JUMP JUMPDEST SWAP1 SWAP2 PUSH2 0x2361 DUP4 PUSH2 0x1AB4 JUMP JUMPDEST SWAP1 SLOAD PUSH1 0x40 DUP1 MLOAD PUSH4 0x70A08231 PUSH1 0xE0 SHL DUP2 MSTORE ADDRESS PUSH1 0x4 DUP3 ADD MSTORE SWAP1 SWAP3 PUSH1 0x3 SHL SWAP2 SWAP1 SWAP2 SHR PUSH1 0x1 PUSH1 0x1 PUSH1 0xA0 SHL SUB AND SWAP1 PUSH1 0x20 DUP1 DUP3 PUSH1 0x24 DUP2 DUP7 GAS STATICCALL SWAP4 DUP5 ISZERO PUSH2 0x23FB JUMPI POP PUSH1 0x0 SWAP4 PUSH2 0x23C6 JUMPI JUMPDEST POP POP SWAP2 PUSH2 0x8A7 PUSH2 0x23BA SWAP3 PUSH2 0x486 PUSH2 0x23C0 SWAP6 PUSH2 0x2447 JUMP JUMPDEST SWAP3 PUSH2 0x2263 JUMP JUMPDEST SWAP1 PUSH2 0x234A JUMP JUMPDEST DUP2 DUP2 SWAP5 SWAP3 SWAP4 SWAP5 RETURNDATASIZE DUP4 GT PUSH2 0x23F4 JUMPI JUMPDEST PUSH2 0x23DE DUP2 DUP4 PUSH2 0x1B43 JUMP JUMPDEST DUP2 ADD SUB SLT PUSH2 0x2332 JUMPI POP MLOAD SWAP1 PUSH2 0x8A7 PUSH2 0x23C0 PUSH2 0x23A4 JUMP JUMPDEST POP RETURNDATASIZE PUSH2 0x23D4 JUMP JUMPDEST MLOAD RETURNDATASIZE PUSH1 0x0 DUP3 RETURNDATACOPY RETURNDATASIZE SWAP1 REVERT JUMPDEST PUSH2 0x240D PUSH2 0x2343 JUMP JUMPDEST PUSH1 0x2 SLOAD DUP1 ISZERO PUSH2 0x2439 JUMPI PUSH8 0xDE0B6B3A7640000 SWAP2 DUP3 DUP2 MUL SWAP3 DUP2 DUP5 DIV EQ SWAP1 ISZERO OR ISZERO PUSH2 0xC9C JUMPI PUSH2 0x232F SWAP2 PUSH2 0x1E84 JUMP JUMPDEST POP POP PUSH8 0xDE0B6B3A7640000 SWAP1 JUMP JUMPDEST PUSH1 0xB SLOAD PUSH1 0x40 DUP1 MLOAD PUSH4 0x95688C39 PUSH1 0xE0 SHL DUP2 MSTORE PUSH1 0x1 PUSH1 0x1 PUSH1 0xA0 SHL SUB SWAP4 DUP5 AND PUSH1 0x4 DUP3 ADD MSTORE SWAP3 SWAP1 SWAP2 DUP3 SWAP2 DUP5 SWAP2 PUSH1 0x24 SWAP2 DUP4 SWAP2 AND GAS STATICCALL DUP1 ISZERO PUSH2 0x2500 JUMPI PUSH1 0x0 SWAP3 DUP4 SWAP2 PUSH2 0x24C4 JUMPI JUMPDEST POP ISZERO PUSH2 0x2491 JUMPI POP SWAP1 JUMP JUMPDEST MLOAD PUSH3 0x461BCD PUSH1 0xE5 SHL DUP2 MSTORE PUSH1 0x20 PUSH1 0x4 DUP3 ADD MSTORE PUSH1 0xD PUSH1 0x24 DUP3 ADD MSTORE PUSH13 0x496E76616C6964207072696365 PUSH1 0x98 SHL PUSH1 0x44 DUP3 ADD MSTORE PUSH1 0x64 SWAP1 REVERT JUMPDEST SWAP3 SWAP1 POP DUP2 DUP4 DUP2 RETURNDATASIZE DUP4 GT PUSH2 0x24F9 JUMPI JUMPDEST PUSH2 0x24DC DUP2 DUP4 PUSH2 0x1B43 JUMP JUMPDEST DUP2 ADD SUB SLT PUSH2 0x2332 JUMPI POP PUSH2 0x24F3 PUSH1 0x20 DUP4 MLOAD SWAP4 ADD PUSH2 0x1E26 JUMP JUMPDEST CODESIZE PUSH2 0x2487 JUMP JUMPDEST POP RETURNDATASIZE PUSH2 0x24D2 JUMP JUMPDEST POP MLOAD RETURNDATASIZE PUSH1 0x0 DUP3 RETURNDATACOPY RETURNDATASIZE SWAP1 REVERT JUMPDEST PUSH2 0x2513 PUSH2 0x2343 JUMP JUMPDEST ISZERO PUSH2 0x2619 JUMPI PUSH1 0x0 JUMPDEST PUSH1 0x8 SLOAD DUP2 LT ISZERO PUSH2 0x2614 JUMPI PUSH2 0x252E DUP2 PUSH2 0x1AB4 JUMP JUMPDEST SWAP1 SLOAD PUSH1 0x1 PUSH1 0x1 PUSH1 0xA0 SHL SUB SWAP2 PUSH1 0x3 SHL SHR DUP2 AND DUP5 DUP3 AND DUP2 EQ PUSH2 0x2609 JUMPI DUP1 PUSH1 0x0 MSTORE PUSH1 0x20 SWAP2 PUSH1 0x9 DUP4 MSTORE PUSH1 0x40 SWAP2 PUSH2 0x2710 PUSH2 0x2567 DUP5 PUSH1 0x0 KECCAK256 SLOAD DUP9 PUSH2 0x1E71 JUMP JUMPDEST DIV SWAP2 DUP3 PUSH2 0x2582 JUMPI JUMPDEST POP POP POP POP POP PUSH2 0x257D SWAP1 PUSH2 0x2263 JUMP JUMPDEST PUSH2 0x251B JUMP JUMPDEST PUSH1 0xC SLOAD DUP5 MLOAD PUSH4 0x4A5A727 PUSH1 0xE4 SHL DUP2 MSTORE PUSH1 0x1 PUSH1 0x1 PUSH1 0xA0 SHL SUB DUP11 DUP2 AND PUSH1 0x4 DUP4 ADD MSTORE SWAP4 SWAP1 SWAP4 AND PUSH1 0x24 DUP5 ADD MSTORE PUSH1 0x44 DUP4 ADD SWAP4 SWAP1 SWAP4 MSTORE PUSH1 0x32 PUSH1 0x64 DUP4 ADD MSTORE SWAP1 SWAP3 SWAP2 DUP5 SWAP2 DUP5 SWAP2 PUSH1 0x84 SWAP2 DUP4 SWAP2 PUSH1 0x0 SWAP2 AND GAS CALL SWAP1 DUP2 ISZERO PUSH2 0x23FB JUMPI POP PUSH2 0x25E0 JUMPI JUMPDEST DUP1 DUP1 DUP1 PUSH2 0x256F JUMP JUMPDEST DUP2 RETURNDATASIZE DUP4 GT PUSH2 0x2602 JUMPI JUMPDEST PUSH2 0x25F3 DUP2 DUP4 PUSH2 0x1B43 JUMP JUMPDEST DUP2 ADD SUB SLT PUSH2 0x27F JUMPI CODESIZE DUP1 PUSH2 0x25D8 JUMP JUMPDEST POP RETURNDATASIZE PUSH2 0x25E9 JUMP JUMPDEST POP POP PUSH2 0x257D SWAP1 PUSH2 0x2263 JUMP JUMPDEST POP POP POP JUMP JUMPDEST POP POP JUMP JUMPDEST SWAP1 PUSH2 0x2627 DUP3 PUSH2 0x2162 JUMP JUMPDEST PUSH2 0x2634 PUSH1 0x40 MLOAD SWAP2 DUP3 PUSH2 0x1B43 JUMP JUMPDEST DUP3 DUP2 MSTORE DUP1 SWAP3 PUSH2 0x2645 PUSH1 0x1F NOT SWAP2 PUSH2 0x2162 JUMP JUMPDEST ADD SWAP1 PUSH1 0x20 CALLDATASIZE SWAP2 ADD CALLDATACOPY JUMP JUMPDEST PUSH2 0x2657 PUSH2 0x2343 JUMP JUMPDEST PUSH1 0x8 SLOAD SWAP1 PUSH2 0x2664 DUP3 PUSH2 0x261D JUMP JUMPDEST SWAP2 PUSH1 0x0 JUMPDEST DUP2 DUP2 LT PUSH2 0x2675 JUMPI POP POP POP SWAP1 JUMP JUMPDEST PUSH2 0x267E DUP2 PUSH2 0x1AB4 JUMP JUMPDEST SWAP1 SLOAD PUSH1 0x40 DUP1 MLOAD PUSH4 0x70A08231 PUSH1 0xE0 SHL DUP2 MSTORE ADDRESS PUSH1 0x4 DUP1 DUP4 ADD SWAP2 SWAP1 SWAP2 MSTORE SWAP4 PUSH1 0x24 SWAP4 PUSH1 0x3 SWAP2 SWAP1 SWAP2 SHL SHR PUSH1 0x1 PUSH1 0x1 PUSH1 0xA0 SHL SUB AND SWAP2 SWAP1 PUSH1 0x20 DUP1 DUP3 DUP7 DUP2 DUP8 GAS STATICCALL SWAP3 DUP4 ISZERO PUSH2 0x23FB JUMPI POP PUSH1 0x0 SWAP3 PUSH2 0x2722 JUMPI JUMPDEST POP POP PUSH2 0x486 PUSH2 0x26D5 SWAP3 PUSH2 0x2447 JUMP JUMPDEST SWAP2 PUSH2 0x2710 SWAP3 DUP4 DUP2 MUL SWAP4 DUP2 DUP6 DIV EQ SWAP1 ISZERO OR ISZERO PUSH2 0x270F JUMPI POP POP SWAP1 PUSH2 0x26FA DUP5 PUSH2 0x270A SWAP4 PUSH2 0x1E84 JUMP JUMPDEST PUSH2 0x2704 DUP3 DUP8 PUSH2 0x2272 JUMP JUMPDEST MSTORE PUSH2 0x2263 JUMP JUMPDEST PUSH2 0x2668 JUMP JUMPDEST PUSH1 0x11 SWAP1 PUSH4 0x4E487B71 PUSH1 0xE0 SHL PUSH1 0x0 MSTORE MSTORE PUSH1 0x0 REVERT JUMPDEST DUP2 DUP2 SWAP4 SWAP3 SWAP4 RETURNDATASIZE DUP4 GT PUSH2 0x274E JUMPI JUMPDEST PUSH2 0x2739 DUP2 DUP4 PUSH2 0x1B43 JUMP JUMPDEST DUP2 ADD SUB SLT PUSH2 0x2332 JUMPI POP MLOAD PUSH2 0x486 PUSH2 0x26D5 PUSH2 0x26C7 JUMP JUMPDEST POP RETURNDATASIZE PUSH2 0x272F JUMP JUMPDEST PUSH1 0x8 SLOAD SWAP1 PUSH2 0x2762 DUP3 PUSH2 0x261D JUMP JUMPDEST PUSH1 0x0 SWAP3 DUP4 JUMPDEST DUP2 DUP2 LT PUSH2 0x2775 JUMPI POP SWAP1 SWAP3 POP POP JUMP JUMPDEST DUP1 PUSH2 0x2782 PUSH2 0x27AA SWAP3 PUSH2 0x1AB4 JUMP JUMPDEST SWAP1 SLOAD PUSH1 0x3 SWAP2 SWAP1 SWAP2 SHL SHR PUSH1 0x1 PUSH1 0x1 PUSH1 0xA0 SHL SUB AND DUP7 MSTORE PUSH1 0x9 PUSH1 0x20 MSTORE PUSH1 0x40 DUP7 KECCAK256 SLOAD PUSH2 0x2704 DUP3 DUP7 PUSH2 0x2272 JUMP JUMPDEST PUSH2 0x2767 JUMP JUMPDEST PUSH1 0x1 PUSH1 0x1 PUSH1 0x80 SHL SUB DUP1 PUSH1 0x10 SLOAD AND SWAP1 DUP2 ISZERO PUSH2 0x2619 JUMPI PUSH1 0x12 SLOAD PUSH1 0x80 SHR SWAP2 DUP3 TIMESTAMP SUB SWAP3 TIMESTAMP DUP5 GT PUSH2 0xC9C JUMPI TIMESTAMP EQ PUSH2 0x2614 JUMPI PUSH1 0x2 SLOAD SWAP3 DUP4 ISZERO PUSH2 0x2884 JUMPI PUSH2 0x27F8 PUSH5 0x496CEBB800 SWAP2 PUSH2 0x2800 SWAP4 PUSH2 0x1E71 JUMP JUMPDEST DIV DUP1 SWAP4 PUSH2 0x1E71 JUMP JUMPDEST PUSH8 0xDE0B6B3A7640000 DUP4 DUP2 SUB SWAP1 DUP2 GT PUSH2 0xC9C JUMPI PUSH2 0x281C SWAP2 PUSH2 0x1E84 JUMP JUMPDEST DUP1 PUSH2 0x2826 JUMPI POP POP POP JUMP JUMPDEST PUSH32 0x6F4A589972E181C1010960E6CB88E05776A4F3A28373E49C69FFDF8CC30F1A31 SWAP3 PUSH1 0x40 SWAP3 PUSH2 0x285F DUP4 PUSH1 0x1 DUP1 PUSH1 0xA0 SHL SUB PUSH1 0xD SLOAD AND PUSH2 0x1F41 JUMP JUMPDEST PUSH1 0x12 SLOAD SWAP1 PUSH1 0x1 PUSH1 0x1 PUSH1 0x80 SHL SUB NOT TIMESTAMP PUSH1 0x80 SHL AND SWAP2 AND OR PUSH1 0x12 SSTORE DUP3 MLOAD SWAP2 DUP3 MSTORE PUSH1 0x20 DUP3 ADD MSTORE LOG1 JUMP JUMPDEST POP POP POP POP JUMP INVALID LOG2 PUSH5 0x6970667358 0x22 SLT KECCAK256 SWAP3 CODECOPY 0xC6 PUSH17 0x59851ECC6E0B8A80A0789D06FD32F068EF SAR 0xEE 0xC 0xC1 DUP13 SLOAD 0xDC SSTORE SDIV DUP7 0xFB PUSH5 0x736F6C6343 STOP ADDMOD SGT STOP CALLER "},"methodIdentifiers":{"allowance(address,address)":"dd62ed3e","allowedAssets(uint256)":"0ccd3ef9","approve(address,uint256)":"095ea7b3","balanceOf(address)":"70a08231","calculateNAV()":"11ebc619","canRebalance()":"a06880c0","config()":"79502c55","decimals()":"313ce567","decreaseAllowance(address,uint256)":"a457c2d7","deposit(uint256)":"b6b55f25","dexRouter()":"0758d924","disableEmergencyMode()":"ef952568","emergencyModule()":"42883e2b","emergencyRedeem(uint256)":"3d61b286","enableEmergencyMode()":"c5b1c7d0","feeCollector()":"c415b95c","getSharePrice()":"5b1dac60","highWaterMark()":"1e8410da","increaseAllowance(address,uint256)":"39509351","isAllowedAsset(address)":"c537bed0","isEmergencyMode()":"20a194b8","manager()":"481c6a75","name()":"06fdde03","owner()":"8da5cb5b","paused()":"5c975abb","priceOracle()":"2630c12f","rebalance()":"7d7c2a1c","rebalanceValidator()":"60858830","redeem(uint256)":"db006a75","redeemToSingleAsset(uint256,address)":"c171ebe8","renounceOwnership()":"715018a6","symbol()":"95d89b41","targetWeights(address)":"bc97c95e","totalSupply()":"18160ddd","transfer(address,uint256)":"a9059cbb","transferFrom(address,address,uint256)":"23b872dd","transferOwnership(address)":"f2fde38b"}}}}}