{"contracts/FeeCollector.sol":{"FeeCollector":{"abi":[{"anonymous":false,"inputs":[{"indexed":true,"internalType":"address","name":"fund","type":"address"},{"indexed":true,"internalType":"address","name":"token","type":"address"},{"indexed":false,"internalType":"uint256","name":"amount","type":"uint256"}],"name":"FeeCollected","type":"event"},{"anonymous":false,"inputs":[{"indexed":true,"internalType":"address","name":"token","type":"address"},{"indexed":false,"internalType":"uint256","name":"amount","type":"uint256"},{"indexed":true,"internalType":"address","name":"recipient","type":"address"}],"name":"FeeWithdrawn","type":"event"},{"anonymous":false,"inputs":[{"indexed":true,"internalType":"address","name":"previousOwner","type":"address"},{"indexed":true,"internalType":"address","name":"newOwner","type":"address"}],"name":"OwnershipTransferred","type":"event"},{"inputs":[{"internalType":"address","name":"","type":"address"}],"name":"accruedFees","outputs":[{"internalType":"uint256","name":"","type":"uint256"}],"stateMutability":"view","type":"function"},{"inputs":[{"internalType":"address","name":"token","type":"address"}],"name":"addSupportedToken","outputs":[],"stateMutability":"nonpayable","type":"function"},{"inputs":[{"internalType":"address","name":"fund","type":"address"}],"name":"collectManagementFee","outputs":[{"internalType":"uint256","name":"feeAmount","type":"uint256"}],"stateMutability":"nonpayable","type":"function"},{"inputs":[{"internalType":"address","name":"fund","type":"address"}],"name":"collectPerformanceFee","outputs":[{"internalType":"uint256","name":"feeAmount","type":"uint256"}],"stateMutability":"nonpayable","type":"function"},{"inputs":[{"internalType":"address","name":"","type":"address"},{"internalType":"address","name":"","type":"address"}],"name":"fundFees","outputs":[{"internalType":"uint256","name":"","type":"uint256"}],"stateMutability":"view","type":"function"},{"inputs":[{"internalType":"address","name":"token","type":"address"}],"name":"getAccruedFees","outputs":[{"internalType":"uint256","name":"","type":"uint256"}],"stateMutability":"view","type":"function"},{"inputs":[{"internalType":"address","name":"fund","type":"address"},{"internalType":"address","name":"token","type":"address"}],"name":"getFundFees","outputs":[{"internalType":"uint256","name":"","type":"uint256"}],"stateMutability":"view","type":"function"},{"inputs":[],"name":"getSupportedTokensCount","outputs":[{"internalType":"uint256","name":"","type":"uint256"}],"stateMutability":"view","type":"function"},{"inputs":[{"internalType":"address","name":"","type":"address"}],"name":"isSupportedToken","outputs":[{"internalType":"bool","name":"","type":"bool"}],"stateMutability":"view","type":"function"},{"inputs":[],"name":"owner","outputs":[{"internalType":"address","name":"","type":"address"}],"stateMutability":"view","type":"function"},{"inputs":[{"internalType":"address","name":"token","type":"address"}],"name":"removeSupportedToken","outputs":[],"stateMutability":"nonpayable","type":"function"},{"inputs":[],"name":"renounceOwnership","outputs":[],"stateMutability":"nonpayable","type":"function"},{"inputs":[{"internalType":"uint256","name":"","type":"uint256"}],"name":"supportedTokens","outputs":[{"internalType":"address","name":"","type":"address"}],"stateMutability":"view","type":"function"},{"inputs":[{"internalType":"address","name":"newOwner","type":"address"}],"name":"transferOwnership","outputs":[],"stateMutability":"nonpayable","type":"function"},{"inputs":[{"internalType":"address","name":"token","type":"address"}],"name":"withdrawFees","outputs":[],"stateMutability":"nonpayable","type":"function"}],"evm":{"bytecode":{"linkReferences":{},"object":"6080806040523461005f5760008054336001600160a01b0319821681178355916001600160a01b03909116907f8be0079c531659141344cd1fd0a4f28419497f9722a3daafe3b4186f6b6457e09080a36001805561092c90816100658239f35b600080fdfe6080604081815260048036101561001557600080fd5b600092833560e01c908163073112831461079657508063164e68de146105f15780631d163923146105d4578063240028e81461059657806348b3f44c1461021d5780634a4253871461055e5780636d69fcaf1461044f578063715018a6146103f5578063763191901461027757806379a3abd5146101d05780638da5cb5b1461024f578063937f6e7c1461021d578063babf3d71146101d0578063c62556261461018d5763f2fde38b146100c857600080fd5b34610189576020366003190112610189576100e16107ca565b906100ea610848565b6001600160a01b0391821692831561013757505082546001600160a01b0319811683178455167f8be0079c531659141344cd1fd0a4f28419497f9722a3daafe3b4186f6b6457e08380a380f35b906020608492519162461bcd60e51b8352820152602660248201527f4f776e61626c653a206e6577206f776e657220697320746865207a65726f206160448201526564647265737360d01b6064820152fd5b8280fd5b5091346101cd5760203660031901126101cd57823592548310156101cd57506101b76020926107fb565b905491519160018060a01b039160031b1c168152f35b80fd5b505034610219578060031936011261021957806020926101ee6107ca565b6101f66107e5565b6001600160a01b0391821683526003865283832091168252845220549051908152f35b5080fd5b505034610219576020366003190112610219579060209161023c6107ca565b506102456108a0565b6001805551908152f35b505034610219578160031936011261021957905490516001600160a01b039091168152602090f35b50829034610219576020366003190112610219576102936107ca565b61029b610848565b6001600160a01b0390811680845260056020528484205490949060ff16156103bd5784845260056020528320805460ff19169055825b8254808210156103b4578290866102e7846107fb565b939054600394851b1c161461031c5750506000198114610309576001016102d1565b634e487b7160e01b845260118352602484fd5b9495509360001991908281019081116103a1579061034d8461034061036c946107fb565b905490891b1c16916107fb565b90919082549060031b9160018060a01b03809116831b921b1916179055565b8254801561038e57019261037f846107fb565b81939154921b1b191690555580f35b634e487b7160e01b865260318452602486fd5b634e487b7160e01b875260118552602487fd5b50505050905080f35b5162461bcd60e51b81526020818401526013602482015272151bdad95b881b9bdd081cdd5c1c1bdc9d1959606a1b6044820152606490fd5b83346101cd57806003193601126101cd5761040e610848565b80546001600160a01b03198116825581906001600160a01b03167f8be0079c531659141344cd1fd0a4f28419497f9722a3daafe3b4186f6b6457e08280a380f35b509190346102195760203660031901126102195761046b6107ca565b610473610848565b6001600160a01b03811690811561052b57818452600560205260ff83852054166104e8578454680100000000000000008110156104d5579061034d828760016104be950190556107fb565b825260056020528120805460ff1916600117905580f35b634e487b7160e01b855260418652602485fd5b825162461bcd60e51b8152602081870152601760248201527f546f6b656e20616c726561647920737570706f727465640000000000000000006044820152606490fd5b825162461bcd60e51b8152602081870152600d60248201526c24b73b30b634b2103a37b5b2b760991b6044820152606490fd5b5050346102195760203660031901126102195760209181906001600160a01b036105866107ca565b1681526002845220549051908152f35b5050346102195760203660031901126102195760209160ff9082906001600160a01b036105c16107ca565b1681526005855220541690519015158152f35b503461018957826003193601126101895760209250549051908152f35b5034610189576020806003193601126107925761060c6107ca565b91610615610848565b61061d6108a0565b6001600160a01b039283168086526002835284862054909390918215610759578487526002845286868120558187541686519063a9059cbb60e01b82528282015283602482015284816044818b8a5af190811561074f5788916106eb575b50156106b65750907ff3a15b70ef42163a42bbb07edb60d02f31fd11d394c9326022f78e1c7e12f68592918654169451908152a36001805580f35b855162461bcd60e51b8152908101849052600f60248201526e151c985b9cd9995c8819985a5b1959608a1b6044820152606490fd5b9050843d8611610748575b601f8101601f1916820167ffffffffffffffff81118382101761073557869183918a528101031261073157518015158103610731573861067b565b8780fd5b634e487b7160e01b8a526041845260248afd5b503d6106f6565b87513d8a823e3d90fd5b855162461bcd60e51b815290810184905260136024820152724e6f206665657320746f20776974686472617760681b6044820152606490fd5b8380fd5b84908434610189576020366003190112610189576020926001600160a01b036107bd6107ca565b1681526002845220548152f35b600435906001600160a01b03821682036107e057565b600080fd5b602435906001600160a01b03821682036107e057565b6004548110156108325760046000527f8a35acfbc15ff81a39ae7d344fd709f28e8600b4aa8c65c6b64bfe7fe36bd19b0190600090565b634e487b7160e01b600052603260045260246000fd5b6000546001600160a01b0316330361085c57565b606460405162461bcd60e51b815260206004820152602060248201527f4f776e61626c653a2063616c6c6572206973206e6f7420746865206f776e65726044820152fd5b6002600154146108b1576002600155565b60405162461bcd60e51b815260206004820152601f60248201527f5265656e7472616e637947756172643a207265656e7472616e742063616c6c006044820152606490fdfea26469706673582212205ff59614e3fc671de9f97b6366450f9607810ca7d8dda16795a6e61d897e134064736f6c63430008130033","opcodes":"PUSH1 0x80 DUP1 PUSH1 0x40 MSTORE CALLVALUE PUSH2 0x5F JUMPI PUSH1 0x0 DUP1 SLOAD CALLER PUSH1 0x1 PUSH1 0x1 PUSH1 0xA0 SHL SUB NOT DUP3 AND DUP2 OR DUP4 SSTORE SWAP2 PUSH1 0x1 PUSH1 0x1 PUSH1 0xA0 SHL SUB SWAP1 SWAP2 AND SWAP1 PUSH32 0x8BE0079C531659141344CD1FD0A4F28419497F9722A3DAAFE3B4186F6B6457E0 SWAP1 DUP1 LOG3 PUSH1 0x1 DUP1 SSTORE PUSH2 0x92C SWAP1 DUP2 PUSH2 0x65 DUP3 CODECOPY RETURN JUMPDEST PUSH1 0x0 DUP1 REVERT INVALID PUSH1 0x80 PUSH1 0x40 DUP2 DUP2 MSTORE PUSH1 0x4 DUP1 CALLDATASIZE LT ISZERO PUSH2 0x15 JUMPI PUSH1 0x0 DUP1 REVERT JUMPDEST PUSH1 0x0 SWAP3 DUP4 CALLDATALOAD PUSH1 0xE0 SHR SWAP1 DUP2 PUSH4 0x7311283 EQ PUSH2 0x796 JUMPI POP DUP1 PUSH4 0x164E68DE EQ PUSH2 0x5F1 JUMPI DUP1 PUSH4 0x1D163923 EQ PUSH2 0x5D4 JUMPI DUP1 PUSH4 0x240028E8 EQ PUSH2 0x596 JUMPI DUP1 PUSH4 0x48B3F44C EQ PUSH2 0x21D JUMPI DUP1 PUSH4 0x4A425387 EQ PUSH2 0x55E JUMPI DUP1 PUSH4 0x6D69FCAF EQ PUSH2 0x44F JUMPI DUP1 PUSH4 0x715018A6 EQ PUSH2 0x3F5 JUMPI DUP1 PUSH4 0x76319190 EQ PUSH2 0x277 JUMPI DUP1 PUSH4 0x79A3ABD5 EQ PUSH2 0x1D0 JUMPI DUP1 PUSH4 0x8DA5CB5B EQ PUSH2 0x24F JUMPI DUP1 PUSH4 0x937F6E7C EQ PUSH2 0x21D JUMPI DUP1 PUSH4 0xBABF3D71 EQ PUSH2 0x1D0 JUMPI DUP1 PUSH4 0xC6255626 EQ PUSH2 0x18D JUMPI PUSH4 0xF2FDE38B EQ PUSH2 0xC8 JUMPI PUSH1 0x0 DUP1 REVERT JUMPDEST CALLVALUE PUSH2 0x189 JUMPI PUSH1 0x20 CALLDATASIZE PUSH1 0x3 NOT ADD SLT PUSH2 0x189 JUMPI PUSH2 0xE1 PUSH2 0x7CA JUMP JUMPDEST SWAP1 PUSH2 0xEA PUSH2 0x848 JUMP JUMPDEST PUSH1 0x1 PUSH1 0x1 PUSH1 0xA0 SHL SUB SWAP2 DUP3 AND SWAP3 DUP4 ISZERO PUSH2 0x137 JUMPI POP POP DUP3 SLOAD PUSH1 0x1 PUSH1 0x1 PUSH1 0xA0 SHL SUB NOT DUP2 AND DUP4 OR DUP5 SSTORE AND PUSH32 0x8BE0079C531659141344CD1FD0A4F28419497F9722A3DAAFE3B4186F6B6457E0 DUP4 DUP1 LOG3 DUP1 RETURN JUMPDEST SWAP1 PUSH1 0x20 PUSH1 0x84 SWAP3 MLOAD SWAP2 PUSH3 0x461BCD PUSH1 0xE5 SHL DUP4 MSTORE DUP3 ADD MSTORE PUSH1 0x26 PUSH1 0x24 DUP3 ADD MSTORE PUSH32 0x4F776E61626C653A206E6577206F776E657220697320746865207A65726F2061 PUSH1 0x44 DUP3 ADD MSTORE PUSH6 0x646472657373 PUSH1 0xD0 SHL PUSH1 0x64 DUP3 ADD MSTORE REVERT JUMPDEST DUP3 DUP1 REVERT JUMPDEST POP SWAP2 CALLVALUE PUSH2 0x1CD JUMPI PUSH1 0x20 CALLDATASIZE PUSH1 0x3 NOT ADD SLT PUSH2 0x1CD JUMPI DUP3 CALLDATALOAD SWAP3 SLOAD DUP4 LT ISZERO PUSH2 0x1CD JUMPI POP PUSH2 0x1B7 PUSH1 0x20 SWAP3 PUSH2 0x7FB JUMP JUMPDEST SWAP1 SLOAD SWAP2 MLOAD SWAP2 PUSH1 0x1 DUP1 PUSH1 0xA0 SHL SUB SWAP2 PUSH1 0x3 SHL SHR AND DUP2 MSTORE RETURN JUMPDEST DUP1 REVERT JUMPDEST POP POP CALLVALUE PUSH2 0x219 JUMPI DUP1 PUSH1 0x3 NOT CALLDATASIZE ADD SLT PUSH2 0x219 JUMPI DUP1 PUSH1 0x20 SWAP3 PUSH2 0x1EE PUSH2 0x7CA JUMP JUMPDEST PUSH2 0x1F6 PUSH2 0x7E5 JUMP JUMPDEST PUSH1 0x1 PUSH1 0x1 PUSH1 0xA0 SHL SUB SWAP2 DUP3 AND DUP4 MSTORE PUSH1 0x3 DUP7 MSTORE DUP4 DUP4 KECCAK256 SWAP2 AND DUP3 MSTORE DUP5 MSTORE KECCAK256 SLOAD SWAP1 MLOAD SWAP1 DUP2 MSTORE RETURN JUMPDEST POP DUP1 REVERT JUMPDEST POP POP CALLVALUE PUSH2 0x219 JUMPI PUSH1 0x20 CALLDATASIZE PUSH1 0x3 NOT ADD SLT PUSH2 0x219 JUMPI SWAP1 PUSH1 0x20 SWAP2 PUSH2 0x23C PUSH2 0x7CA JUMP JUMPDEST POP PUSH2 0x245 PUSH2 0x8A0 JUMP JUMPDEST PUSH1 0x1 DUP1 SSTORE MLOAD SWAP1 DUP2 MSTORE RETURN JUMPDEST POP POP CALLVALUE PUSH2 0x219 JUMPI DUP2 PUSH1 0x3 NOT CALLDATASIZE ADD SLT PUSH2 0x219 JUMPI SWAP1 SLOAD SWAP1 MLOAD PUSH1 0x1 PUSH1 0x1 PUSH1 0xA0 SHL SUB SWAP1 SWAP2 AND DUP2 MSTORE PUSH1 0x20 SWAP1 RETURN JUMPDEST POP DUP3 SWAP1 CALLVALUE PUSH2 0x219 JUMPI PUSH1 0x20 CALLDATASIZE PUSH1 0x3 NOT ADD SLT PUSH2 0x219 JUMPI PUSH2 0x293 PUSH2 0x7CA JUMP JUMPDEST PUSH2 0x29B PUSH2 0x848 JUMP JUMPDEST PUSH1 0x1 PUSH1 0x1 PUSH1 0xA0 SHL SUB SWAP1 DUP2 AND DUP1 DUP5 MSTORE PUSH1 0x5 PUSH1 0x20 MSTORE DUP5 DUP5 KECCAK256 SLOAD SWAP1 SWAP5 SWAP1 PUSH1 0xFF AND ISZERO PUSH2 0x3BD JUMPI DUP5 DUP5 MSTORE PUSH1 0x5 PUSH1 0x20 MSTORE DUP4 KECCAK256 DUP1 SLOAD PUSH1 0xFF NOT AND SWAP1 SSTORE DUP3 JUMPDEST DUP3 SLOAD DUP1 DUP3 LT ISZERO PUSH2 0x3B4 JUMPI DUP3 SWAP1 DUP7 PUSH2 0x2E7 DUP5 PUSH2 0x7FB JUMP JUMPDEST SWAP4 SWAP1 SLOAD PUSH1 0x3 SWAP5 DUP6 SHL SHR AND EQ PUSH2 0x31C JUMPI POP POP PUSH1 0x0 NOT DUP2 EQ PUSH2 0x309 JUMPI PUSH1 0x1 ADD PUSH2 0x2D1 JUMP JUMPDEST PUSH4 0x4E487B71 PUSH1 0xE0 SHL DUP5 MSTORE PUSH1 0x11 DUP4 MSTORE PUSH1 0x24 DUP5 REVERT JUMPDEST SWAP5 SWAP6 POP SWAP4 PUSH1 0x0 NOT SWAP2 SWAP1 DUP3 DUP2 ADD SWAP1 DUP2 GT PUSH2 0x3A1 JUMPI SWAP1 PUSH2 0x34D DUP5 PUSH2 0x340 PUSH2 0x36C SWAP5 PUSH2 0x7FB JUMP JUMPDEST SWAP1 SLOAD SWAP1 DUP10 SHL SHR AND SWAP2 PUSH2 0x7FB JUMP JUMPDEST SWAP1 SWAP2 SWAP1 DUP3 SLOAD SWAP1 PUSH1 0x3 SHL SWAP2 PUSH1 0x1 DUP1 PUSH1 0xA0 SHL SUB DUP1 SWAP2 AND DUP4 SHL SWAP3 SHL NOT AND OR SWAP1 SSTORE JUMP JUMPDEST DUP3 SLOAD DUP1 ISZERO PUSH2 0x38E JUMPI ADD SWAP3 PUSH2 0x37F DUP5 PUSH2 0x7FB JUMP JUMPDEST DUP2 SWAP4 SWAP2 SLOAD SWAP3 SHL SHL NOT AND SWAP1 SSTORE SSTORE DUP1 RETURN JUMPDEST PUSH4 0x4E487B71 PUSH1 0xE0 SHL DUP7 MSTORE PUSH1 0x31 DUP5 MSTORE PUSH1 0x24 DUP7 REVERT JUMPDEST PUSH4 0x4E487B71 PUSH1 0xE0 SHL DUP8 MSTORE PUSH1 0x11 DUP6 MSTORE PUSH1 0x24 DUP8 REVERT JUMPDEST POP POP POP POP SWAP1 POP DUP1 RETURN JUMPDEST MLOAD PUSH3 0x461BCD PUSH1 0xE5 SHL DUP2 MSTORE PUSH1 0x20 DUP2 DUP5 ADD MSTORE PUSH1 0x13 PUSH1 0x24 DUP3 ADD MSTORE PUSH19 0x151BDAD95B881B9BDD081CDD5C1C1BDC9D1959 PUSH1 0x6A SHL PUSH1 0x44 DUP3 ADD MSTORE PUSH1 0x64 SWAP1 REVERT JUMPDEST DUP4 CALLVALUE PUSH2 0x1CD JUMPI DUP1 PUSH1 0x3 NOT CALLDATASIZE ADD SLT PUSH2 0x1CD JUMPI PUSH2 0x40E PUSH2 0x848 JUMP JUMPDEST DUP1 SLOAD PUSH1 0x1 PUSH1 0x1 PUSH1 0xA0 SHL SUB NOT DUP2 AND DUP3 SSTORE DUP2 SWAP1 PUSH1 0x1 PUSH1 0x1 PUSH1 0xA0 SHL SUB AND PUSH32 0x8BE0079C531659141344CD1FD0A4F28419497F9722A3DAAFE3B4186F6B6457E0 DUP3 DUP1 LOG3 DUP1 RETURN JUMPDEST POP SWAP2 SWAP1 CALLVALUE PUSH2 0x219 JUMPI PUSH1 0x20 CALLDATASIZE PUSH1 0x3 NOT ADD SLT PUSH2 0x219 JUMPI PUSH2 0x46B PUSH2 0x7CA JUMP JUMPDEST PUSH2 0x473 PUSH2 0x848 JUMP JUMPDEST PUSH1 0x1 PUSH1 0x1 PUSH1 0xA0 SHL SUB DUP2 AND SWAP1 DUP2 ISZERO PUSH2 0x52B JUMPI DUP2 DUP5 MSTORE PUSH1 0x5 PUSH1 0x20 MSTORE PUSH1 0xFF DUP4 DUP6 KECCAK256 SLOAD AND PUSH2 0x4E8 JUMPI DUP5 SLOAD PUSH9 0x10000000000000000 DUP2 LT ISZERO PUSH2 0x4D5 JUMPI SWAP1 PUSH2 0x34D DUP3 DUP8 PUSH1 0x1 PUSH2 0x4BE SWAP6 ADD SWAP1 SSTORE PUSH2 0x7FB JUMP JUMPDEST DUP3 MSTORE PUSH1 0x5 PUSH1 0x20 MSTORE DUP2 KECCAK256 DUP1 SLOAD PUSH1 0xFF NOT AND PUSH1 0x1 OR SWAP1 SSTORE DUP1 RETURN JUMPDEST PUSH4 0x4E487B71 PUSH1 0xE0 SHL DUP6 MSTORE PUSH1 0x41 DUP7 MSTORE PUSH1 0x24 DUP6 REVERT JUMPDEST DUP3 MLOAD PUSH3 0x461BCD PUSH1 0xE5 SHL DUP2 MSTORE PUSH1 0x20 DUP2 DUP8 ADD MSTORE PUSH1 0x17 PUSH1 0x24 DUP3 ADD MSTORE PUSH32 0x546F6B656E20616C726561647920737570706F72746564000000000000000000 PUSH1 0x44 DUP3 ADD MSTORE PUSH1 0x64 SWAP1 REVERT JUMPDEST DUP3 MLOAD PUSH3 0x461BCD PUSH1 0xE5 SHL DUP2 MSTORE PUSH1 0x20 DUP2 DUP8 ADD MSTORE PUSH1 0xD PUSH1 0x24 DUP3 ADD MSTORE PUSH13 0x24B73B30B634B2103A37B5B2B7 PUSH1 0x99 SHL PUSH1 0x44 DUP3 ADD MSTORE PUSH1 0x64 SWAP1 REVERT JUMPDEST POP POP CALLVALUE PUSH2 0x219 JUMPI PUSH1 0x20 CALLDATASIZE PUSH1 0x3 NOT ADD SLT PUSH2 0x219 JUMPI PUSH1 0x20 SWAP2 DUP2 SWAP1 PUSH1 0x1 PUSH1 0x1 PUSH1 0xA0 SHL SUB PUSH2 0x586 PUSH2 0x7CA JUMP JUMPDEST AND DUP2 MSTORE PUSH1 0x2 DUP5 MSTORE KECCAK256 SLOAD SWAP1 MLOAD SWAP1 DUP2 MSTORE RETURN JUMPDEST POP POP CALLVALUE PUSH2 0x219 JUMPI PUSH1 0x20 CALLDATASIZE PUSH1 0x3 NOT ADD SLT PUSH2 0x219 JUMPI PUSH1 0x20 SWAP2 PUSH1 0xFF SWAP1 DUP3 SWAP1 PUSH1 0x1 PUSH1 0x1 PUSH1 0xA0 SHL SUB PUSH2 0x5C1 PUSH2 0x7CA JUMP JUMPDEST AND DUP2 MSTORE PUSH1 0x5 DUP6 MSTORE KECCAK256 SLOAD AND SWAP1 MLOAD SWAP1 ISZERO ISZERO DUP2 MSTORE RETURN JUMPDEST POP CALLVALUE PUSH2 0x189 JUMPI DUP3 PUSH1 0x3 NOT CALLDATASIZE ADD SLT PUSH2 0x189 JUMPI PUSH1 0x20 SWAP3 POP SLOAD SWAP1 MLOAD SWAP1 DUP2 MSTORE RETURN JUMPDEST POP CALLVALUE PUSH2 0x189 JUMPI PUSH1 0x20 DUP1 PUSH1 0x3 NOT CALLDATASIZE ADD SLT PUSH2 0x792 JUMPI PUSH2 0x60C PUSH2 0x7CA JUMP JUMPDEST SWAP2 PUSH2 0x615 PUSH2 0x848 JUMP JUMPDEST PUSH2 0x61D PUSH2 0x8A0 JUMP JUMPDEST PUSH1 0x1 PUSH1 0x1 PUSH1 0xA0 SHL SUB SWAP3 DUP4 AND DUP1 DUP7 MSTORE PUSH1 0x2 DUP4 MSTORE DUP5 DUP7 KECCAK256 SLOAD SWAP1 SWAP4 SWAP1 SWAP2 DUP3 ISZERO PUSH2 0x759 JUMPI DUP5 DUP8 MSTORE PUSH1 0x2 DUP5 MSTORE DUP7 DUP7 DUP2 KECCAK256 SSTORE DUP2 DUP8 SLOAD AND DUP7 MLOAD SWAP1 PUSH4 0xA9059CBB PUSH1 0xE0 SHL DUP3 MSTORE DUP3 DUP3 ADD MSTORE DUP4 PUSH1 0x24 DUP3 ADD MSTORE DUP5 DUP2 PUSH1 0x44 DUP2 DUP12 DUP11 GAS CALL SWAP1 DUP2 ISZERO PUSH2 0x74F JUMPI DUP9 SWAP2 PUSH2 0x6EB JUMPI JUMPDEST POP ISZERO PUSH2 0x6B6 JUMPI POP SWAP1 PUSH32 0xF3A15B70EF42163A42BBB07EDB60D02F31FD11D394C9326022F78E1C7E12F685 SWAP3 SWAP2 DUP7 SLOAD AND SWAP5 MLOAD SWAP1 DUP2 MSTORE LOG3 PUSH1 0x1 DUP1 SSTORE DUP1 RETURN JUMPDEST DUP6 MLOAD PUSH3 0x461BCD PUSH1 0xE5 SHL DUP2 MSTORE SWAP1 DUP2 ADD DUP5 SWAP1 MSTORE PUSH1 0xF PUSH1 0x24 DUP3 ADD MSTORE PUSH15 0x151C985B9CD9995C8819985A5B1959 PUSH1 0x8A SHL PUSH1 0x44 DUP3 ADD MSTORE PUSH1 0x64 SWAP1 REVERT JUMPDEST SWAP1 POP DUP5 RETURNDATASIZE DUP7 GT PUSH2 0x748 JUMPI JUMPDEST PUSH1 0x1F DUP2 ADD PUSH1 0x1F NOT AND DUP3 ADD PUSH8 0xFFFFFFFFFFFFFFFF DUP2 GT DUP4 DUP3 LT OR PUSH2 0x735 JUMPI DUP7 SWAP2 DUP4 SWAP2 DUP11 MSTORE DUP2 ADD SUB SLT PUSH2 0x731 JUMPI MLOAD DUP1 ISZERO ISZERO DUP2 SUB PUSH2 0x731 JUMPI CODESIZE PUSH2 0x67B JUMP JUMPDEST DUP8 DUP1 REVERT JUMPDEST PUSH4 0x4E487B71 PUSH1 0xE0 SHL DUP11 MSTORE PUSH1 0x41 DUP5 MSTORE PUSH1 0x24 DUP11 REVERT JUMPDEST POP RETURNDATASIZE PUSH2 0x6F6 JUMP JUMPDEST DUP8 MLOAD RETURNDATASIZE DUP11 DUP3 RETURNDATACOPY RETURNDATASIZE SWAP1 REVERT JUMPDEST DUP6 MLOAD PUSH3 0x461BCD PUSH1 0xE5 SHL DUP2 MSTORE SWAP1 DUP2 ADD DUP5 SWAP1 MSTORE PUSH1 0x13 PUSH1 0x24 DUP3 ADD MSTORE PUSH19 0x4E6F206665657320746F207769746864726177 PUSH1 0x68 SHL PUSH1 0x44 DUP3 ADD MSTORE PUSH1 0x64 SWAP1 REVERT JUMPDEST DUP4 DUP1 REVERT JUMPDEST DUP5 SWAP1 DUP5 CALLVALUE PUSH2 0x189 JUMPI PUSH1 0x20 CALLDATASIZE PUSH1 0x3 NOT ADD SLT PUSH2 0x189 JUMPI PUSH1 0x20 SWAP3 PUSH1 0x1 PUSH1 0x1 PUSH1 0xA0 SHL SUB PUSH2 0x7BD PUSH2 0x7CA JUMP JUMPDEST AND DUP2 MSTORE PUSH1 0x2 DUP5 MSTORE KECCAK256 SLOAD DUP2 MSTORE RETURN JUMPDEST PUSH1 0x4 CALLDATALOAD SWAP1 PUSH1 0x1 PUSH1 0x1 PUSH1 0xA0 SHL SUB DUP3 AND DUP3 SUB PUSH2 0x7E0 JUMPI JUMP JUMPDEST PUSH1 0x0 DUP1 REVERT JUMPDEST PUSH1 0x24 CALLDATALOAD SWAP1 PUSH1 0x1 PUSH1 0x1 PUSH1 0xA0 SHL SUB DUP3 AND DUP3 SUB PUSH2 0x7E0 JUMPI JUMP JUMPDEST PUSH1 0x4 SLOAD DUP2 LT ISZERO PUSH2 0x832 JUMPI PUSH1 0x4 PUSH1 0x0 MSTORE PUSH32 0x8A35ACFBC15FF81A39AE7D344FD709F28E8600B4AA8C65C6B64BFE7FE36BD19B ADD SWAP1 PUSH1 0x0 SWAP1 JUMP JUMPDEST PUSH4 0x4E487B71 PUSH1 0xE0 SHL PUSH1 0x0 MSTORE PUSH1 0x32 PUSH1 0x4 MSTORE PUSH1 0x24 PUSH1 0x0 REVERT JUMPDEST PUSH1 0x0 SLOAD PUSH1 0x1 PUSH1 0x1 PUSH1 0xA0 SHL SUB AND CALLER SUB PUSH2 0x85C JUMPI JUMP JUMPDEST PUSH1 0x64 PUSH1 0x40 MLOAD PUSH3 0x461BCD PUSH1 0xE5 SHL DUP2 MSTORE PUSH1 0x20 PUSH1 0x4 DUP3 ADD MSTORE PUSH1 0x20 PUSH1 0x24 DUP3 ADD MSTORE PUSH32 0x4F776E61626C653A2063616C6C6572206973206E6F7420746865206F776E6572 PUSH1 0x44 DUP3 ADD MSTORE REVERT JUMPDEST PUSH1 0x2 PUSH1 0x1 SLOAD EQ PUSH2 0x8B1 JUMPI PUSH1 0x2 PUSH1 0x1 SSTORE JUMP JUMPDEST PUSH1 0x40 MLOAD PUSH3 0x461BCD PUSH1 0xE5 SHL DUP2 MSTORE PUSH1 0x20 PUSH1 0x4 DUP3 ADD MSTORE PUSH1 0x1F PUSH1 0x24 DUP3 ADD MSTORE PUSH32 0x5265656E7472616E637947756172643A207265656E7472616E742063616C6C00 PUSH1 0x44 DUP3 ADD MSTORE PUSH1 0x64 SWAP1 REVERT INVALID LOG2 PUSH5 0x6970667358 0x22 SLT KECCAK256 0x5F CREATE2 SWAP7 EQ 0xE3 0xFC PUSH8 0x1DE9F97B6366450F SWAP7 SMOD DUP2 0xC 0xA7 0xD8 0xDD LOG1 PUSH8 0x95A6E61D897E1340 PUSH5 0x736F6C6343 STOP ADDMOD SGT STOP CALLER "},"methodIdentifiers":{"accruedFees(address)":"07311283","addSupportedToken(address)":"6d69fcaf","collectManagementFee(address)":"937f6e7c","collectPerformanceFee(address)":"48b3f44c","fundFees(address,address)":"79a3abd5","getAccruedFees(address)":"4a425387","getFundFees(address,address)":"babf3d71","getSupportedTokensCount()":"1d163923","isSupportedToken(address)":"240028e8","owner()":"8da5cb5b","removeSupportedToken(address)":"76319190","renounceOwnership()":"715018a6","supportedTokens(uint256)":"c6255626","transferOwnership(address)":"f2fde38b","withdrawFees(address)":"164e68de"}}}}}