{"contracts/DEXRouter.sol":{"DEXRouter":{"abi":[{"inputs":[{"internalType":"address","name":"_pancakeRouter","type":"address"},{"internalType":"address","name":"_oneInchRouter","type":"address"},{"internalType":"address","name":"_paraSwapRouter","type":"address"}],"stateMutability":"nonpayable","type":"constructor"},{"anonymous":false,"inputs":[{"indexed":true,"internalType":"address","name":"previousOwner","type":"address"},{"indexed":true,"internalType":"address","name":"newOwner","type":"address"}],"name":"OwnershipTransferred","type":"event"},{"anonymous":false,"inputs":[{"indexed":true,"internalType":"string","name":"dex","type":"string"},{"indexed":true,"internalType":"address","name":"router","type":"address"}],"name":"RouterUpdated","type":"event"},{"inputs":[],"name":"MAX_SLIPPAGE","outputs":[{"internalType":"uint256","name":"","type":"uint256"}],"stateMutability":"view","type":"function"},{"inputs":[{"internalType":"address","name":"fromToken","type":"address"},{"internalType":"address","name":"toToken","type":"address"},{"internalType":"uint256","name":"amountIn","type":"uint256"}],"name":"getBestRoute","outputs":[{"internalType":"address[]","name":"path","type":"address[]"}],"stateMutability":"view","type":"function"},{"inputs":[],"name":"oneInchRouter","outputs":[{"internalType":"address","name":"","type":"address"}],"stateMutability":"view","type":"function"},{"inputs":[],"name":"owner","outputs":[{"internalType":"address","name":"","type":"address"}],"stateMutability":"view","type":"function"},{"inputs":[],"name":"pancakeRouter","outputs":[{"internalType":"address","name":"","type":"address"}],"stateMutability":"view","type":"function"},{"inputs":[],"name":"paraSwapRouter","outputs":[{"internalType":"address","name":"","type":"address"}],"stateMutability":"view","type":"function"},{"inputs":[],"name":"renounceOwnership","outputs":[],"stateMutability":"nonpayable","type":"function"},{"inputs":[{"internalType":"address","name":"fromToken","type":"address"},{"internalType":"address","name":"toToken","type":"address"},{"internalType":"uint256","name":"amountIn","type":"uint256"},{"internalType":"uint256","name":"maxSlippage","type":"uint256"}],"name":"swapWithSlippageProtection","outputs":[{"internalType":"uint256","name":"amountOut","type":"uint256"}],"stateMutability":"nonpayable","type":"function"},{"inputs":[{"internalType":"address","name":"newOwner","type":"address"}],"name":"transferOwnership","outputs":[],"stateMutability":"nonpayable","type":"function"},{"inputs":[{"internalType":"string","name":"dex","type":"string"},{"internalType":"address","name":"router","type":"address"}],"name":"updateRouter","outputs":[],"stateMutability":"nonpayable","type":"function"}],"evm":{"bytecode":{"linkReferences":{},"object":"6080346100dc57601f610a4b38819003918201601f19168301916001600160401b038311848410176100e1578084926060946040528339810103126100dc57610047816100f7565b61005f6040610058602085016100f7565b93016100f7565b600080546001600160a01b03198082163390811784556040519691956001600160a01b0395948694859391908416907f8be0079c531659141344cd1fd0a4f28419497f9722a3daafe3b4186f6b6457e09080a316856001541617600155168360025416176002551690600354161760035561093f908161010c8239f35b600080fd5b634e487b7160e01b600052604160045260246000fd5b51906001600160a01b03821682036100dc5756fe608060408181526004918236101561001657600080fd5b600092833560e01c9182634a5a72701461057357508163715018a6146105165781637cf0c7ee146102905781638da5cb5b1461026857816396f2648e1461023f578163ac3af20814610216578163c21ebd07146101ed578163f2fde38b1461012657508063f97595181461010a5763faa55b6d1461009357600080fd5b34610106576060366003190112610106576100bd6100af6107c4565b6100b76107df565b906108a1565b815192839260208080860192818752855180945286019401925b8281106100e657505050500390f35b83516001600160a01b0316855286955093810193928101926001016100d7565b5080fd5b5034610106578160031936011261010657602090516103e88152f35b9050346101e95760203660031901126101e9576101416107c4565b9061014a610849565b6001600160a01b0391821692831561019757505082546001600160a01b0319811683178455167f8be0079c531659141344cd1fd0a4f28419497f9722a3daafe3b4186f6b6457e08380a380f35b906020608492519162461bcd60e51b8352820152602660248201527f4f776e61626c653a206e6577206f776e657220697320746865207a65726f206160448201526564647265737360d01b6064820152fd5b8280fd5b50503461010657816003193601126101065760015490516001600160a01b039091168152602090f35b50503461010657816003193601126101065760025490516001600160a01b039091168152602090f35b50503461010657816003193601126101065760035490516001600160a01b039091168152602090f35b505034610106578160031936011261010657905490516001600160a01b039091168152602090f35b9050346101e957816003193601126101e95780359067ffffffffffffffff92838311610512573660238401121561051257828201359384116104ff57805191856020946102e686601f19601f8a01160186610827565b8685528585019636602482840101116101e95780602488930189378501015261030d6107df565b610315610849565b6001600160a01b03169485156104cc577f37e12c06df127fbd6899289cdd9fb12efc8e54dd30f4ddb20a77b4131e042437845182206670616e63616b6560c81b878651610361816107f5565b600781520152036103da575050600180546001600160a01b031916851790559091905b51918291815191865b8381106103c65750505081018481520390207f1f95b6c427a121778abffcfd490f3c1dfad8b3c0b1cced39b53c78240bd48e668380a380f35b81810183015186820152859450820161038d565b7fd9bf0c0ec020d1a26ba6698a24db3a538215d8fbf30588bddde694887c4cb55e8451822064062d2dcc6d60db1b878651610414816107f5565b6005815201520361043c575050600280546001600160a01b031916851790555b919091610384565b7f5920724cdd5301d4429f5f97906f435392e6e5676116c66304576305257afab5908451902067070617261737761760c41b86855161047a816107f5565b6008815201520361049d5750600380546001600160a01b03191685179055610434565b83606492519162461bcd60e51b8352820152600b60248201526a0aadcd6dcdeeedc40888ab60ab1b6044820152fd5b5083606492519162461bcd60e51b8352820152600e60248201526d24b73b30b634b2103937baba32b960911b6044820152fd5b634e487b7160e01b855260418252602485fd5b8480fd5b833461057057806003193601126105705761052f610849565b80546001600160a01b03198116825581906001600160a01b03167f8be0079c531659141344cd1fd0a4f28419497f9722a3daafe3b4186f6b6457e08280a380f35b80fd5b90929150346107c05760803660031901126107c0576105906107c4565b926105996107df565b9160449081356064948535926103e8841161078d5750811561075d576105bf90886108a1565b91600283511061072b57612710908103818111610718578083029083820403610718579089939291049787519163095ea7b360e01b83523087840152602483015281858160209c8d9460018060a01b03165af190811561070e5783916106d8575b50156106a5575160020361069257600186019081871161067f5750945b851061064c5750505051908152f35b835162461bcd60e51b8152918201869052601160248301527014db1a5c1c1859d948195e18d959591959607a1b90820152fd5b634e487b7160e01b815260118452602490fd5b600186019081871161067f57509461063d565b5050835162461bcd60e51b8152918201869052600f60248301526e105c1c1c9bdd985b0819985a5b1959608a1b90820152fd5b90508881813d8311610707575b6106ef8183610827565b810103126101e9575180151581036101e95738610620565b503d6106e5565b87513d85823e3d90fd5b634e487b7160e01b8a526011865260248afd5b5050506c496e76616c696420726f75746560981b90602085519362461bcd60e51b8552840152600d6024840152820152fd5b5050506a16995c9bc8185b5bdd5b9d60aa1b90602085519362461bcd60e51b8552840152600b6024840152820152fd5b62461bcd60e51b815260208682015260116024820152700a6d8d2e0e0c2ceca40e8dede40d0d2ced607b1b858201528690fd5b8380fd5b600435906001600160a01b03821682036107da57565b600080fd5b602435906001600160a01b03821682036107da57565b6040810190811067ffffffffffffffff82111761081157604052565b634e487b7160e01b600052604160045260246000fd5b90601f8019910116810190811067ffffffffffffffff82111761081157604052565b6000546001600160a01b0316330361085d57565b606460405162461bcd60e51b815260206004820152602060248201527f4f776e61626c653a2063616c6c6572206973206e6f7420746865206f776e65726044820152fd5b604051916060830183811067ffffffffffffffff82111761081157604052600283526020830160403682378351156108f3576001600160a01b0392831690528251600110156108f35716604082015290565b634e487b7160e01b600052603260045260246000fdfea26469706673582212202adf5943836a0eb201498cfd4c991a445b2484b06296ea72a602ef3dce68b9e164736f6c63430008130033","opcodes":"PUSH1 0x80 CALLVALUE PUSH2 0xDC JUMPI PUSH1 0x1F PUSH2 0xA4B CODESIZE DUP2 SWAP1 SUB SWAP2 DUP3 ADD PUSH1 0x1F NOT AND DUP4 ADD SWAP2 PUSH1 0x1 PUSH1 0x1 PUSH1 0x40 SHL SUB DUP4 GT DUP5 DUP5 LT OR PUSH2 0xE1 JUMPI DUP1 DUP5 SWAP3 PUSH1 0x60 SWAP5 PUSH1 0x40 MSTORE DUP4 CODECOPY DUP2 ADD SUB SLT PUSH2 0xDC JUMPI PUSH2 0x47 DUP2 PUSH2 0xF7 JUMP JUMPDEST PUSH2 0x5F PUSH1 0x40 PUSH2 0x58 PUSH1 0x20 DUP6 ADD PUSH2 0xF7 JUMP JUMPDEST SWAP4 ADD PUSH2 0xF7 JUMP JUMPDEST PUSH1 0x0 DUP1 SLOAD PUSH1 0x1 PUSH1 0x1 PUSH1 0xA0 SHL SUB NOT DUP1 DUP3 AND CALLER SWAP1 DUP2 OR DUP5 SSTORE PUSH1 0x40 MLOAD SWAP7 SWAP2 SWAP6 PUSH1 0x1 PUSH1 0x1 PUSH1 0xA0 SHL SUB SWAP6 SWAP5 DUP7 SWAP5 DUP6 SWAP4 SWAP2 SWAP1 DUP5 AND SWAP1 PUSH32 0x8BE0079C531659141344CD1FD0A4F28419497F9722A3DAAFE3B4186F6B6457E0 SWAP1 DUP1 LOG3 AND DUP6 PUSH1 0x1 SLOAD AND OR PUSH1 0x1 SSTORE AND DUP4 PUSH1 0x2 SLOAD AND OR PUSH1 0x2 SSTORE AND SWAP1 PUSH1 0x3 SLOAD AND OR PUSH1 0x3 SSTORE PUSH2 0x93F SWAP1 DUP2 PUSH2 0x10C DUP3 CODECOPY RETURN JUMPDEST PUSH1 0x0 DUP1 REVERT JUMPDEST PUSH4 0x4E487B71 PUSH1 0xE0 SHL PUSH1 0x0 MSTORE PUSH1 0x41 PUSH1 0x4 MSTORE PUSH1 0x24 PUSH1 0x0 REVERT JUMPDEST MLOAD SWAP1 PUSH1 0x1 PUSH1 0x1 PUSH1 0xA0 SHL SUB DUP3 AND DUP3 SUB PUSH2 0xDC JUMPI JUMP INVALID PUSH1 0x80 PUSH1 0x40 DUP2 DUP2 MSTORE PUSH1 0x4 SWAP2 DUP3 CALLDATASIZE LT ISZERO PUSH2 0x16 JUMPI PUSH1 0x0 DUP1 REVERT JUMPDEST PUSH1 0x0 SWAP3 DUP4 CALLDATALOAD PUSH1 0xE0 SHR SWAP2 DUP3 PUSH4 0x4A5A7270 EQ PUSH2 0x573 JUMPI POP DUP2 PUSH4 0x715018A6 EQ PUSH2 0x516 JUMPI DUP2 PUSH4 0x7CF0C7EE EQ PUSH2 0x290 JUMPI DUP2 PUSH4 0x8DA5CB5B EQ PUSH2 0x268 JUMPI DUP2 PUSH4 0x96F2648E EQ PUSH2 0x23F JUMPI DUP2 PUSH4 0xAC3AF208 EQ PUSH2 0x216 JUMPI DUP2 PUSH4 0xC21EBD07 EQ PUSH2 0x1ED JUMPI DUP2 PUSH4 0xF2FDE38B EQ PUSH2 0x126 JUMPI POP DUP1 PUSH4 0xF9759518 EQ PUSH2 0x10A JUMPI PUSH4 0xFAA55B6D EQ PUSH2 0x93 JUMPI PUSH1 0x0 DUP1 REVERT JUMPDEST CALLVALUE PUSH2 0x106 JUMPI PUSH1 0x60 CALLDATASIZE PUSH1 0x3 NOT ADD SLT PUSH2 0x106 JUMPI PUSH2 0xBD PUSH2 0xAF PUSH2 0x7C4 JUMP JUMPDEST PUSH2 0xB7 PUSH2 0x7DF JUMP JUMPDEST SWAP1 PUSH2 0x8A1 JUMP JUMPDEST DUP2 MLOAD SWAP3 DUP4 SWAP3 PUSH1 0x20 DUP1 DUP1 DUP7 ADD SWAP3 DUP2 DUP8 MSTORE DUP6 MLOAD DUP1 SWAP5 MSTORE DUP7 ADD SWAP5 ADD SWAP3 JUMPDEST DUP3 DUP2 LT PUSH2 0xE6 JUMPI POP POP POP POP SUB SWAP1 RETURN JUMPDEST DUP4 MLOAD PUSH1 0x1 PUSH1 0x1 PUSH1 0xA0 SHL SUB AND DUP6 MSTORE DUP7 SWAP6 POP SWAP4 DUP2 ADD SWAP4 SWAP3 DUP2 ADD SWAP3 PUSH1 0x1 ADD PUSH2 0xD7 JUMP JUMPDEST POP DUP1 REVERT JUMPDEST POP CALLVALUE PUSH2 0x106 JUMPI DUP2 PUSH1 0x3 NOT CALLDATASIZE ADD SLT PUSH2 0x106 JUMPI PUSH1 0x20 SWAP1 MLOAD PUSH2 0x3E8 DUP2 MSTORE RETURN JUMPDEST SWAP1 POP CALLVALUE PUSH2 0x1E9 JUMPI PUSH1 0x20 CALLDATASIZE PUSH1 0x3 NOT ADD SLT PUSH2 0x1E9 JUMPI PUSH2 0x141 PUSH2 0x7C4 JUMP JUMPDEST SWAP1 PUSH2 0x14A PUSH2 0x849 JUMP JUMPDEST PUSH1 0x1 PUSH1 0x1 PUSH1 0xA0 SHL SUB SWAP2 DUP3 AND SWAP3 DUP4 ISZERO PUSH2 0x197 JUMPI POP POP DUP3 SLOAD PUSH1 0x1 PUSH1 0x1 PUSH1 0xA0 SHL SUB NOT DUP2 AND DUP4 OR DUP5 SSTORE AND PUSH32 0x8BE0079C531659141344CD1FD0A4F28419497F9722A3DAAFE3B4186F6B6457E0 DUP4 DUP1 LOG3 DUP1 RETURN JUMPDEST SWAP1 PUSH1 0x20 PUSH1 0x84 SWAP3 MLOAD SWAP2 PUSH3 0x461BCD PUSH1 0xE5 SHL DUP4 MSTORE DUP3 ADD MSTORE PUSH1 0x26 PUSH1 0x24 DUP3 ADD MSTORE PUSH32 0x4F776E61626C653A206E6577206F776E657220697320746865207A65726F2061 PUSH1 0x44 DUP3 ADD MSTORE PUSH6 0x646472657373 PUSH1 0xD0 SHL PUSH1 0x64 DUP3 ADD MSTORE REVERT JUMPDEST DUP3 DUP1 REVERT JUMPDEST POP POP CALLVALUE PUSH2 0x106 JUMPI DUP2 PUSH1 0x3 NOT CALLDATASIZE ADD SLT PUSH2 0x106 JUMPI PUSH1 0x1 SLOAD SWAP1 MLOAD PUSH1 0x1 PUSH1 0x1 PUSH1 0xA0 SHL SUB SWAP1 SWAP2 AND DUP2 MSTORE PUSH1 0x20 SWAP1 RETURN JUMPDEST POP POP CALLVALUE PUSH2 0x106 JUMPI DUP2 PUSH1 0x3 NOT CALLDATASIZE ADD SLT PUSH2 0x106 JUMPI PUSH1 0x2 SLOAD SWAP1 MLOAD PUSH1 0x1 PUSH1 0x1 PUSH1 0xA0 SHL SUB SWAP1 SWAP2 AND DUP2 MSTORE PUSH1 0x20 SWAP1 RETURN JUMPDEST POP POP CALLVALUE PUSH2 0x106 JUMPI DUP2 PUSH1 0x3 NOT CALLDATASIZE ADD SLT PUSH2 0x106 JUMPI PUSH1 0x3 SLOAD SWAP1 MLOAD PUSH1 0x1 PUSH1 0x1 PUSH1 0xA0 SHL SUB SWAP1 SWAP2 AND DUP2 MSTORE PUSH1 0x20 SWAP1 RETURN JUMPDEST POP POP CALLVALUE PUSH2 0x106 JUMPI DUP2 PUSH1 0x3 NOT CALLDATASIZE ADD SLT PUSH2 0x106 JUMPI SWAP1 SLOAD SWAP1 MLOAD PUSH1 0x1 PUSH1 0x1 PUSH1 0xA0 SHL SUB SWAP1 SWAP2 AND DUP2 MSTORE PUSH1 0x20 SWAP1 RETURN JUMPDEST SWAP1 POP CALLVALUE PUSH2 0x1E9 JUMPI DUP2 PUSH1 0x3 NOT CALLDATASIZE ADD SLT PUSH2 0x1E9 JUMPI DUP1 CALLDATALOAD SWAP1 PUSH8 0xFFFFFFFFFFFFFFFF SWAP3 DUP4 DUP4 GT PUSH2 0x512 JUMPI CALLDATASIZE PUSH1 0x23 DUP5 ADD SLT ISZERO PUSH2 0x512 JUMPI DUP3 DUP3 ADD CALLDATALOAD SWAP4 DUP5 GT PUSH2 0x4FF JUMPI DUP1 MLOAD SWAP2 DUP6 PUSH1 0x20 SWAP5 PUSH2 0x2E6 DUP7 PUSH1 0x1F NOT PUSH1 0x1F DUP11 ADD AND ADD DUP7 PUSH2 0x827 JUMP JUMPDEST DUP7 DUP6 MSTORE DUP6 DUP6 ADD SWAP7 CALLDATASIZE PUSH1 0x24 DUP3 DUP5 ADD ADD GT PUSH2 0x1E9 JUMPI DUP1 PUSH1 0x24 DUP9 SWAP4 ADD DUP10 CALLDATACOPY DUP6 ADD ADD MSTORE PUSH2 0x30D PUSH2 0x7DF JUMP JUMPDEST PUSH2 0x315 PUSH2 0x849 JUMP JUMPDEST PUSH1 0x1 PUSH1 0x1 PUSH1 0xA0 SHL SUB AND SWAP5 DUP6 ISZERO PUSH2 0x4CC JUMPI PUSH32 0x37E12C06DF127FBD6899289CDD9FB12EFC8E54DD30F4DDB20A77B4131E042437 DUP5 MLOAD DUP3 KECCAK256 PUSH7 0x70616E63616B65 PUSH1 0xC8 SHL DUP8 DUP7 MLOAD PUSH2 0x361 DUP2 PUSH2 0x7F5 JUMP JUMPDEST PUSH1 0x7 DUP2 MSTORE ADD MSTORE SUB PUSH2 0x3DA JUMPI POP POP PUSH1 0x1 DUP1 SLOAD PUSH1 0x1 PUSH1 0x1 PUSH1 0xA0 SHL SUB NOT AND DUP6 OR SWAP1 SSTORE SWAP1 SWAP2 SWAP1 JUMPDEST MLOAD SWAP2 DUP3 SWAP2 DUP2 MLOAD SWAP2 DUP7 JUMPDEST DUP4 DUP2 LT PUSH2 0x3C6 JUMPI POP POP POP DUP2 ADD DUP5 DUP2 MSTORE SUB SWAP1 KECCAK256 PUSH32 0x1F95B6C427A121778ABFFCFD490F3C1DFAD8B3C0B1CCED39B53C78240BD48E66 DUP4 DUP1 LOG3 DUP1 RETURN JUMPDEST DUP2 DUP2 ADD DUP4 ADD MLOAD DUP7 DUP3 ADD MSTORE DUP6 SWAP5 POP DUP3 ADD PUSH2 0x38D JUMP JUMPDEST PUSH32 0xD9BF0C0EC020D1A26BA6698A24DB3A538215D8FBF30588BDDDE694887C4CB55E DUP5 MLOAD DUP3 KECCAK256 PUSH5 0x62D2DCC6D PUSH1 0xDB SHL DUP8 DUP7 MLOAD PUSH2 0x414 DUP2 PUSH2 0x7F5 JUMP JUMPDEST PUSH1 0x5 DUP2 MSTORE ADD MSTORE SUB PUSH2 0x43C JUMPI POP POP PUSH1 0x2 DUP1 SLOAD PUSH1 0x1 PUSH1 0x1 PUSH1 0xA0 SHL SUB NOT AND DUP6 OR SWAP1 SSTORE JUMPDEST SWAP2 SWAP1 SWAP2 PUSH2 0x384 JUMP JUMPDEST PUSH32 0x5920724CDD5301D4429F5F97906F435392E6E5676116C66304576305257AFAB5 SWAP1 DUP5 MLOAD SWAP1 KECCAK256 PUSH8 0x706172617377617 PUSH1 0xC4 SHL DUP7 DUP6 MLOAD PUSH2 0x47A DUP2 PUSH2 0x7F5 JUMP JUMPDEST PUSH1 0x8 DUP2 MSTORE ADD MSTORE SUB PUSH2 0x49D JUMPI POP PUSH1 0x3 DUP1 SLOAD PUSH1 0x1 PUSH1 0x1 PUSH1 0xA0 SHL SUB NOT AND DUP6 OR SWAP1 SSTORE PUSH2 0x434 JUMP JUMPDEST DUP4 PUSH1 0x64 SWAP3 MLOAD SWAP2 PUSH3 0x461BCD PUSH1 0xE5 SHL DUP4 MSTORE DUP3 ADD MSTORE PUSH1 0xB PUSH1 0x24 DUP3 ADD MSTORE PUSH11 0xAADCD6DCDEEEDC40888AB PUSH1 0xAB SHL PUSH1 0x44 DUP3 ADD MSTORE REVERT JUMPDEST POP DUP4 PUSH1 0x64 SWAP3 MLOAD SWAP2 PUSH3 0x461BCD PUSH1 0xE5 SHL DUP4 MSTORE DUP3 ADD MSTORE PUSH1 0xE PUSH1 0x24 DUP3 ADD MSTORE PUSH14 0x24B73B30B634B2103937BABA32B9 PUSH1 0x91 SHL PUSH1 0x44 DUP3 ADD MSTORE REVERT JUMPDEST PUSH4 0x4E487B71 PUSH1 0xE0 SHL DUP6 MSTORE PUSH1 0x41 DUP3 MSTORE PUSH1 0x24 DUP6 REVERT JUMPDEST DUP5 DUP1 REVERT JUMPDEST DUP4 CALLVALUE PUSH2 0x570 JUMPI DUP1 PUSH1 0x3 NOT CALLDATASIZE ADD SLT PUSH2 0x570 JUMPI PUSH2 0x52F PUSH2 0x849 JUMP JUMPDEST DUP1 SLOAD PUSH1 0x1 PUSH1 0x1 PUSH1 0xA0 SHL SUB NOT DUP2 AND DUP3 SSTORE DUP2 SWAP1 PUSH1 0x1 PUSH1 0x1 PUSH1 0xA0 SHL SUB AND PUSH32 0x8BE0079C531659141344CD1FD0A4F28419497F9722A3DAAFE3B4186F6B6457E0 DUP3 DUP1 LOG3 DUP1 RETURN JUMPDEST DUP1 REVERT JUMPDEST SWAP1 SWAP3 SWAP2 POP CALLVALUE PUSH2 0x7C0 JUMPI PUSH1 0x80 CALLDATASIZE PUSH1 0x3 NOT ADD SLT PUSH2 0x7C0 JUMPI PUSH2 0x590 PUSH2 0x7C4 JUMP JUMPDEST SWAP3 PUSH2 0x599 PUSH2 0x7DF JUMP JUMPDEST SWAP2 PUSH1 0x44 SWAP1 DUP2 CALLDATALOAD PUSH1 0x64 SWAP5 DUP6 CALLDATALOAD SWAP3 PUSH2 0x3E8 DUP5 GT PUSH2 0x78D JUMPI POP DUP2 ISZERO PUSH2 0x75D JUMPI PUSH2 0x5BF SWAP1 DUP9 PUSH2 0x8A1 JUMP JUMPDEST SWAP2 PUSH1 0x2 DUP4 MLOAD LT PUSH2 0x72B JUMPI PUSH2 0x2710 SWAP1 DUP2 SUB DUP2 DUP2 GT PUSH2 0x718 JUMPI DUP1 DUP4 MUL SWAP1 DUP4 DUP3 DIV SUB PUSH2 0x718 JUMPI SWAP1 DUP10 SWAP4 SWAP3 SWAP2 DIV SWAP8 DUP8 MLOAD SWAP2 PUSH4 0x95EA7B3 PUSH1 0xE0 SHL DUP4 MSTORE ADDRESS DUP8 DUP5 ADD MSTORE PUSH1 0x24 DUP4 ADD MSTORE DUP2 DUP6 DUP2 PUSH1 0x20 SWAP13 DUP14 SWAP5 PUSH1 0x1 DUP1 PUSH1 0xA0 SHL SUB AND GAS CALL SWAP1 DUP2 ISZERO PUSH2 0x70E JUMPI DUP4 SWAP2 PUSH2 0x6D8 JUMPI JUMPDEST POP ISZERO PUSH2 0x6A5 JUMPI MLOAD PUSH1 0x2 SUB PUSH2 0x692 JUMPI PUSH1 0x1 DUP7 ADD SWAP1 DUP2 DUP8 GT PUSH2 0x67F JUMPI POP SWAP5 JUMPDEST DUP6 LT PUSH2 0x64C JUMPI POP POP POP MLOAD SWAP1 DUP2 MSTORE RETURN JUMPDEST DUP4 MLOAD PUSH3 0x461BCD PUSH1 0xE5 SHL DUP2 MSTORE SWAP2 DUP3 ADD DUP7 SWAP1 MSTORE PUSH1 0x11 PUSH1 0x24 DUP4 ADD MSTORE PUSH17 0x14DB1A5C1C1859D948195E18D959591959 PUSH1 0x7A SHL SWAP1 DUP3 ADD MSTORE REVERT JUMPDEST PUSH4 0x4E487B71 PUSH1 0xE0 SHL DUP2 MSTORE PUSH1 0x11 DUP5 MSTORE PUSH1 0x24 SWAP1 REVERT JUMPDEST PUSH1 0x1 DUP7 ADD SWAP1 DUP2 DUP8 GT PUSH2 0x67F JUMPI POP SWAP5 PUSH2 0x63D JUMP JUMPDEST POP POP DUP4 MLOAD PUSH3 0x461BCD PUSH1 0xE5 SHL DUP2 MSTORE SWAP2 DUP3 ADD DUP7 SWAP1 MSTORE PUSH1 0xF PUSH1 0x24 DUP4 ADD MSTORE PUSH15 0x105C1C1C9BDD985B0819985A5B1959 PUSH1 0x8A SHL SWAP1 DUP3 ADD MSTORE REVERT JUMPDEST SWAP1 POP DUP9 DUP2 DUP2 RETURNDATASIZE DUP4 GT PUSH2 0x707 JUMPI JUMPDEST PUSH2 0x6EF DUP2 DUP4 PUSH2 0x827 JUMP JUMPDEST DUP2 ADD SUB SLT PUSH2 0x1E9 JUMPI MLOAD DUP1 ISZERO ISZERO DUP2 SUB PUSH2 0x1E9 JUMPI CODESIZE PUSH2 0x620 JUMP JUMPDEST POP RETURNDATASIZE PUSH2 0x6E5 JUMP JUMPDEST DUP8 MLOAD RETURNDATASIZE DUP6 DUP3 RETURNDATACOPY RETURNDATASIZE SWAP1 REVERT JUMPDEST PUSH4 0x4E487B71 PUSH1 0xE0 SHL DUP11 MSTORE PUSH1 0x11 DUP7 MSTORE PUSH1 0x24 DUP11 REVERT JUMPDEST POP POP POP PUSH13 0x496E76616C696420726F757465 PUSH1 0x98 SHL SWAP1 PUSH1 0x20 DUP6 MLOAD SWAP4 PUSH3 0x461BCD PUSH1 0xE5 SHL DUP6 MSTORE DUP5 ADD MSTORE PUSH1 0xD PUSH1 0x24 DUP5 ADD MSTORE DUP3 ADD MSTORE REVERT JUMPDEST POP POP POP PUSH11 0x16995C9BC8185B5BDD5B9D PUSH1 0xAA SHL SWAP1 PUSH1 0x20 DUP6 MLOAD SWAP4 PUSH3 0x461BCD PUSH1 0xE5 SHL DUP6 MSTORE DUP5 ADD MSTORE PUSH1 0xB PUSH1 0x24 DUP5 ADD MSTORE DUP3 ADD MSTORE REVERT JUMPDEST PUSH3 0x461BCD PUSH1 0xE5 SHL DUP2 MSTORE PUSH1 0x20 DUP7 DUP3 ADD MSTORE PUSH1 0x11 PUSH1 0x24 DUP3 ADD MSTORE PUSH17 0xA6D8D2E0E0C2CECA40E8DEDE40D0D2CED PUSH1 0x7B SHL DUP6 DUP3 ADD MSTORE DUP7 SWAP1 REVERT JUMPDEST DUP4 DUP1 REVERT JUMPDEST PUSH1 0x4 CALLDATALOAD SWAP1 PUSH1 0x1 PUSH1 0x1 PUSH1 0xA0 SHL SUB DUP3 AND DUP3 SUB PUSH2 0x7DA JUMPI JUMP JUMPDEST PUSH1 0x0 DUP1 REVERT JUMPDEST PUSH1 0x24 CALLDATALOAD SWAP1 PUSH1 0x1 PUSH1 0x1 PUSH1 0xA0 SHL SUB DUP3 AND DUP3 SUB PUSH2 0x7DA JUMPI JUMP JUMPDEST PUSH1 0x40 DUP2 ADD SWAP1 DUP2 LT PUSH8 0xFFFFFFFFFFFFFFFF DUP3 GT OR PUSH2 0x811 JUMPI PUSH1 0x40 MSTORE JUMP JUMPDEST PUSH4 0x4E487B71 PUSH1 0xE0 SHL PUSH1 0x0 MSTORE PUSH1 0x41 PUSH1 0x4 MSTORE PUSH1 0x24 PUSH1 0x0 REVERT JUMPDEST SWAP1 PUSH1 0x1F DUP1 NOT SWAP2 ADD AND DUP2 ADD SWAP1 DUP2 LT PUSH8 0xFFFFFFFFFFFFFFFF DUP3 GT OR PUSH2 0x811 JUMPI PUSH1 0x40 MSTORE JUMP JUMPDEST PUSH1 0x0 SLOAD PUSH1 0x1 PUSH1 0x1 PUSH1 0xA0 SHL SUB AND CALLER SUB PUSH2 0x85D JUMPI JUMP JUMPDEST PUSH1 0x64 PUSH1 0x40 MLOAD PUSH3 0x461BCD PUSH1 0xE5 SHL DUP2 MSTORE PUSH1 0x20 PUSH1 0x4 DUP3 ADD MSTORE PUSH1 0x20 PUSH1 0x24 DUP3 ADD MSTORE PUSH32 0x4F776E61626C653A2063616C6C6572206973206E6F7420746865206F776E6572 PUSH1 0x44 DUP3 ADD MSTORE REVERT JUMPDEST PUSH1 0x40 MLOAD SWAP2 PUSH1 0x60 DUP4 ADD DUP4 DUP2 LT PUSH8 0xFFFFFFFFFFFFFFFF DUP3 GT OR PUSH2 0x811 JUMPI PUSH1 0x40 MSTORE PUSH1 0x2 DUP4 MSTORE PUSH1 0x20 DUP4 ADD PUSH1 0x40 CALLDATASIZE DUP3 CALLDATACOPY DUP4 MLOAD ISZERO PUSH2 0x8F3 JUMPI PUSH1 0x1 PUSH1 0x1 PUSH1 0xA0 SHL SUB SWAP3 DUP4 AND SWAP1 MSTORE DUP3 MLOAD PUSH1 0x1 LT ISZERO PUSH2 0x8F3 JUMPI AND PUSH1 0x40 DUP3 ADD MSTORE SWAP1 JUMP JUMPDEST PUSH4 0x4E487B71 PUSH1 0xE0 SHL PUSH1 0x0 MSTORE PUSH1 0x32 PUSH1 0x4 MSTORE PUSH1 0x24 PUSH1 0x0 REVERT INVALID LOG2 PUSH5 0x6970667358 0x22 SLT KECCAK256 0x2A 0xDF MSIZE NUMBER DUP4 PUSH11 0xEB201498CFD4C991A445B 0x24 DUP5 0xB0 PUSH3 0x96EA72 0xA6 MUL 0xEF RETURNDATASIZE 0xCE PUSH9 0xB9E164736F6C634300 ADDMOD SGT STOP CALLER "},"methodIdentifiers":{"MAX_SLIPPAGE()":"f9759518","getBestRoute(address,address,uint256)":"faa55b6d","oneInchRouter()":"ac3af208","owner()":"8da5cb5b","pancakeRouter()":"c21ebd07","paraSwapRouter()":"96f2648e","renounceOwnership()":"715018a6","swapWithSlippageProtection(address,address,uint256,uint256)":"4a5a7270","transferOwnership(address)":"f2fde38b","updateRouter(string,address)":"7cf0c7ee"}}}}}