{"contracts/EmergencyModule.sol":{"EmergencyModule":{"abi":[{"inputs":[{"internalType":"address","name":"_multisig","type":"address"}],"stateMutability":"nonpayable","type":"constructor"},{"anonymous":false,"inputs":[{"indexed":true,"internalType":"address","name":"fund","type":"address"},{"indexed":false,"internalType":"string","name":"reason","type":"string"}],"name":"EmergencyActivated","type":"event"},{"anonymous":false,"inputs":[{"indexed":true,"internalType":"address","name":"fund","type":"address"}],"name":"EmergencyDeactivated","type":"event"},{"anonymous":false,"inputs":[{"indexed":true,"internalType":"address","name":"fund","type":"address"}],"name":"FundPaused","type":"event"},{"anonymous":false,"inputs":[{"indexed":true,"internalType":"address","name":"fund","type":"address"}],"name":"FundUnpaused","type":"event"},{"anonymous":false,"inputs":[{"indexed":true,"internalType":"address","name":"previousOwner","type":"address"},{"indexed":true,"internalType":"address","name":"newOwner","type":"address"}],"name":"OwnershipTransferred","type":"event"},{"inputs":[],"name":"EMERGENCY_THRESHOLD","outputs":[{"internalType":"uint256","name":"","type":"uint256"}],"stateMutability":"view","type":"function"},{"inputs":[{"internalType":"address","name":"fund","type":"address"}],"name":"disableEmergency","outputs":[],"stateMutability":"nonpayable","type":"function"},{"inputs":[{"internalType":"address","name":"","type":"address"}],"name":"emergencyMode","outputs":[{"internalType":"bool","name":"","type":"bool"}],"stateMutability":"view","type":"function"},{"inputs":[{"internalType":"address","name":"fund","type":"address"}],"name":"emergencyPause","outputs":[],"stateMutability":"nonpayable","type":"function"},{"inputs":[{"internalType":"address","name":"fund","type":"address"}],"name":"emergencyUnpause","outputs":[],"stateMutability":"nonpayable","type":"function"},{"inputs":[{"internalType":"address","name":"fund","type":"address"},{"internalType":"address","name":"token","type":"address"},{"internalType":"address","name":"recipient","type":"address"},{"internalType":"uint256","name":"amount","type":"uint256"}],"name":"emergencyWithdraw","outputs":[],"stateMutability":"nonpayable","type":"function"},{"inputs":[{"internalType":"address","name":"fund","type":"address"}],"name":"enableEmergency","outputs":[],"stateMutability":"nonpayable","type":"function"},{"inputs":[{"internalType":"address","name":"fund","type":"address"}],"name":"isEmergency","outputs":[{"internalType":"bool","name":"","type":"bool"}],"stateMutability":"view","type":"function"},{"inputs":[{"internalType":"address","name":"fund","type":"address"}],"name":"isPaused","outputs":[{"internalType":"bool","name":"","type":"bool"}],"stateMutability":"view","type":"function"},{"inputs":[{"internalType":"address","name":"","type":"address"}],"name":"lastKnownPrices","outputs":[{"internalType":"uint256","name":"","type":"uint256"}],"stateMutability":"view","type":"function"},{"inputs":[],"name":"multisig","outputs":[{"internalType":"address","name":"","type":"address"}],"stateMutability":"view","type":"function"},{"inputs":[],"name":"owner","outputs":[{"internalType":"address","name":"","type":"address"}],"stateMutability":"view","type":"function"},{"inputs":[{"internalType":"address","name":"","type":"address"}],"name":"pausedFunds","outputs":[{"internalType":"bool","name":"","type":"bool"}],"stateMutability":"view","type":"function"},{"inputs":[{"internalType":"address","name":"","type":"address"}],"name":"priceCheckTimestamps","outputs":[{"internalType":"uint256","name":"","type":"uint256"}],"stateMutability":"view","type":"function"},{"inputs":[],"name":"renounceOwnership","outputs":[],"stateMutability":"nonpayable","type":"function"},{"inputs":[{"internalType":"address","name":"newOwner","type":"address"}],"name":"transferOwnership","outputs":[],"stateMutability":"nonpayable","type":"function"},{"inputs":[{"internalType":"address","name":"newMultisig","type":"address"}],"name":"updateMultisig","outputs":[],"stateMutability":"nonpayable","type":"function"},{"inputs":[{"internalType":"address","name":"fund","type":"address"}],"name":"updatePriceCheck","outputs":[],"stateMutability":"nonpayable","type":"function"}],"evm":{"bytecode":{"linkReferences":{},"object":"6080346100e657601f6109f638819003918201601f19168301916001600160401b038311848410176100eb578084926020946040528339810103126100e657516001600160a01b03808216918290036100e6576000549060018060a01b0319913383821617600055604051913391167f8be0079c531659141344cd1fd0a4f28419497f9722a3daafe3b4186f6b6457e0600080a382156100b1575060035416176003556040516108f490816101028239f35b62461bcd60e51b815260206004820152601060248201526f496e76616c6964206d756c746973696760801b6044820152606490fd5b600080fd5b634e487b7160e01b600052604160045260246000fdfe6080604081815260048036101561001557600080fd5b600092833560e01c908163087d31b71461079c5750806312bc9e5d1461067b5780632929c25c146107175780634783c35b146106ee578063506a5d96146106b95780635b14f1831461067b5780636fd368b0146105cf5780637041b48a14610502578063707b73a214610455578063715018a6146103fb5780638da5cb5b146103d35780639216267a146102f0578063a38292b5146102c1578063b5144ef31461028e578063b94cb90f14610228578063bb7a6004146101ea578063eb7d3a34146101ae5763f2fde38b146100e957600080fd5b346101aa5760203660031901126101aa576101026107b7565b9061010b6107d2565b6001600160a01b0391821692831561015857505082546001600160a01b0319811683178455167f8be0079c531659141344cd1fd0a4f28419497f9722a3daafe3b4186f6b6457e08380a380f35b906020608492519162461bcd60e51b8352820152602660248201527f4f776e61626c653a206e6577206f776e657220697320746865207a65726f206160448201526564647265737360d01b6064820152fd5b8280fd5b5050346101e65760203660031901126101e65760209181906001600160a01b036101d66107b7565b1681526005845220549051908152f35b5080fd5b5050346101e65760203660031901126101e65760209160ff9082906001600160a01b036102156107b7565b1681526001855220541690519015158152f35b5050346101e65760203660031901126101e6576102436107b7565b61024b6107d2565b6001600160a01b03168083526001602052908220805460ff191690557f58c23c36c22817a3e5aea11ee4ed5a1815c9770b63d1c162bbfc7a44668818958280a280f35b5050346101e65760203660031901126101e6576001600160a01b036102b16107b7565b1682526005602052429082205580f35b5050346101e65760203660031901126101e6576020906102e76102e26107b7565b61082a565b90519015158152f35b5082346103d05760803660031901126103d05761030b6107b7565b6001600160a01b0390602435828116036101aa57604435828116036101aa5791849160ff936103386107d2565b168152600160205220541615610396576020608492519162461bcd60e51b83528201526024808201527f456d657267656e6379207769746864726177616c206e6f7420696d706c656d656044820152631b9d195960e21b6064820152fd5b6020606492519162461bcd60e51b835282015260156024820152744e6f7420696e20656d657267656e6379206d6f646560581b6044820152fd5b80fd5b5050346101e657816003193601126101e657905490516001600160a01b039091168152602090f35b83346103d057806003193601126103d0576104146107d2565b80546001600160a01b03198116825581906001600160a01b03167f8be0079c531659141344cd1fd0a4f28419497f9722a3daafe3b4186f6b6457e08280a380f35b5050346101e65760203660031901126101e6577f63eb0f7af53ae164e5c99d224c844a1b380ec4b814a159b85f56312c9257ec6b60606104936107b7565b84546001600160a01b0391908216331480156104f5575b6104b390610881565b16928385526001602052808520600160ff198254161790557026b0b73ab0b61030b1ba34bb30ba34b7b760791b8151916020835260116020840152820152a280f35b50600354821633146104aa565b5090346101aa5760203660031901126101aa5761051d6107b7565b83546001600160a01b0391908216331480156105c2575b61053d90610881565b1691828452600260205260ff828520541661058f575081835260026020528220805460ff191660011790557f42a038564f3f5f6c8c03a7d705262b33cee47e12ea5650e2e0465e0a4e6cbcf88280a280f35b6020606492519162461bcd60e51b8352820152600e60248201526d105b1c9958591e481c185d5cd95960921b6044820152fd5b5060035482163314610534565b5090346101aa5760203660031901126101aa576105ea6107b7565b6105f26107d2565b6001600160a01b031680845260026020528184205490929060ff161561064c575081835260026020528220805460ff191690557f8800679dd6ecdeefaab625ef963f37d027e9507b225db7195b49b74ebe97e8158280a280f35b6020606492519162461bcd60e51b8352820152600a602482015269139bdd081c185d5cd95960b21b6044820152fd5b5050346101e65760203660031901126101e65760209160ff9082906001600160a01b036106a66107b7565b1681526002855220541690519015158152f35b50346101aa5760203660031901126101aa5760209282916001600160a01b036106e06107b7565b168252845220549051908152f35b5050346101e657816003193601126101e65760035490516001600160a01b039091168152602090f35b50346101aa5760203660031901126101aa576107316107b7565b6107396107d2565b6001600160a01b03169182156107665750506bffffffffffffffffffffffff60a01b600354161760035580f35b906020606492519162461bcd60e51b8352820152601060248201526f496e76616c6964206d756c746973696760801b6044820152fd5b8490346101e657816003193601126101e65780603260209252f35b600435906001600160a01b03821682036107cd57565b600080fd5b6000546001600160a01b031633036107e657565b606460405162461bcd60e51b815260206004820152602060248201527f4f776e61626c653a2063616c6c6572206973206e6f7420746865206f776e65726044820152fd5b6001600160a01b031660009081526001602052604081205460ff166108675760056020526040812054420342811161086d57610e10106108675790565b50600190565b634e487b7160e01b82526011600452602482fd5b1561088857565b60405162461bcd60e51b815260206004820152600e60248201526d139bdd08185d5d1a1bdc9a5e995960921b6044820152606490fdfea2646970667358221220a410c53debaa7415c080b99684410d843d4945f73e59b4b554e89993ab852fb864736f6c63430008130033","opcodes":"PUSH1 0x80 CALLVALUE PUSH2 0xE6 JUMPI PUSH1 0x1F PUSH2 0x9F6 CODESIZE DUP2 SWAP1 SUB SWAP2 DUP3 ADD PUSH1 0x1F NOT AND DUP4 ADD SWAP2 PUSH1 0x1 PUSH1 0x1 PUSH1 0x40 SHL SUB DUP4 GT DUP5 DUP5 LT OR PUSH2 0xEB JUMPI DUP1 DUP5 SWAP3 PUSH1 0x20 SWAP5 PUSH1 0x40 MSTORE DUP4 CODECOPY DUP2 ADD SUB SLT PUSH2 0xE6 JUMPI MLOAD PUSH1 0x1 PUSH1 0x1 PUSH1 0xA0 SHL SUB DUP1 DUP3 AND SWAP2 DUP3 SWAP1 SUB PUSH2 0xE6 JUMPI PUSH1 0x0 SLOAD SWAP1 PUSH1 0x1 DUP1 PUSH1 0xA0 SHL SUB NOT SWAP2 CALLER DUP4 DUP3 AND OR PUSH1 0x0 SSTORE PUSH1 0x40 MLOAD SWAP2 CALLER SWAP2 AND PUSH32 0x8BE0079C531659141344CD1FD0A4F28419497F9722A3DAAFE3B4186F6B6457E0 PUSH1 0x0 DUP1 LOG3 DUP3 ISZERO PUSH2 0xB1 JUMPI POP PUSH1 0x3 SLOAD AND OR PUSH1 0x3 SSTORE PUSH1 0x40 MLOAD PUSH2 0x8F4 SWAP1 DUP2 PUSH2 0x102 DUP3 CODECOPY RETURN JUMPDEST PUSH3 0x461BCD PUSH1 0xE5 SHL DUP2 MSTORE PUSH1 0x20 PUSH1 0x4 DUP3 ADD MSTORE PUSH1 0x10 PUSH1 0x24 DUP3 ADD MSTORE PUSH16 0x496E76616C6964206D756C7469736967 PUSH1 0x80 SHL PUSH1 0x44 DUP3 ADD MSTORE PUSH1 0x64 SWAP1 REVERT JUMPDEST PUSH1 0x0 DUP1 REVERT JUMPDEST PUSH4 0x4E487B71 PUSH1 0xE0 SHL PUSH1 0x0 MSTORE PUSH1 0x41 PUSH1 0x4 MSTORE PUSH1 0x24 PUSH1 0x0 REVERT INVALID PUSH1 0x80 PUSH1 0x40 DUP2 DUP2 MSTORE PUSH1 0x4 DUP1 CALLDATASIZE LT ISZERO PUSH2 0x15 JUMPI PUSH1 0x0 DUP1 REVERT JUMPDEST PUSH1 0x0 SWAP3 DUP4 CALLDATALOAD PUSH1 0xE0 SHR SWAP1 DUP2 PUSH4 0x87D31B7 EQ PUSH2 0x79C JUMPI POP DUP1 PUSH4 0x12BC9E5D EQ PUSH2 0x67B JUMPI DUP1 PUSH4 0x2929C25C EQ PUSH2 0x717 JUMPI DUP1 PUSH4 0x4783C35B EQ PUSH2 0x6EE JUMPI DUP1 PUSH4 0x506A5D96 EQ PUSH2 0x6B9 JUMPI DUP1 PUSH4 0x5B14F183 EQ PUSH2 0x67B JUMPI DUP1 PUSH4 0x6FD368B0 EQ PUSH2 0x5CF JUMPI DUP1 PUSH4 0x7041B48A EQ PUSH2 0x502 JUMPI DUP1 PUSH4 0x707B73A2 EQ PUSH2 0x455 JUMPI DUP1 PUSH4 0x715018A6 EQ PUSH2 0x3FB JUMPI DUP1 PUSH4 0x8DA5CB5B EQ PUSH2 0x3D3 JUMPI DUP1 PUSH4 0x9216267A EQ PUSH2 0x2F0 JUMPI DUP1 PUSH4 0xA38292B5 EQ PUSH2 0x2C1 JUMPI DUP1 PUSH4 0xB5144EF3 EQ PUSH2 0x28E JUMPI DUP1 PUSH4 0xB94CB90F EQ PUSH2 0x228 JUMPI DUP1 PUSH4 0xBB7A6004 EQ PUSH2 0x1EA JUMPI DUP1 PUSH4 0xEB7D3A34 EQ PUSH2 0x1AE JUMPI PUSH4 0xF2FDE38B EQ PUSH2 0xE9 JUMPI PUSH1 0x0 DUP1 REVERT JUMPDEST CALLVALUE PUSH2 0x1AA JUMPI PUSH1 0x20 CALLDATASIZE PUSH1 0x3 NOT ADD SLT PUSH2 0x1AA JUMPI PUSH2 0x102 PUSH2 0x7B7 JUMP JUMPDEST SWAP1 PUSH2 0x10B PUSH2 0x7D2 JUMP JUMPDEST PUSH1 0x1 PUSH1 0x1 PUSH1 0xA0 SHL SUB SWAP2 DUP3 AND SWAP3 DUP4 ISZERO PUSH2 0x158 JUMPI POP POP DUP3 SLOAD PUSH1 0x1 PUSH1 0x1 PUSH1 0xA0 SHL SUB NOT DUP2 AND DUP4 OR DUP5 SSTORE AND PUSH32 0x8BE0079C531659141344CD1FD0A4F28419497F9722A3DAAFE3B4186F6B6457E0 DUP4 DUP1 LOG3 DUP1 RETURN JUMPDEST SWAP1 PUSH1 0x20 PUSH1 0x84 SWAP3 MLOAD SWAP2 PUSH3 0x461BCD PUSH1 0xE5 SHL DUP4 MSTORE DUP3 ADD MSTORE PUSH1 0x26 PUSH1 0x24 DUP3 ADD MSTORE PUSH32 0x4F776E61626C653A206E6577206F776E657220697320746865207A65726F2061 PUSH1 0x44 DUP3 ADD MSTORE PUSH6 0x646472657373 PUSH1 0xD0 SHL PUSH1 0x64 DUP3 ADD MSTORE REVERT JUMPDEST DUP3 DUP1 REVERT JUMPDEST POP POP CALLVALUE PUSH2 0x1E6 JUMPI PUSH1 0x20 CALLDATASIZE PUSH1 0x3 NOT ADD SLT PUSH2 0x1E6 JUMPI PUSH1 0x20 SWAP2 DUP2 SWAP1 PUSH1 0x1 PUSH1 0x1 PUSH1 0xA0 SHL SUB PUSH2 0x1D6 PUSH2 0x7B7 JUMP JUMPDEST AND DUP2 MSTORE PUSH1 0x5 DUP5 MSTORE KECCAK256 SLOAD SWAP1 MLOAD SWAP1 DUP2 MSTORE RETURN JUMPDEST POP DUP1 REVERT JUMPDEST POP POP CALLVALUE PUSH2 0x1E6 JUMPI PUSH1 0x20 CALLDATASIZE PUSH1 0x3 NOT ADD SLT PUSH2 0x1E6 JUMPI PUSH1 0x20 SWAP2 PUSH1 0xFF SWAP1 DUP3 SWAP1 PUSH1 0x1 PUSH1 0x1 PUSH1 0xA0 SHL SUB PUSH2 0x215 PUSH2 0x7B7 JUMP JUMPDEST AND DUP2 MSTORE PUSH1 0x1 DUP6 MSTORE KECCAK256 SLOAD AND SWAP1 MLOAD SWAP1 ISZERO ISZERO DUP2 MSTORE RETURN JUMPDEST POP POP CALLVALUE PUSH2 0x1E6 JUMPI PUSH1 0x20 CALLDATASIZE PUSH1 0x3 NOT ADD SLT PUSH2 0x1E6 JUMPI PUSH2 0x243 PUSH2 0x7B7 JUMP JUMPDEST PUSH2 0x24B PUSH2 0x7D2 JUMP JUMPDEST PUSH1 0x1 PUSH1 0x1 PUSH1 0xA0 SHL SUB AND DUP1 DUP4 MSTORE PUSH1 0x1 PUSH1 0x20 MSTORE SWAP1 DUP3 KECCAK256 DUP1 SLOAD PUSH1 0xFF NOT AND SWAP1 SSTORE PUSH32 0x58C23C36C22817A3E5AEA11EE4ED5A1815C9770B63D1C162BBFC7A4466881895 DUP3 DUP1 LOG2 DUP1 RETURN JUMPDEST POP POP CALLVALUE PUSH2 0x1E6 JUMPI PUSH1 0x20 CALLDATASIZE PUSH1 0x3 NOT ADD SLT PUSH2 0x1E6 JUMPI PUSH1 0x1 PUSH1 0x1 PUSH1 0xA0 SHL SUB PUSH2 0x2B1 PUSH2 0x7B7 JUMP JUMPDEST AND DUP3 MSTORE PUSH1 0x5 PUSH1 0x20 MSTORE TIMESTAMP SWAP1 DUP3 KECCAK256 SSTORE DUP1 RETURN JUMPDEST POP POP CALLVALUE PUSH2 0x1E6 JUMPI PUSH1 0x20 CALLDATASIZE PUSH1 0x3 NOT ADD SLT PUSH2 0x1E6 JUMPI PUSH1 0x20 SWAP1 PUSH2 0x2E7 PUSH2 0x2E2 PUSH2 0x7B7 JUMP JUMPDEST PUSH2 0x82A JUMP JUMPDEST SWAP1 MLOAD SWAP1 ISZERO ISZERO DUP2 MSTORE RETURN JUMPDEST POP DUP3 CALLVALUE PUSH2 0x3D0 JUMPI PUSH1 0x80 CALLDATASIZE PUSH1 0x3 NOT ADD SLT PUSH2 0x3D0 JUMPI PUSH2 0x30B PUSH2 0x7B7 JUMP JUMPDEST PUSH1 0x1 PUSH1 0x1 PUSH1 0xA0 SHL SUB SWAP1 PUSH1 0x24 CALLDATALOAD DUP3 DUP2 AND SUB PUSH2 0x1AA JUMPI PUSH1 0x44 CALLDATALOAD DUP3 DUP2 AND SUB PUSH2 0x1AA JUMPI SWAP2 DUP5 SWAP2 PUSH1 0xFF SWAP4 PUSH2 0x338 PUSH2 0x7D2 JUMP JUMPDEST AND DUP2 MSTORE PUSH1 0x1 PUSH1 0x20 MSTORE KECCAK256 SLOAD AND ISZERO PUSH2 0x396 JUMPI PUSH1 0x20 PUSH1 0x84 SWAP3 MLOAD SWAP2 PUSH3 0x461BCD PUSH1 0xE5 SHL DUP4 MSTORE DUP3 ADD MSTORE PUSH1 0x24 DUP1 DUP3 ADD MSTORE PUSH32 0x456D657267656E6379207769746864726177616C206E6F7420696D706C656D65 PUSH1 0x44 DUP3 ADD MSTORE PUSH4 0x1B9D1959 PUSH1 0xE2 SHL PUSH1 0x64 DUP3 ADD MSTORE REVERT JUMPDEST PUSH1 0x20 PUSH1 0x64 SWAP3 MLOAD SWAP2 PUSH3 0x461BCD PUSH1 0xE5 SHL DUP4 MSTORE DUP3 ADD MSTORE PUSH1 0x15 PUSH1 0x24 DUP3 ADD MSTORE PUSH21 0x4E6F7420696E20656D657267656E6379206D6F6465 PUSH1 0x58 SHL PUSH1 0x44 DUP3 ADD MSTORE REVERT JUMPDEST DUP1 REVERT JUMPDEST POP POP CALLVALUE PUSH2 0x1E6 JUMPI DUP2 PUSH1 0x3 NOT CALLDATASIZE ADD SLT PUSH2 0x1E6 JUMPI SWAP1 SLOAD SWAP1 MLOAD PUSH1 0x1 PUSH1 0x1 PUSH1 0xA0 SHL SUB SWAP1 SWAP2 AND DUP2 MSTORE PUSH1 0x20 SWAP1 RETURN JUMPDEST DUP4 CALLVALUE PUSH2 0x3D0 JUMPI DUP1 PUSH1 0x3 NOT CALLDATASIZE ADD SLT PUSH2 0x3D0 JUMPI PUSH2 0x414 PUSH2 0x7D2 JUMP JUMPDEST DUP1 SLOAD PUSH1 0x1 PUSH1 0x1 PUSH1 0xA0 SHL SUB NOT DUP2 AND DUP3 SSTORE DUP2 SWAP1 PUSH1 0x1 PUSH1 0x1 PUSH1 0xA0 SHL SUB AND PUSH32 0x8BE0079C531659141344CD1FD0A4F28419497F9722A3DAAFE3B4186F6B6457E0 DUP3 DUP1 LOG3 DUP1 RETURN JUMPDEST POP POP CALLVALUE PUSH2 0x1E6 JUMPI PUSH1 0x20 CALLDATASIZE PUSH1 0x3 NOT ADD SLT PUSH2 0x1E6 JUMPI PUSH32 0x63EB0F7AF53AE164E5C99D224C844A1B380EC4B814A159B85F56312C9257EC6B PUSH1 0x60 PUSH2 0x493 PUSH2 0x7B7 JUMP JUMPDEST DUP5 SLOAD PUSH1 0x1 PUSH1 0x1 PUSH1 0xA0 SHL SUB SWAP2 SWAP1 DUP3 AND CALLER EQ DUP1 ISZERO PUSH2 0x4F5 JUMPI JUMPDEST PUSH2 0x4B3 SWAP1 PUSH2 0x881 JUMP JUMPDEST AND SWAP3 DUP4 DUP6 MSTORE PUSH1 0x1 PUSH1 0x20 MSTORE DUP1 DUP6 KECCAK256 PUSH1 0x1 PUSH1 0xFF NOT DUP3 SLOAD AND OR SWAP1 SSTORE PUSH17 0x26B0B73AB0B61030B1BA34BB30BA34B7B7 PUSH1 0x79 SHL DUP2 MLOAD SWAP2 PUSH1 0x20 DUP4 MSTORE PUSH1 0x11 PUSH1 0x20 DUP5 ADD MSTORE DUP3 ADD MSTORE LOG2 DUP1 RETURN JUMPDEST POP PUSH1 0x3 SLOAD DUP3 AND CALLER EQ PUSH2 0x4AA JUMP JUMPDEST POP SWAP1 CALLVALUE PUSH2 0x1AA JUMPI PUSH1 0x20 CALLDATASIZE PUSH1 0x3 NOT ADD SLT PUSH2 0x1AA JUMPI PUSH2 0x51D PUSH2 0x7B7 JUMP JUMPDEST DUP4 SLOAD PUSH1 0x1 PUSH1 0x1 PUSH1 0xA0 SHL SUB SWAP2 SWAP1 DUP3 AND CALLER EQ DUP1 ISZERO PUSH2 0x5C2 JUMPI JUMPDEST PUSH2 0x53D SWAP1 PUSH2 0x881 JUMP JUMPDEST AND SWAP2 DUP3 DUP5 MSTORE PUSH1 0x2 PUSH1 0x20 MSTORE PUSH1 0xFF DUP3 DUP6 KECCAK256 SLOAD AND PUSH2 0x58F JUMPI POP DUP2 DUP4 MSTORE PUSH1 0x2 PUSH1 0x20 MSTORE DUP3 KECCAK256 DUP1 SLOAD PUSH1 0xFF NOT AND PUSH1 0x1 OR SWAP1 SSTORE PUSH32 0x42A038564F3F5F6C8C03A7D705262B33CEE47E12EA5650E2E0465E0A4E6CBCF8 DUP3 DUP1 LOG2 DUP1 RETURN JUMPDEST PUSH1 0x20 PUSH1 0x64 SWAP3 MLOAD SWAP2 PUSH3 0x461BCD PUSH1 0xE5 SHL DUP4 MSTORE DUP3 ADD MSTORE PUSH1 0xE PUSH1 0x24 DUP3 ADD MSTORE PUSH14 0x105B1C9958591E481C185D5CD959 PUSH1 0x92 SHL PUSH1 0x44 DUP3 ADD MSTORE REVERT JUMPDEST POP PUSH1 0x3 SLOAD DUP3 AND CALLER EQ PUSH2 0x534 JUMP JUMPDEST POP SWAP1 CALLVALUE PUSH2 0x1AA JUMPI PUSH1 0x20 CALLDATASIZE PUSH1 0x3 NOT ADD SLT PUSH2 0x1AA JUMPI PUSH2 0x5EA PUSH2 0x7B7 JUMP JUMPDEST PUSH2 0x5F2 PUSH2 0x7D2 JUMP JUMPDEST PUSH1 0x1 PUSH1 0x1 PUSH1 0xA0 SHL SUB AND DUP1 DUP5 MSTORE PUSH1 0x2 PUSH1 0x20 MSTORE DUP2 DUP5 KECCAK256 SLOAD SWAP1 SWAP3 SWAP1 PUSH1 0xFF AND ISZERO PUSH2 0x64C JUMPI POP DUP2 DUP4 MSTORE PUSH1 0x2 PUSH1 0x20 MSTORE DUP3 KECCAK256 DUP1 SLOAD PUSH1 0xFF NOT AND SWAP1 SSTORE PUSH32 0x8800679DD6ECDEEFAAB625EF963F37D027E9507B225DB7195B49B74EBE97E815 DUP3 DUP1 LOG2 DUP1 RETURN JUMPDEST PUSH1 0x20 PUSH1 0x64 SWAP3 MLOAD SWAP2 PUSH3 0x461BCD PUSH1 0xE5 SHL DUP4 MSTORE DUP3 ADD MSTORE PUSH1 0xA PUSH1 0x24 DUP3 ADD MSTORE PUSH10 0x139BDD081C185D5CD959 PUSH1 0xB2 SHL PUSH1 0x44 DUP3 ADD MSTORE REVERT JUMPDEST POP POP CALLVALUE PUSH2 0x1E6 JUMPI PUSH1 0x20 CALLDATASIZE PUSH1 0x3 NOT ADD SLT PUSH2 0x1E6 JUMPI PUSH1 0x20 SWAP2 PUSH1 0xFF SWAP1 DUP3 SWAP1 PUSH1 0x1 PUSH1 0x1 PUSH1 0xA0 SHL SUB PUSH2 0x6A6 PUSH2 0x7B7 JUMP JUMPDEST AND DUP2 MSTORE PUSH1 0x2 DUP6 MSTORE KECCAK256 SLOAD AND SWAP1 MLOAD SWAP1 ISZERO ISZERO DUP2 MSTORE RETURN JUMPDEST POP CALLVALUE PUSH2 0x1AA JUMPI PUSH1 0x20 CALLDATASIZE PUSH1 0x3 NOT ADD SLT PUSH2 0x1AA JUMPI PUSH1 0x20 SWAP3 DUP3 SWAP2 PUSH1 0x1 PUSH1 0x1 PUSH1 0xA0 SHL SUB PUSH2 0x6E0 PUSH2 0x7B7 JUMP JUMPDEST AND DUP3 MSTORE DUP5 MSTORE KECCAK256 SLOAD SWAP1 MLOAD SWAP1 DUP2 MSTORE RETURN JUMPDEST POP POP CALLVALUE PUSH2 0x1E6 JUMPI DUP2 PUSH1 0x3 NOT CALLDATASIZE ADD SLT PUSH2 0x1E6 JUMPI PUSH1 0x3 SLOAD SWAP1 MLOAD PUSH1 0x1 PUSH1 0x1 PUSH1 0xA0 SHL SUB SWAP1 SWAP2 AND DUP2 MSTORE PUSH1 0x20 SWAP1 RETURN JUMPDEST POP CALLVALUE PUSH2 0x1AA JUMPI PUSH1 0x20 CALLDATASIZE PUSH1 0x3 NOT ADD SLT PUSH2 0x1AA JUMPI PUSH2 0x731 PUSH2 0x7B7 JUMP JUMPDEST PUSH2 0x739 PUSH2 0x7D2 JUMP JUMPDEST PUSH1 0x1 PUSH1 0x1 PUSH1 0xA0 SHL SUB AND SWAP2 DUP3 ISZERO PUSH2 0x766 JUMPI POP POP PUSH12 0xFFFFFFFFFFFFFFFFFFFFFFFF PUSH1 0xA0 SHL PUSH1 0x3 SLOAD AND OR PUSH1 0x3 SSTORE DUP1 RETURN JUMPDEST SWAP1 PUSH1 0x20 PUSH1 0x64 SWAP3 MLOAD SWAP2 PUSH3 0x461BCD PUSH1 0xE5 SHL DUP4 MSTORE DUP3 ADD MSTORE PUSH1 0x10 PUSH1 0x24 DUP3 ADD MSTORE PUSH16 0x496E76616C6964206D756C7469736967 PUSH1 0x80 SHL PUSH1 0x44 DUP3 ADD MSTORE REVERT JUMPDEST DUP5 SWAP1 CALLVALUE PUSH2 0x1E6 JUMPI DUP2 PUSH1 0x3 NOT CALLDATASIZE ADD SLT PUSH2 0x1E6 JUMPI DUP1 PUSH1 0x32 PUSH1 0x20 SWAP3 MSTORE RETURN JUMPDEST PUSH1 0x4 CALLDATALOAD SWAP1 PUSH1 0x1 PUSH1 0x1 PUSH1 0xA0 SHL SUB DUP3 AND DUP3 SUB PUSH2 0x7CD JUMPI JUMP JUMPDEST PUSH1 0x0 DUP1 REVERT JUMPDEST PUSH1 0x0 SLOAD PUSH1 0x1 PUSH1 0x1 PUSH1 0xA0 SHL SUB AND CALLER SUB PUSH2 0x7E6 JUMPI JUMP JUMPDEST PUSH1 0x64 PUSH1 0x40 MLOAD PUSH3 0x461BCD PUSH1 0xE5 SHL DUP2 MSTORE PUSH1 0x20 PUSH1 0x4 DUP3 ADD MSTORE PUSH1 0x20 PUSH1 0x24 DUP3 ADD MSTORE PUSH32 0x4F776E61626C653A2063616C6C6572206973206E6F7420746865206F776E6572 PUSH1 0x44 DUP3 ADD MSTORE REVERT JUMPDEST PUSH1 0x1 PUSH1 0x1 PUSH1 0xA0 SHL SUB AND PUSH1 0x0 SWAP1 DUP2 MSTORE PUSH1 0x1 PUSH1 0x20 MSTORE PUSH1 0x40 DUP2 KECCAK256 SLOAD PUSH1 0xFF AND PUSH2 0x867 JUMPI PUSH1 0x5 PUSH1 0x20 MSTORE PUSH1 0x40 DUP2 KECCAK256 SLOAD TIMESTAMP SUB TIMESTAMP DUP2 GT PUSH2 0x86D JUMPI PUSH2 0xE10 LT PUSH2 0x867 JUMPI SWAP1 JUMP JUMPDEST POP PUSH1 0x1 SWAP1 JUMP JUMPDEST PUSH4 0x4E487B71 PUSH1 0xE0 SHL DUP3 MSTORE PUSH1 0x11 PUSH1 0x4 MSTORE PUSH1 0x24 DUP3 REVERT JUMPDEST ISZERO PUSH2 0x888 JUMPI JUMP JUMPDEST PUSH1 0x40 MLOAD PUSH3 0x461BCD PUSH1 0xE5 SHL DUP2 MSTORE PUSH1 0x20 PUSH1 0x4 DUP3 ADD MSTORE PUSH1 0xE PUSH1 0x24 DUP3 ADD MSTORE PUSH14 0x139BDD08185D5D1A1BDC9A5E9959 PUSH1 0x92 SHL PUSH1 0x44 DUP3 ADD MSTORE PUSH1 0x64 SWAP1 REVERT INVALID LOG2 PUSH5 0x6970667358 0x22 SLT KECCAK256 LOG4 LT 0xC5 RETURNDATASIZE 0xEB 0xAA PUSH21 0x15C080B99684410D843D4945F73E59B4B554E89993 0xAB DUP6 0x2F 0xB8 PUSH5 0x736F6C6343 STOP ADDMOD SGT STOP CALLER "},"methodIdentifiers":{"EMERGENCY_THRESHOLD()":"087d31b7","disableEmergency(address)":"b94cb90f","emergencyMode(address)":"bb7a6004","emergencyPause(address)":"7041b48a","emergencyUnpause(address)":"6fd368b0","emergencyWithdraw(address,address,address,uint256)":"9216267a","enableEmergency(address)":"707b73a2","isEmergency(address)":"a38292b5","isPaused(address)":"5b14f183","lastKnownPrices(address)":"506a5d96","multisig()":"4783c35b","owner()":"8da5cb5b","pausedFunds(address)":"12bc9e5d","priceCheckTimestamps(address)":"eb7d3a34","renounceOwnership()":"715018a6","transferOwnership(address)":"f2fde38b","updateMultisig(address)":"2929c25c","updatePriceCheck(address)":"b5144ef3"}}}}}