{"contracts/RebalanceValidator.sol":{"RebalanceValidator":{"abi":[{"inputs":[],"name":"MAX_TRADE_IMPACT","outputs":[{"internalType":"uint256","name":"","type":"uint256"}],"stateMutability":"view","type":"function"},{"inputs":[{"internalType":"address[]","name":"assets","type":"address[]"},{"internalType":"uint256[]","name":"currentWeights","type":"uint256[]"},{"internalType":"uint256[]","name":"targetWeights","type":"uint256[]"},{"internalType":"uint256","name":"tolerance","type":"uint256"}],"name":"calculateRequiredTrades","outputs":[{"components":[{"internalType":"address","name":"fromAsset","type":"address"},{"internalType":"address","name":"toAsset","type":"address"},{"internalType":"uint256","name":"amountIn","type":"uint256"},{"internalType":"uint256","name":"minOut","type":"uint256"}],"internalType":"struct TradCemFund.Trade[]","name":"trades","type":"tuple[]"}],"stateMutability":"pure","type":"function"},{"inputs":[{"components":[{"internalType":"address","name":"fromAsset","type":"address"},{"internalType":"address","name":"toAsset","type":"address"},{"internalType":"uint256","name":"amountIn","type":"uint256"},{"internalType":"uint256","name":"minOut","type":"uint256"}],"internalType":"struct TradCemFund.Trade[]","name":"trades","type":"tuple[]"},{"internalType":"uint256","name":"totalNAV","type":"uint256"},{"internalType":"uint256[]","name":"currentBalances","type":"uint256[]"}],"name":"calculateTradeAmounts","outputs":[{"components":[{"internalType":"address","name":"fromAsset","type":"address"},{"internalType":"address","name":"toAsset","type":"address"},{"internalType":"uint256","name":"amountIn","type":"uint256"},{"internalType":"uint256","name":"minOut","type":"uint256"}],"internalType":"struct TradCemFund.Trade[]","name":"","type":"tuple[]"}],"stateMutability":"pure","type":"function"},{"inputs":[{"internalType":"address[]","name":"assets","type":"address[]"},{"internalType":"uint256[]","name":"currentWeights","type":"uint256[]"},{"internalType":"uint256[]","name":"targetWeights","type":"uint256[]"},{"internalType":"uint256","name":"tolerance","type":"uint256"}],"name":"validateRebalance","outputs":[{"internalType":"bool","name":"needsRebalance","type":"bool"}],"stateMutability":"pure","type":"function"}],"evm":{"bytecode":{"linkReferences":{},"object":"60808060405234610016576109d3908161001c8239f35b600080fdfe60406080815260048036101561001457600080fd5b6000803560e01c80632999fd89146105705780632da11015146104075780634abe757a146103e65763890583f11461004b57600080fd5b346103e3579061005a3661067b565b94909561006a845184511461079c565b61007784518851146107e8565b8194829483965b85518810156100ba576100ad6100a26100b39261009b8b8a610859565b5190610932565b9761009b8a8d610859565b97610834565b969561007e565b90888a969392886127108092036103955703610348578593825160019481861b91808304600214901517156103355750848994899489946100fb8a9561093f565b9787995b610160575b505050505090919293506101178161093f565b925b8181106101315782518061012d8682610731565b0390f35b8061013f61015b9287610859565b5161014a8287610859565b526101558186610859565b50610834565b610119565b83518a1015610330576101738a83610859565b51610188846101828d85610859565b51610932565b106101a6575b61019c85969798999a610834565b99989796956100ff565b6101c56101b38b84610859565b516101be8c84610859565b5190610883565b88865b6101d4575b505061018e565b8599949198969b9a939795518110156102f85787898c8c8a6101f68686610859565b5161020b88610205898c610859565b51610883565b1161022f575b505050505061021f90610834565b8b96989194999597939a9b6101c8565b82918a8088958c94899f610255819a9b8f8b61024e816101be93610859565b5192610859565b9a8b81101561030857986102dc9a6102d1986102ca988c98610205986102c49761029261029a610155985b6001600160a01b039283908e89610859565b511696610859565b51166102a4610598565b948552602085015283015260608201526102be8383610859565b52610859565b9e610859565b918d610859565b52610182848c610859565b6102e6838b610859565b528911156102f85787898c8c8a610211565b8194999597939a9b9698506101cd565b508a986102dc9a6102d1986102ca988c98610205986102c49761029261029a61015598610280565b610104565b634e487b7160e01b895260119052602488fd5b845162461bcd60e51b8152602081850152602160248201527f546172676574207765696768747320646f6e27742073756d20746f20313030306044820152600360fc1b6064820152608490fd5b865162461bcd60e51b8152602081870152602260248201527f43757272656e74207765696768747320646f6e27742073756d20746f20313030604482015261030360f41b6064820152608490fd5b80fd5b508234610403578160031936011261040357602090516101f48152f35b5080fd5b5090346104035760608060031936011261056c5781359167ffffffffffffffff808411610568573660238501121561056857838201359061044f61044a836105f4565b6105ce565b948583815260208091016024809560071b84010192368411610564578501905b8382106105185750505050604435908111610514576104919036908401610625565b508460649687833504965b86518110156105075787826104b1838a610859565b510152816104bf8289610859565b510151605f908181029181830414901517156104f45790896104ef9204876104e7838b610859565b510152610834565b61049c565b5050634e487b7160e01b82525060118352fd5b81518061012d8982610731565b8580fd5b608082360312610564578260809161052e610598565b6105378561060c565b815261054483860161060c565b838201528d80860135908201528a8501358b82015281520191019061046f565b8980fd5b8480fd5b8280fd5b5082346104035760209061058f6105863661067b565b92919091610890565b90519015158152f35b604051906080820182811067ffffffffffffffff8211176105b857604052565b634e487b7160e01b600052604160045260246000fd5b6040519190601f01601f1916820167ffffffffffffffff8111838210176105b857604052565b67ffffffffffffffff81116105b85760051b60200190565b35906001600160a01b038216820361062057565b600080fd5b9080601f830112156106205781359061064061044a836105f4565b9182938184526020808095019260051b820101928311610620578301905b82821061066c575050505090565b8135815290830190830161065e565b60806003198201126106205767ffffffffffffffff916004358381116106205782602382011215610620578060040135906106b861044a836105f4565b908192808352602460208094019160051b8301019186831161062057602401905b82821061071a57505050509260243581811161062057836106fc91600401610625565b926044359182116106205761071391600401610625565b9060643590565b8380916107268461060c565b8152019101906106d9565b60208082019080835283518092528060408094019401926000905b83821061075b57505050505090565b845180516001600160a01b0390811688528185015116878501528082015187830152606090810151908701526080909501949382019360019091019061074c565b156107a357565b60405162461bcd60e51b815260206004820152601760248201527f4173736574732f77656967687473206d69736d617463680000000000000000006044820152606490fd5b156107ef57565b60405162461bcd60e51b815260206004820152601760248201527f5461726765742077656967687473206d69736d617463680000000000000000006044820152606490fd5b60001981146108435760010190565b634e487b7160e01b600052601160045260246000fd5b805182101561086d5760209160051b010190565b634e487b7160e01b600052603260045260246000fd5b9190820391821161084357565b929161089f845183511461079c565b6108ac84518251146107e8565b60005b8451811015610928576108c28184610859565b516108cd8284610859565b51101561090a57836108ed6108e28386610859565b516101be8486610859565b11610900576108fb90610834565b6108af565b5050505050600190565b836109236109188385610859565b516101be8487610859565b6108ed565b5050505050600090565b9190820180921161084357565b9061094c61044a836105f4565b828152809261095d601f19916105f4565b019060005b82811061096e57505050565b602090610979610598565b6000815282600081830152600060408301526000606083015282850101520161096256fea2646970667358221220b2f5878d442b3742ada203f2d2dfe2c876b1ac0d26aca8fd0f6047a8734ba85e64736f6c63430008130033","opcodes":"PUSH1 0x80 DUP1 PUSH1 0x40 MSTORE CALLVALUE PUSH2 0x16 JUMPI PUSH2 0x9D3 SWAP1 DUP2 PUSH2 0x1C DUP3 CODECOPY RETURN JUMPDEST PUSH1 0x0 DUP1 REVERT INVALID PUSH1 0x40 PUSH1 0x80 DUP2 MSTORE PUSH1 0x4 DUP1 CALLDATASIZE LT ISZERO PUSH2 0x14 JUMPI PUSH1 0x0 DUP1 REVERT JUMPDEST PUSH1 0x0 DUP1 CALLDATALOAD PUSH1 0xE0 SHR DUP1 PUSH4 0x2999FD89 EQ PUSH2 0x570 JUMPI DUP1 PUSH4 0x2DA11015 EQ PUSH2 0x407 JUMPI DUP1 PUSH4 0x4ABE757A EQ PUSH2 0x3E6 JUMPI PUSH4 0x890583F1 EQ PUSH2 0x4B JUMPI PUSH1 0x0 DUP1 REVERT JUMPDEST CALLVALUE PUSH2 0x3E3 JUMPI SWAP1 PUSH2 0x5A CALLDATASIZE PUSH2 0x67B JUMP JUMPDEST SWAP5 SWAP1 SWAP6 PUSH2 0x6A DUP5 MLOAD DUP5 MLOAD EQ PUSH2 0x79C JUMP JUMPDEST PUSH2 0x77 DUP5 MLOAD DUP9 MLOAD EQ PUSH2 0x7E8 JUMP JUMPDEST DUP2 SWAP5 DUP3 SWAP5 DUP4 SWAP7 JUMPDEST DUP6 MLOAD DUP9 LT ISZERO PUSH2 0xBA JUMPI PUSH2 0xAD PUSH2 0xA2 PUSH2 0xB3 SWAP3 PUSH2 0x9B DUP12 DUP11 PUSH2 0x859 JUMP JUMPDEST MLOAD SWAP1 PUSH2 0x932 JUMP JUMPDEST SWAP8 PUSH2 0x9B DUP11 DUP14 PUSH2 0x859 JUMP JUMPDEST SWAP8 PUSH2 0x834 JUMP JUMPDEST SWAP7 SWAP6 PUSH2 0x7E JUMP JUMPDEST SWAP1 DUP9 DUP11 SWAP7 SWAP4 SWAP3 DUP9 PUSH2 0x2710 DUP1 SWAP3 SUB PUSH2 0x395 JUMPI SUB PUSH2 0x348 JUMPI DUP6 SWAP4 DUP3 MLOAD PUSH1 0x1 SWAP5 DUP2 DUP7 SHL SWAP2 DUP1 DUP4 DIV PUSH1 0x2 EQ SWAP1 ISZERO OR ISZERO PUSH2 0x335 JUMPI POP DUP5 DUP10 SWAP5 DUP10 SWAP5 DUP10 SWAP5 PUSH2 0xFB DUP11 SWAP6 PUSH2 0x93F JUMP JUMPDEST SWAP8 DUP8 SWAP10 JUMPDEST PUSH2 0x160 JUMPI JUMPDEST POP POP POP POP POP SWAP1 SWAP2 SWAP3 SWAP4 POP PUSH2 0x117 DUP2 PUSH2 0x93F JUMP JUMPDEST SWAP3 JUMPDEST DUP2 DUP2 LT PUSH2 0x131 JUMPI DUP3 MLOAD DUP1 PUSH2 0x12D DUP7 DUP3 PUSH2 0x731 JUMP JUMPDEST SUB SWAP1 RETURN JUMPDEST DUP1 PUSH2 0x13F PUSH2 0x15B SWAP3 DUP8 PUSH2 0x859 JUMP JUMPDEST MLOAD PUSH2 0x14A DUP3 DUP8 PUSH2 0x859 JUMP JUMPDEST MSTORE PUSH2 0x155 DUP2 DUP7 PUSH2 0x859 JUMP JUMPDEST POP PUSH2 0x834 JUMP JUMPDEST PUSH2 0x119 JUMP JUMPDEST DUP4 MLOAD DUP11 LT ISZERO PUSH2 0x330 JUMPI PUSH2 0x173 DUP11 DUP4 PUSH2 0x859 JUMP JUMPDEST MLOAD PUSH2 0x188 DUP5 PUSH2 0x182 DUP14 DUP6 PUSH2 0x859 JUMP JUMPDEST MLOAD PUSH2 0x932 JUMP JUMPDEST LT PUSH2 0x1A6 JUMPI JUMPDEST PUSH2 0x19C DUP6 SWAP7 SWAP8 SWAP9 SWAP10 SWAP11 PUSH2 0x834 JUMP JUMPDEST SWAP10 SWAP9 SWAP8 SWAP7 SWAP6 PUSH2 0xFF JUMP JUMPDEST PUSH2 0x1C5 PUSH2 0x1B3 DUP12 DUP5 PUSH2 0x859 JUMP JUMPDEST MLOAD PUSH2 0x1BE DUP13 DUP5 PUSH2 0x859 JUMP JUMPDEST MLOAD SWAP1 PUSH2 0x883 JUMP JUMPDEST DUP9 DUP7 JUMPDEST PUSH2 0x1D4 JUMPI JUMPDEST POP POP PUSH2 0x18E JUMP JUMPDEST DUP6 SWAP10 SWAP5 SWAP2 SWAP9 SWAP7 SWAP12 SWAP11 SWAP4 SWAP8 SWAP6 MLOAD DUP2 LT ISZERO PUSH2 0x2F8 JUMPI DUP8 DUP10 DUP13 DUP13 DUP11 PUSH2 0x1F6 DUP7 DUP7 PUSH2 0x859 JUMP JUMPDEST MLOAD PUSH2 0x20B DUP9 PUSH2 0x205 DUP10 DUP13 PUSH2 0x859 JUMP JUMPDEST MLOAD PUSH2 0x883 JUMP JUMPDEST GT PUSH2 0x22F JUMPI JUMPDEST POP POP POP POP POP PUSH2 0x21F SWAP1 PUSH2 0x834 JUMP JUMPDEST DUP12 SWAP7 SWAP9 SWAP2 SWAP5 SWAP10 SWAP6 SWAP8 SWAP4 SWAP11 SWAP12 PUSH2 0x1C8 JUMP JUMPDEST DUP3 SWAP2 DUP11 DUP1 DUP9 SWAP6 DUP13 SWAP5 DUP10 SWAP16 PUSH2 0x255 DUP2 SWAP11 SWAP12 DUP16 DUP12 PUSH2 0x24E DUP2 PUSH2 0x1BE SWAP4 PUSH2 0x859 JUMP JUMPDEST MLOAD SWAP3 PUSH2 0x859 JUMP JUMPDEST SWAP11 DUP12 DUP2 LT ISZERO PUSH2 0x308 JUMPI SWAP9 PUSH2 0x2DC SWAP11 PUSH2 0x2D1 SWAP9 PUSH2 0x2CA SWAP9 DUP13 SWAP9 PUSH2 0x205 SWAP9 PUSH2 0x2C4 SWAP8 PUSH2 0x292 PUSH2 0x29A PUSH2 0x155 SWAP9 JUMPDEST PUSH1 0x1 PUSH1 0x1 PUSH1 0xA0 SHL SUB SWAP3 DUP4 SWAP1 DUP15 DUP10 PUSH2 0x859 JUMP JUMPDEST MLOAD AND SWAP7 PUSH2 0x859 JUMP JUMPDEST MLOAD AND PUSH2 0x2A4 PUSH2 0x598 JUMP JUMPDEST SWAP5 DUP6 MSTORE PUSH1 0x20 DUP6 ADD MSTORE DUP4 ADD MSTORE PUSH1 0x60 DUP3 ADD MSTORE PUSH2 0x2BE DUP4 DUP4 PUSH2 0x859 JUMP JUMPDEST MSTORE PUSH2 0x859 JUMP JUMPDEST SWAP15 PUSH2 0x859 JUMP JUMPDEST SWAP2 DUP14 PUSH2 0x859 JUMP JUMPDEST MSTORE PUSH2 0x182 DUP5 DUP13 PUSH2 0x859 JUMP JUMPDEST PUSH2 0x2E6 DUP4 DUP12 PUSH2 0x859 JUMP JUMPDEST MSTORE DUP10 GT ISZERO PUSH2 0x2F8 JUMPI DUP8 DUP10 DUP13 DUP13 DUP11 PUSH2 0x211 JUMP JUMPDEST DUP2 SWAP5 SWAP10 SWAP6 SWAP8 SWAP4 SWAP11 SWAP12 SWAP7 SWAP9 POP PUSH2 0x1CD JUMP JUMPDEST POP DUP11 SWAP9 PUSH2 0x2DC SWAP11 PUSH2 0x2D1 SWAP9 PUSH2 0x2CA SWAP9 DUP13 SWAP9 PUSH2 0x205 SWAP9 PUSH2 0x2C4 SWAP8 PUSH2 0x292 PUSH2 0x29A PUSH2 0x155 SWAP9 PUSH2 0x280 JUMP JUMPDEST PUSH2 0x104 JUMP JUMPDEST PUSH4 0x4E487B71 PUSH1 0xE0 SHL DUP10 MSTORE PUSH1 0x11 SWAP1 MSTORE PUSH1 0x24 DUP9 REVERT JUMPDEST DUP5 MLOAD PUSH3 0x461BCD PUSH1 0xE5 SHL DUP2 MSTORE PUSH1 0x20 DUP2 DUP6 ADD MSTORE PUSH1 0x21 PUSH1 0x24 DUP3 ADD MSTORE PUSH32 0x546172676574207765696768747320646F6E27742073756D20746F2031303030 PUSH1 0x44 DUP3 ADD MSTORE PUSH1 0x3 PUSH1 0xFC SHL PUSH1 0x64 DUP3 ADD MSTORE PUSH1 0x84 SWAP1 REVERT JUMPDEST DUP7 MLOAD PUSH3 0x461BCD PUSH1 0xE5 SHL DUP2 MSTORE PUSH1 0x20 DUP2 DUP8 ADD MSTORE PUSH1 0x22 PUSH1 0x24 DUP3 ADD MSTORE PUSH32 0x43757272656E74207765696768747320646F6E27742073756D20746F20313030 PUSH1 0x44 DUP3 ADD MSTORE PUSH2 0x303 PUSH1 0xF4 SHL PUSH1 0x64 DUP3 ADD MSTORE PUSH1 0x84 SWAP1 REVERT JUMPDEST DUP1 REVERT JUMPDEST POP DUP3 CALLVALUE PUSH2 0x403 JUMPI DUP2 PUSH1 0x3 NOT CALLDATASIZE ADD SLT PUSH2 0x403 JUMPI PUSH1 0x20 SWAP1 MLOAD PUSH2 0x1F4 DUP2 MSTORE RETURN JUMPDEST POP DUP1 REVERT JUMPDEST POP SWAP1 CALLVALUE PUSH2 0x403 JUMPI PUSH1 0x60 DUP1 PUSH1 0x3 NOT CALLDATASIZE ADD SLT PUSH2 0x56C JUMPI DUP2 CALLDATALOAD SWAP2 PUSH8 0xFFFFFFFFFFFFFFFF DUP1 DUP5 GT PUSH2 0x568 JUMPI CALLDATASIZE PUSH1 0x23 DUP6 ADD SLT ISZERO PUSH2 0x568 JUMPI DUP4 DUP3 ADD CALLDATALOAD SWAP1 PUSH2 0x44F PUSH2 0x44A DUP4 PUSH2 0x5F4 JUMP JUMPDEST PUSH2 0x5CE JUMP JUMPDEST SWAP5 DUP6 DUP4 DUP2 MSTORE PUSH1 0x20 DUP1 SWAP2 ADD PUSH1 0x24 DUP1 SWAP6 PUSH1 0x7 SHL DUP5 ADD ADD SWAP3 CALLDATASIZE DUP5 GT PUSH2 0x564 JUMPI DUP6 ADD SWAP1 JUMPDEST DUP4 DUP3 LT PUSH2 0x518 JUMPI POP POP POP POP PUSH1 0x44 CALLDATALOAD SWAP1 DUP2 GT PUSH2 0x514 JUMPI PUSH2 0x491 SWAP1 CALLDATASIZE SWAP1 DUP5 ADD PUSH2 0x625 JUMP JUMPDEST POP DUP5 PUSH1 0x64 SWAP7 DUP8 DUP4 CALLDATALOAD DIV SWAP7 JUMPDEST DUP7 MLOAD DUP2 LT ISZERO PUSH2 0x507 JUMPI DUP8 DUP3 PUSH2 0x4B1 DUP4 DUP11 PUSH2 0x859 JUMP JUMPDEST MLOAD ADD MSTORE DUP2 PUSH2 0x4BF DUP3 DUP10 PUSH2 0x859 JUMP JUMPDEST MLOAD ADD MLOAD PUSH1 0x5F SWAP1 DUP2 DUP2 MUL SWAP2 DUP2 DUP4 DIV EQ SWAP1 ISZERO OR ISZERO PUSH2 0x4F4 JUMPI SWAP1 DUP10 PUSH2 0x4EF SWAP3 DIV DUP8 PUSH2 0x4E7 DUP4 DUP12 PUSH2 0x859 JUMP JUMPDEST MLOAD ADD MSTORE PUSH2 0x834 JUMP JUMPDEST PUSH2 0x49C JUMP JUMPDEST POP POP PUSH4 0x4E487B71 PUSH1 0xE0 SHL DUP3 MSTORE POP PUSH1 0x11 DUP4 MSTORE REVERT JUMPDEST DUP2 MLOAD DUP1 PUSH2 0x12D DUP10 DUP3 PUSH2 0x731 JUMP JUMPDEST DUP6 DUP1 REVERT JUMPDEST PUSH1 0x80 DUP3 CALLDATASIZE SUB SLT PUSH2 0x564 JUMPI DUP3 PUSH1 0x80 SWAP2 PUSH2 0x52E PUSH2 0x598 JUMP JUMPDEST PUSH2 0x537 DUP6 PUSH2 0x60C JUMP JUMPDEST DUP2 MSTORE PUSH2 0x544 DUP4 DUP7 ADD PUSH2 0x60C JUMP JUMPDEST DUP4 DUP3 ADD MSTORE DUP14 DUP1 DUP7 ADD CALLDATALOAD SWAP1 DUP3 ADD MSTORE DUP11 DUP6 ADD CALLDATALOAD DUP12 DUP3 ADD MSTORE DUP2 MSTORE ADD SWAP2 ADD SWAP1 PUSH2 0x46F JUMP JUMPDEST DUP10 DUP1 REVERT JUMPDEST DUP5 DUP1 REVERT JUMPDEST DUP3 DUP1 REVERT JUMPDEST POP DUP3 CALLVALUE PUSH2 0x403 JUMPI PUSH1 0x20 SWAP1 PUSH2 0x58F PUSH2 0x586 CALLDATASIZE PUSH2 0x67B JUMP JUMPDEST SWAP3 SWAP2 SWAP1 SWAP2 PUSH2 0x890 JUMP JUMPDEST SWAP1 MLOAD SWAP1 ISZERO ISZERO DUP2 MSTORE RETURN JUMPDEST PUSH1 0x40 MLOAD SWAP1 PUSH1 0x80 DUP3 ADD DUP3 DUP2 LT PUSH8 0xFFFFFFFFFFFFFFFF DUP3 GT OR PUSH2 0x5B8 JUMPI PUSH1 0x40 MSTORE JUMP JUMPDEST PUSH4 0x4E487B71 PUSH1 0xE0 SHL PUSH1 0x0 MSTORE PUSH1 0x41 PUSH1 0x4 MSTORE PUSH1 0x24 PUSH1 0x0 REVERT JUMPDEST PUSH1 0x40 MLOAD SWAP2 SWAP1 PUSH1 0x1F ADD PUSH1 0x1F NOT AND DUP3 ADD PUSH8 0xFFFFFFFFFFFFFFFF DUP2 GT DUP4 DUP3 LT OR PUSH2 0x5B8 JUMPI PUSH1 0x40 MSTORE JUMP JUMPDEST PUSH8 0xFFFFFFFFFFFFFFFF DUP2 GT PUSH2 0x5B8 JUMPI PUSH1 0x5 SHL PUSH1 0x20 ADD SWAP1 JUMP JUMPDEST CALLDATALOAD SWAP1 PUSH1 0x1 PUSH1 0x1 PUSH1 0xA0 SHL SUB DUP3 AND DUP3 SUB PUSH2 0x620 JUMPI JUMP JUMPDEST PUSH1 0x0 DUP1 REVERT JUMPDEST SWAP1 DUP1 PUSH1 0x1F DUP4 ADD SLT ISZERO PUSH2 0x620 JUMPI DUP2 CALLDATALOAD SWAP1 PUSH2 0x640 PUSH2 0x44A DUP4 PUSH2 0x5F4 JUMP JUMPDEST SWAP2 DUP3 SWAP4 DUP2 DUP5 MSTORE PUSH1 0x20 DUP1 DUP1 SWAP6 ADD SWAP3 PUSH1 0x5 SHL DUP3 ADD ADD SWAP3 DUP4 GT PUSH2 0x620 JUMPI DUP4 ADD SWAP1 JUMPDEST DUP3 DUP3 LT PUSH2 0x66C JUMPI POP POP POP POP SWAP1 JUMP JUMPDEST DUP2 CALLDATALOAD DUP2 MSTORE SWAP1 DUP4 ADD SWAP1 DUP4 ADD PUSH2 0x65E JUMP JUMPDEST PUSH1 0x80 PUSH1 0x3 NOT DUP3 ADD SLT PUSH2 0x620 JUMPI PUSH8 0xFFFFFFFFFFFFFFFF SWAP2 PUSH1 0x4 CALLDATALOAD DUP4 DUP2 GT PUSH2 0x620 JUMPI DUP3 PUSH1 0x23 DUP3 ADD SLT ISZERO PUSH2 0x620 JUMPI DUP1 PUSH1 0x4 ADD CALLDATALOAD SWAP1 PUSH2 0x6B8 PUSH2 0x44A DUP4 PUSH2 0x5F4 JUMP JUMPDEST SWAP1 DUP2 SWAP3 DUP1 DUP4 MSTORE PUSH1 0x24 PUSH1 0x20 DUP1 SWAP5 ADD SWAP2 PUSH1 0x5 SHL DUP4 ADD ADD SWAP2 DUP7 DUP4 GT PUSH2 0x620 JUMPI PUSH1 0x24 ADD SWAP1 JUMPDEST DUP3 DUP3 LT PUSH2 0x71A JUMPI POP POP POP POP SWAP3 PUSH1 0x24 CALLDATALOAD DUP2 DUP2 GT PUSH2 0x620 JUMPI DUP4 PUSH2 0x6FC SWAP2 PUSH1 0x4 ADD PUSH2 0x625 JUMP JUMPDEST SWAP3 PUSH1 0x44 CALLDATALOAD SWAP2 DUP3 GT PUSH2 0x620 JUMPI PUSH2 0x713 SWAP2 PUSH1 0x4 ADD PUSH2 0x625 JUMP JUMPDEST SWAP1 PUSH1 0x64 CALLDATALOAD SWAP1 JUMP JUMPDEST DUP4 DUP1 SWAP2 PUSH2 0x726 DUP5 PUSH2 0x60C JUMP JUMPDEST DUP2 MSTORE ADD SWAP2 ADD SWAP1 PUSH2 0x6D9 JUMP JUMPDEST PUSH1 0x20 DUP1 DUP3 ADD SWAP1 DUP1 DUP4 MSTORE DUP4 MLOAD DUP1 SWAP3 MSTORE DUP1 PUSH1 0x40 DUP1 SWAP5 ADD SWAP5 ADD SWAP3 PUSH1 0x0 SWAP1 JUMPDEST DUP4 DUP3 LT PUSH2 0x75B JUMPI POP POP POP POP POP SWAP1 JUMP JUMPDEST DUP5 MLOAD DUP1 MLOAD PUSH1 0x1 PUSH1 0x1 PUSH1 0xA0 SHL SUB SWAP1 DUP2 AND DUP9 MSTORE DUP2 DUP6 ADD MLOAD AND DUP8 DUP6 ADD MSTORE DUP1 DUP3 ADD MLOAD DUP8 DUP4 ADD MSTORE PUSH1 0x60 SWAP1 DUP2 ADD MLOAD SWAP1 DUP8 ADD MSTORE PUSH1 0x80 SWAP1 SWAP6 ADD SWAP5 SWAP4 DUP3 ADD SWAP4 PUSH1 0x1 SWAP1 SWAP2 ADD SWAP1 PUSH2 0x74C JUMP JUMPDEST ISZERO PUSH2 0x7A3 JUMPI JUMP JUMPDEST PUSH1 0x40 MLOAD PUSH3 0x461BCD PUSH1 0xE5 SHL DUP2 MSTORE PUSH1 0x20 PUSH1 0x4 DUP3 ADD MSTORE PUSH1 0x17 PUSH1 0x24 DUP3 ADD MSTORE PUSH32 0x4173736574732F77656967687473206D69736D61746368000000000000000000 PUSH1 0x44 DUP3 ADD MSTORE PUSH1 0x64 SWAP1 REVERT JUMPDEST ISZERO PUSH2 0x7EF JUMPI JUMP JUMPDEST PUSH1 0x40 MLOAD PUSH3 0x461BCD PUSH1 0xE5 SHL DUP2 MSTORE PUSH1 0x20 PUSH1 0x4 DUP3 ADD MSTORE PUSH1 0x17 PUSH1 0x24 DUP3 ADD MSTORE PUSH32 0x5461726765742077656967687473206D69736D61746368000000000000000000 PUSH1 0x44 DUP3 ADD MSTORE PUSH1 0x64 SWAP1 REVERT JUMPDEST PUSH1 0x0 NOT DUP2 EQ PUSH2 0x843 JUMPI PUSH1 0x1 ADD SWAP1 JUMP JUMPDEST PUSH4 0x4E487B71 PUSH1 0xE0 SHL PUSH1 0x0 MSTORE PUSH1 0x11 PUSH1 0x4 MSTORE PUSH1 0x24 PUSH1 0x0 REVERT JUMPDEST DUP1 MLOAD DUP3 LT ISZERO PUSH2 0x86D JUMPI PUSH1 0x20 SWAP2 PUSH1 0x5 SHL ADD ADD SWAP1 JUMP JUMPDEST PUSH4 0x4E487B71 PUSH1 0xE0 SHL PUSH1 0x0 MSTORE PUSH1 0x32 PUSH1 0x4 MSTORE PUSH1 0x24 PUSH1 0x0 REVERT JUMPDEST SWAP2 SWAP1 DUP3 SUB SWAP2 DUP3 GT PUSH2 0x843 JUMPI JUMP JUMPDEST SWAP3 SWAP2 PUSH2 0x89F DUP5 MLOAD DUP4 MLOAD EQ PUSH2 0x79C JUMP JUMPDEST PUSH2 0x8AC DUP5 MLOAD DUP3 MLOAD EQ PUSH2 0x7E8 JUMP JUMPDEST PUSH1 0x0 JUMPDEST DUP5 MLOAD DUP2 LT ISZERO PUSH2 0x928 JUMPI PUSH2 0x8C2 DUP2 DUP5 PUSH2 0x859 JUMP JUMPDEST MLOAD PUSH2 0x8CD DUP3 DUP5 PUSH2 0x859 JUMP JUMPDEST MLOAD LT ISZERO PUSH2 0x90A JUMPI DUP4 PUSH2 0x8ED PUSH2 0x8E2 DUP4 DUP7 PUSH2 0x859 JUMP JUMPDEST MLOAD PUSH2 0x1BE DUP5 DUP7 PUSH2 0x859 JUMP JUMPDEST GT PUSH2 0x900 JUMPI PUSH2 0x8FB SWAP1 PUSH2 0x834 JUMP JUMPDEST PUSH2 0x8AF JUMP JUMPDEST POP POP POP POP POP PUSH1 0x1 SWAP1 JUMP JUMPDEST DUP4 PUSH2 0x923 PUSH2 0x918 DUP4 DUP6 PUSH2 0x859 JUMP JUMPDEST MLOAD PUSH2 0x1BE DUP5 DUP8 PUSH2 0x859 JUMP JUMPDEST PUSH2 0x8ED JUMP JUMPDEST POP POP POP POP POP PUSH1 0x0 SWAP1 JUMP JUMPDEST SWAP2 SWAP1 DUP3 ADD DUP1 SWAP3 GT PUSH2 0x843 JUMPI JUMP JUMPDEST SWAP1 PUSH2 0x94C PUSH2 0x44A DUP4 PUSH2 0x5F4 JUMP JUMPDEST DUP3 DUP2 MSTORE DUP1 SWAP3 PUSH2 0x95D PUSH1 0x1F NOT SWAP2 PUSH2 0x5F4 JUMP JUMPDEST ADD SWAP1 PUSH1 0x0 JUMPDEST DUP3 DUP2 LT PUSH2 0x96E JUMPI POP POP POP JUMP JUMPDEST PUSH1 0x20 SWAP1 PUSH2 0x979 PUSH2 0x598 JUMP JUMPDEST PUSH1 0x0 DUP2 MSTORE DUP3 PUSH1 0x0 DUP2 DUP4 ADD MSTORE PUSH1 0x0 PUSH1 0x40 DUP4 ADD MSTORE PUSH1 0x0 PUSH1 0x60 DUP4 ADD MSTORE DUP3 DUP6 ADD ADD MSTORE ADD PUSH2 0x962 JUMP INVALID LOG2 PUSH5 0x6970667358 0x22 SLT KECCAK256 0xB2 CREATE2 DUP8 DUP14 PREVRANDAO 0x2B CALLDATACOPY TIMESTAMP 0xAD LOG2 SUB CALLCODE 0xD2 0xDF 0xE2 0xC8 PUSH23 0xB1AC0D26ACA8FD0F6047A8734BA85E64736F6C63430008 SGT STOP CALLER "},"methodIdentifiers":{"MAX_TRADE_IMPACT()":"4abe757a","calculateRequiredTrades(address[],uint256[],uint256[],uint256)":"890583f1","calculateTradeAmounts((address,address,uint256,uint256)[],uint256,uint256[])":"2da11015","validateRebalance(address[],uint256[],uint256[],uint256)":"2999fd89"}}}}}