{"contracts/PriceOracle.sol":{"PriceOracle":{"abi":[{"anonymous":false,"inputs":[{"indexed":true,"internalType":"address","name":"asset","type":"address"}],"name":"AssetAdded","type":"event"},{"anonymous":false,"inputs":[{"indexed":true,"internalType":"address","name":"asset","type":"address"}],"name":"AssetRemoved","type":"event"},{"anonymous":false,"inputs":[{"indexed":true,"internalType":"address","name":"previousOwner","type":"address"},{"indexed":true,"internalType":"address","name":"newOwner","type":"address"}],"name":"OwnershipTransferred","type":"event"},{"anonymous":false,"inputs":[{"indexed":true,"internalType":"address","name":"asset","type":"address"},{"indexed":false,"internalType":"address","name":"chainlinkFeed","type":"address"},{"indexed":false,"internalType":"address","name":"binanceFeed","type":"address"},{"indexed":false,"internalType":"address","name":"pythFeed","type":"address"}],"name":"PriceFeedUpdated","type":"event"},{"inputs":[],"name":"GRACE_PERIOD","outputs":[{"internalType":"uint256","name":"","type":"uint256"}],"stateMutability":"view","type":"function"},{"inputs":[],"name":"MAX_PRICE_AGE","outputs":[{"internalType":"uint256","name":"","type":"uint256"}],"stateMutability":"view","type":"function"},{"inputs":[{"internalType":"address","name":"asset","type":"address"},{"internalType":"address","name":"chainlinkFeed","type":"address"},{"internalType":"address","name":"binanceFeed","type":"address"},{"internalType":"address","name":"pythFeed","type":"address"}],"name":"addAsset","outputs":[],"stateMutability":"nonpayable","type":"function"},{"inputs":[{"internalType":"address","name":"asset","type":"address"}],"name":"getPrice","outputs":[{"internalType":"uint256","name":"","type":"uint256"}],"stateMutability":"view","type":"function"},{"inputs":[{"internalType":"address","name":"asset","type":"address"}],"name":"getPriceWithFallback","outputs":[{"internalType":"uint256","name":"price","type":"uint256"},{"internalType":"bool","name":"valid","type":"bool"}],"stateMutability":"view","type":"function"},{"inputs":[],"name":"getSupportedAssetsCount","outputs":[{"internalType":"uint256","name":"","type":"uint256"}],"stateMutability":"view","type":"function"},{"inputs":[],"name":"owner","outputs":[{"internalType":"address","name":"","type":"address"}],"stateMutability":"view","type":"function"},{"inputs":[{"internalType":"address","name":"","type":"address"}],"name":"priceFeeds","outputs":[{"internalType":"address","name":"chainlinkFeed","type":"address"},{"internalType":"address","name":"binanceFeed","type":"address"},{"internalType":"address","name":"pythFeed","type":"address"},{"internalType":"uint256","name":"heartbeat","type":"uint256"},{"internalType":"bool","name":"active","type":"bool"}],"stateMutability":"view","type":"function"},{"inputs":[{"internalType":"address","name":"asset","type":"address"}],"name":"removeAsset","outputs":[],"stateMutability":"nonpayable","type":"function"},{"inputs":[],"name":"renounceOwnership","outputs":[],"stateMutability":"nonpayable","type":"function"},{"inputs":[{"internalType":"uint256","name":"","type":"uint256"}],"name":"supportedAssets","outputs":[{"internalType":"address","name":"","type":"address"}],"stateMutability":"view","type":"function"},{"inputs":[{"internalType":"address","name":"newOwner","type":"address"}],"name":"transferOwnership","outputs":[],"stateMutability":"nonpayable","type":"function"},{"inputs":[{"internalType":"address","name":"asset","type":"address"},{"internalType":"address","name":"feed","type":"address"}],"name":"updatePriceFeed","outputs":[],"stateMutability":"nonpayable","type":"function"},{"inputs":[{"internalType":"address","name":"asset","type":"address"},{"internalType":"address","name":"chainlinkFeed","type":"address"},{"internalType":"address","name":"binanceFeed","type":"address"},{"internalType":"address","name":"pythFeed","type":"address"},{"internalType":"uint256","name":"heartbeat","type":"uint256"}],"name":"updatePriceFeeds","outputs":[],"stateMutability":"nonpayable","type":"function"}],"evm":{"bytecode":{"linkReferences":{},"object":"6080806040523461005b5760008054336001600160a01b0319821681178355916001600160a01b03909116907f8be0079c531659141344cd1fd0a4f28419497f9722a3daafe3b4186f6b6457e09080a3610be990816100618239f35b600080fdfe6040608081526004908136101561001557600080fd5b600091823560e01c806341976e09146108825780634a5e42b1146106fc57806368625807146106dd578063715018a6146106835780638da5cb5b1461065b57806395688c39146106295780639d7f7e861461060c5780639dcb511a1461059d578063b7997da1146104d1578063c1a287e2146104b0578063c621c3cc1461033a578063c68dbb37146102f7578063e7fb9029146101805763f2fde38b146100bb57600080fd5b3461017c57602036600319011261017c576100d46108ec565b906100dd610996565b6001600160a01b0391821692831561012a57505082546001600160a01b0319811683178455167f8be0079c531659141344cd1fd0a4f28419497f9722a3daafe3b4186f6b6457e08380a380f35b906020608492519162461bcd60e51b8352820152602660248201527f4f776e61626c653a206e6577206f776e657220697320746865207a65726f206160448201526564647265737360d01b6064820152fd5b8280fd5b503461017c57608036600319011261017c5761019a6108ec565b906101a3610907565b906101ac61091d565b936101b5610933565b6101bd610996565b6001600160a01b0385811696906101d5881515610ae6565b878952600160205260ff85858b200154166102b45792610288949289928561028d9998966102016109ee565b971687528060208801921682528084880193168352806060880194610e1086528c60808a0197600189525260016020528d20975116916bffffffffffffffffffffffff60a01b9283895416178855816001890191511683825416179055600287019251169082541617905551600384015551151591019060ff801983541691151516179055565b610b22565b7f0e3c58ebfb2e7465fbb1c32e6b4f40c3c4f5ca77e8218a386aff8617831260d78280a280f35b835162461bcd60e51b8152602081870152601760248201527f417373657420616c726561647920737570706f727465640000000000000000006044820152606490fd5b503461017c57602036600319011261017c5735916002548310156103375750610321602092610949565b905491519160018060a01b039160031b1c168152f35b80fd5b503461017c5760a036600319011261017c577f906bb5559b8879b8758fe20027afedd75eda88c66cdacf37012188f1e517742a906103766108ec565b90610496610382610907565b918561046f61038f61091d565b95610398610933565b938a6084356103a5610996565b60018060a01b039360ff848683169e8f956103c1871515610ae6565b868152600160205220015416156104a1575b508061049c5750610e105b8c6103e76109ee565b94808b1686526020860190808d168252808980890194828d16865260608a0196875260808a0197600189528152600160205220975116916bffffffffffffffffffffffff60a01b9283895416178855816001890191511683825416179055600287019251169082541617905551600384015551151591019060ff801983541691151516179055565b516001600160a01b0393841681529383166020850152909116604083015281906060820190565b0390a280f35b6103de565b6104aa90610b22565b386103d3565b5050346104cd57816003193601126104cd576020905161012c8152f35b5080fd5b50903461017c578060031936011261017c577f906bb5559b8879b8758fe20027afedd75eda88c66cdacf37012188f1e517742a9061050d6108ec565b90610496610519610907565b91610522610996565b6001600160a01b039384168088526001602052818820909601546105489060ff16610a24565b8587526001602081815282892080546001600160a01b0319168688161781559182015460029092015492516001600160a01b039586168152918616851690820152931691909116604083015281906060820190565b503461017c57602036600319011261017c5760a0926001600160a01b0391908390836105c76108ec565b16815260016020522090828254169360ff8460018501541694600285015416926003850154940154169381519586526020860152840152606083015215156080820152f35b5050346104cd57816003193601126104cd5760209051610e108152f35b828434610337576020366003190112610337575061064d6106486108ec565b610a66565b825191825215156020820152f35b5050346104cd57816003193601126104cd57905490516001600160a01b039091168152602090f35b833461033757806003193601126103375761069c610996565b80546001600160a01b03198116825581906001600160a01b03167f8be0079c531659141344cd1fd0a4f28419497f9722a3daafe3b4186f6b6457e08280a380f35b5050346104cd57816003193601126104cd576020906002549051908152f35b503461017c57602036600319011261017c57906107176108ec565b91610720610996565b60018060a01b0380931692838552816001938460205261074760ff83838a20015416610a24565b8587526020859052862001805460ff1916905584835b61078b575b85857f37803e2125c48ee96c38ddf04e826daf335b0e1603579040fd275aba6d06b6fc8280a280f35b60028054908183101561087b578391876107a485610949565b949054600395861b1c16146107da5750505060001981146107c75783018361075d565b634e487b7160e01b865260118352602486fd5b91955093600019929091838101908111610868579061080c856107ff61082b94610949565b9054908a1b1c1691610949565b90919082549060031b9160018060a01b03809116831b921b1916179055565b83549081156108555750019261084084610949565b81939154921b1b191690555538808080610762565b634e487b7160e01b885260319052602487fd5b634e487b7160e01b895260118352602489fd5b5050610762565b50823461033757602036600319011261033757506108a16106486108ec565b919091156108b3575060209151908152f35b606490602084519162461bcd60e51b835282015260136024820152725072696365206e6f7420617661696c61626c6560681b6044820152fd5b600435906001600160a01b038216820361090257565b600080fd5b602435906001600160a01b038216820361090257565b604435906001600160a01b038216820361090257565b606435906001600160a01b038216820361090257565b6002548110156109805760026000527f405787fa12a823e0f2b7631cc41b3ba8828b3321ca811111fa75cd3aa3bb5ace0190600090565b634e487b7160e01b600052603260045260246000fd5b6000546001600160a01b031633036109aa57565b606460405162461bcd60e51b815260206004820152602060248201527f4f776e61626c653a2063616c6c6572206973206e6f7420746865206f776e65726044820152fd5b6040519060a0820182811067ffffffffffffffff821117610a0e57604052565b634e487b7160e01b600052604160045260246000fd5b15610a2b57565b60405162461bcd60e51b8152602060048201526013602482015272105cdcd95d081b9bdd081cdd5c1c1bdc9d1959606a1b6044820152606490fd5b6001600160a01b039081166000908152600160205260409020610ad39190610acc60ff6004610a936109ee565b93858154168552856001820154166020860152856002820154166040860152600381015460608601520154161515806080840152610a24565b5116610b4c565b610ae05750600090600090565b90600190565b15610aed57565b60405162461bcd60e51b815260206004820152600d60248201526c125b9d985b1a5908185cdcd95d609a1b6044820152606490fd5b6002549068010000000000000000821015610a0e5761080c826001610b4a9401600255610949565b565b6001600160a01b03168015610baa5760018103610b735750670de0b6b3a764000090600190565b60028103610b8c5750681043561a882930000090600190565b600314610b9b57600090600090565b67d02ab486cedc000090600190565b5060009060009056fea26469706673582212205de1fd36765d22fed6513d2f2f60c8bbea3da6f41d2f4b5afe4c49b097a6e46d64736f6c63430008130033","opcodes":"PUSH1 0x80 DUP1 PUSH1 0x40 MSTORE CALLVALUE PUSH2 0x5B JUMPI PUSH1 0x0 DUP1 SLOAD CALLER PUSH1 0x1 PUSH1 0x1 PUSH1 0xA0 SHL SUB NOT DUP3 AND DUP2 OR DUP4 SSTORE SWAP2 PUSH1 0x1 PUSH1 0x1 PUSH1 0xA0 SHL SUB SWAP1 SWAP2 AND SWAP1 PUSH32 0x8BE0079C531659141344CD1FD0A4F28419497F9722A3DAAFE3B4186F6B6457E0 SWAP1 DUP1 LOG3 PUSH2 0xBE9 SWAP1 DUP2 PUSH2 0x61 DUP3 CODECOPY RETURN JUMPDEST PUSH1 0x0 DUP1 REVERT INVALID PUSH1 0x40 PUSH1 0x80 DUP2 MSTORE PUSH1 0x4 SWAP1 DUP2 CALLDATASIZE LT ISZERO PUSH2 0x15 JUMPI PUSH1 0x0 DUP1 REVERT JUMPDEST PUSH1 0x0 SWAP2 DUP3 CALLDATALOAD PUSH1 0xE0 SHR DUP1 PUSH4 0x41976E09 EQ PUSH2 0x882 JUMPI DUP1 PUSH4 0x4A5E42B1 EQ PUSH2 0x6FC JUMPI DUP1 PUSH4 0x68625807 EQ PUSH2 0x6DD JUMPI DUP1 PUSH4 0x715018A6 EQ PUSH2 0x683 JUMPI DUP1 PUSH4 0x8DA5CB5B EQ PUSH2 0x65B JUMPI DUP1 PUSH4 0x95688C39 EQ PUSH2 0x629 JUMPI DUP1 PUSH4 0x9D7F7E86 EQ PUSH2 0x60C JUMPI DUP1 PUSH4 0x9DCB511A EQ PUSH2 0x59D JUMPI DUP1 PUSH4 0xB7997DA1 EQ PUSH2 0x4D1 JUMPI DUP1 PUSH4 0xC1A287E2 EQ PUSH2 0x4B0 JUMPI DUP1 PUSH4 0xC621C3CC EQ PUSH2 0x33A JUMPI DUP1 PUSH4 0xC68DBB37 EQ PUSH2 0x2F7 JUMPI DUP1 PUSH4 0xE7FB9029 EQ PUSH2 0x180 JUMPI PUSH4 0xF2FDE38B EQ PUSH2 0xBB JUMPI PUSH1 0x0 DUP1 REVERT JUMPDEST CALLVALUE PUSH2 0x17C JUMPI PUSH1 0x20 CALLDATASIZE PUSH1 0x3 NOT ADD SLT PUSH2 0x17C JUMPI PUSH2 0xD4 PUSH2 0x8EC JUMP JUMPDEST SWAP1 PUSH2 0xDD PUSH2 0x996 JUMP JUMPDEST PUSH1 0x1 PUSH1 0x1 PUSH1 0xA0 SHL SUB SWAP2 DUP3 AND SWAP3 DUP4 ISZERO PUSH2 0x12A JUMPI POP POP DUP3 SLOAD PUSH1 0x1 PUSH1 0x1 PUSH1 0xA0 SHL SUB NOT DUP2 AND DUP4 OR DUP5 SSTORE AND PUSH32 0x8BE0079C531659141344CD1FD0A4F28419497F9722A3DAAFE3B4186F6B6457E0 DUP4 DUP1 LOG3 DUP1 RETURN JUMPDEST SWAP1 PUSH1 0x20 PUSH1 0x84 SWAP3 MLOAD SWAP2 PUSH3 0x461BCD PUSH1 0xE5 SHL DUP4 MSTORE DUP3 ADD MSTORE PUSH1 0x26 PUSH1 0x24 DUP3 ADD MSTORE PUSH32 0x4F776E61626C653A206E6577206F776E657220697320746865207A65726F2061 PUSH1 0x44 DUP3 ADD MSTORE PUSH6 0x646472657373 PUSH1 0xD0 SHL PUSH1 0x64 DUP3 ADD MSTORE REVERT JUMPDEST DUP3 DUP1 REVERT JUMPDEST POP CALLVALUE PUSH2 0x17C JUMPI PUSH1 0x80 CALLDATASIZE PUSH1 0x3 NOT ADD SLT PUSH2 0x17C JUMPI PUSH2 0x19A PUSH2 0x8EC JUMP JUMPDEST SWAP1 PUSH2 0x1A3 PUSH2 0x907 JUMP JUMPDEST SWAP1 PUSH2 0x1AC PUSH2 0x91D JUMP JUMPDEST SWAP4 PUSH2 0x1B5 PUSH2 0x933 JUMP JUMPDEST PUSH2 0x1BD PUSH2 0x996 JUMP JUMPDEST PUSH1 0x1 PUSH1 0x1 PUSH1 0xA0 SHL SUB DUP6 DUP2 AND SWAP7 SWAP1 PUSH2 0x1D5 DUP9 ISZERO ISZERO PUSH2 0xAE6 JUMP JUMPDEST DUP8 DUP10 MSTORE PUSH1 0x1 PUSH1 0x20 MSTORE PUSH1 0xFF DUP6 DUP6 DUP12 KECCAK256 ADD SLOAD AND PUSH2 0x2B4 JUMPI SWAP3 PUSH2 0x288 SWAP5 SWAP3 DUP10 SWAP3 DUP6 PUSH2 0x28D SWAP10 SWAP9 SWAP7 PUSH2 0x201 PUSH2 0x9EE JUMP JUMPDEST SWAP8 AND DUP8 MSTORE DUP1 PUSH1 0x20 DUP9 ADD SWAP3 AND DUP3 MSTORE DUP1 DUP5 DUP9 ADD SWAP4 AND DUP4 MSTORE DUP1 PUSH1 0x60 DUP9 ADD SWAP5 PUSH2 0xE10 DUP7 MSTORE DUP13 PUSH1 0x80 DUP11 ADD SWAP8 PUSH1 0x1 DUP10 MSTORE MSTORE PUSH1 0x1 PUSH1 0x20 MSTORE DUP14 KECCAK256 SWAP8 MLOAD AND SWAP2 PUSH12 0xFFFFFFFFFFFFFFFFFFFFFFFF PUSH1 0xA0 SHL SWAP3 DUP4 DUP10 SLOAD AND OR DUP9 SSTORE DUP2 PUSH1 0x1 DUP10 ADD SWAP2 MLOAD AND DUP4 DUP3 SLOAD AND OR SWAP1 SSTORE PUSH1 0x2 DUP8 ADD SWAP3 MLOAD AND SWAP1 DUP3 SLOAD AND OR SWAP1 SSTORE MLOAD PUSH1 0x3 DUP5 ADD SSTORE MLOAD ISZERO ISZERO SWAP2 ADD SWAP1 PUSH1 0xFF DUP1 NOT DUP4 SLOAD AND SWAP2 ISZERO ISZERO AND OR SWAP1 SSTORE JUMP JUMPDEST PUSH2 0xB22 JUMP JUMPDEST PUSH32 0xE3C58EBFB2E7465FBB1C32E6B4F40C3C4F5CA77E8218A386AFF8617831260D7 DUP3 DUP1 LOG2 DUP1 RETURN JUMPDEST DUP4 MLOAD PUSH3 0x461BCD PUSH1 0xE5 SHL DUP2 MSTORE PUSH1 0x20 DUP2 DUP8 ADD MSTORE PUSH1 0x17 PUSH1 0x24 DUP3 ADD MSTORE PUSH32 0x417373657420616C726561647920737570706F72746564000000000000000000 PUSH1 0x44 DUP3 ADD MSTORE PUSH1 0x64 SWAP1 REVERT JUMPDEST POP CALLVALUE PUSH2 0x17C JUMPI PUSH1 0x20 CALLDATASIZE PUSH1 0x3 NOT ADD SLT PUSH2 0x17C JUMPI CALLDATALOAD SWAP2 PUSH1 0x2 SLOAD DUP4 LT ISZERO PUSH2 0x337 JUMPI POP PUSH2 0x321 PUSH1 0x20 SWAP3 PUSH2 0x949 JUMP JUMPDEST SWAP1 SLOAD SWAP2 MLOAD SWAP2 PUSH1 0x1 DUP1 PUSH1 0xA0 SHL SUB SWAP2 PUSH1 0x3 SHL SHR AND DUP2 MSTORE RETURN JUMPDEST DUP1 REVERT JUMPDEST POP CALLVALUE PUSH2 0x17C JUMPI PUSH1 0xA0 CALLDATASIZE PUSH1 0x3 NOT ADD SLT PUSH2 0x17C JUMPI PUSH32 0x906BB5559B8879B8758FE20027AFEDD75EDA88C66CDACF37012188F1E517742A SWAP1 PUSH2 0x376 PUSH2 0x8EC JUMP JUMPDEST SWAP1 PUSH2 0x496 PUSH2 0x382 PUSH2 0x907 JUMP JUMPDEST SWAP2 DUP6 PUSH2 0x46F PUSH2 0x38F PUSH2 0x91D JUMP JUMPDEST SWAP6 PUSH2 0x398 PUSH2 0x933 JUMP JUMPDEST SWAP4 DUP11 PUSH1 0x84 CALLDATALOAD PUSH2 0x3A5 PUSH2 0x996 JUMP JUMPDEST PUSH1 0x1 DUP1 PUSH1 0xA0 SHL SUB SWAP4 PUSH1 0xFF DUP5 DUP7 DUP4 AND SWAP15 DUP16 SWAP6 PUSH2 0x3C1 DUP8 ISZERO ISZERO PUSH2 0xAE6 JUMP JUMPDEST DUP7 DUP2 MSTORE PUSH1 0x1 PUSH1 0x20 MSTORE KECCAK256 ADD SLOAD AND ISZERO PUSH2 0x4A1 JUMPI JUMPDEST POP DUP1 PUSH2 0x49C JUMPI POP PUSH2 0xE10 JUMPDEST DUP13 PUSH2 0x3E7 PUSH2 0x9EE JUMP JUMPDEST SWAP5 DUP1 DUP12 AND DUP7 MSTORE PUSH1 0x20 DUP7 ADD SWAP1 DUP1 DUP14 AND DUP3 MSTORE DUP1 DUP10 DUP1 DUP10 ADD SWAP5 DUP3 DUP14 AND DUP7 MSTORE PUSH1 0x60 DUP11 ADD SWAP7 DUP8 MSTORE PUSH1 0x80 DUP11 ADD SWAP8 PUSH1 0x1 DUP10 MSTORE DUP2 MSTORE PUSH1 0x1 PUSH1 0x20 MSTORE KECCAK256 SWAP8 MLOAD AND SWAP2 PUSH12 0xFFFFFFFFFFFFFFFFFFFFFFFF PUSH1 0xA0 SHL SWAP3 DUP4 DUP10 SLOAD AND OR DUP9 SSTORE DUP2 PUSH1 0x1 DUP10 ADD SWAP2 MLOAD AND DUP4 DUP3 SLOAD AND OR SWAP1 SSTORE PUSH1 0x2 DUP8 ADD SWAP3 MLOAD AND SWAP1 DUP3 SLOAD AND OR SWAP1 SSTORE MLOAD PUSH1 0x3 DUP5 ADD SSTORE MLOAD ISZERO ISZERO SWAP2 ADD SWAP1 PUSH1 0xFF DUP1 NOT DUP4 SLOAD AND SWAP2 ISZERO ISZERO AND OR SWAP1 SSTORE JUMP JUMPDEST MLOAD PUSH1 0x1 PUSH1 0x1 PUSH1 0xA0 SHL SUB SWAP4 DUP5 AND DUP2 MSTORE SWAP4 DUP4 AND PUSH1 0x20 DUP6 ADD MSTORE SWAP1 SWAP2 AND PUSH1 0x40 DUP4 ADD MSTORE DUP2 SWAP1 PUSH1 0x60 DUP3 ADD SWAP1 JUMP JUMPDEST SUB SWAP1 LOG2 DUP1 RETURN JUMPDEST PUSH2 0x3DE JUMP JUMPDEST PUSH2 0x4AA SWAP1 PUSH2 0xB22 JUMP JUMPDEST CODESIZE PUSH2 0x3D3 JUMP JUMPDEST POP POP CALLVALUE PUSH2 0x4CD JUMPI DUP2 PUSH1 0x3 NOT CALLDATASIZE ADD SLT PUSH2 0x4CD JUMPI PUSH1 0x20 SWAP1 MLOAD PUSH2 0x12C DUP2 MSTORE RETURN JUMPDEST POP DUP1 REVERT JUMPDEST POP SWAP1 CALLVALUE PUSH2 0x17C JUMPI DUP1 PUSH1 0x3 NOT CALLDATASIZE ADD SLT PUSH2 0x17C JUMPI PUSH32 0x906BB5559B8879B8758FE20027AFEDD75EDA88C66CDACF37012188F1E517742A SWAP1 PUSH2 0x50D PUSH2 0x8EC JUMP JUMPDEST SWAP1 PUSH2 0x496 PUSH2 0x519 PUSH2 0x907 JUMP JUMPDEST SWAP2 PUSH2 0x522 PUSH2 0x996 JUMP JUMPDEST PUSH1 0x1 PUSH1 0x1 PUSH1 0xA0 SHL SUB SWAP4 DUP5 AND DUP1 DUP9 MSTORE PUSH1 0x1 PUSH1 0x20 MSTORE DUP2 DUP9 KECCAK256 SWAP1 SWAP7 ADD SLOAD PUSH2 0x548 SWAP1 PUSH1 0xFF AND PUSH2 0xA24 JUMP JUMPDEST DUP6 DUP8 MSTORE PUSH1 0x1 PUSH1 0x20 DUP2 DUP2 MSTORE DUP3 DUP10 KECCAK256 DUP1 SLOAD PUSH1 0x1 PUSH1 0x1 PUSH1 0xA0 SHL SUB NOT AND DUP7 DUP9 AND OR DUP2 SSTORE SWAP2 DUP3 ADD SLOAD PUSH1 0x2 SWAP1 SWAP3 ADD SLOAD SWAP3 MLOAD PUSH1 0x1 PUSH1 0x1 PUSH1 0xA0 SHL SUB SWAP6 DUP7 AND DUP2 MSTORE SWAP2 DUP7 AND DUP6 AND SWAP1 DUP3 ADD MSTORE SWAP4 AND SWAP2 SWAP1 SWAP2 AND PUSH1 0x40 DUP4 ADD MSTORE DUP2 SWAP1 PUSH1 0x60 DUP3 ADD SWAP1 JUMP JUMPDEST POP CALLVALUE PUSH2 0x17C JUMPI PUSH1 0x20 CALLDATASIZE PUSH1 0x3 NOT ADD SLT PUSH2 0x17C JUMPI PUSH1 0xA0 SWAP3 PUSH1 0x1 PUSH1 0x1 PUSH1 0xA0 SHL SUB SWAP2 SWAP1 DUP4 SWAP1 DUP4 PUSH2 0x5C7 PUSH2 0x8EC JUMP JUMPDEST AND DUP2 MSTORE PUSH1 0x1 PUSH1 0x20 MSTORE KECCAK256 SWAP1 DUP3 DUP3 SLOAD AND SWAP4 PUSH1 0xFF DUP5 PUSH1 0x1 DUP6 ADD SLOAD AND SWAP5 PUSH1 0x2 DUP6 ADD SLOAD AND SWAP3 PUSH1 0x3 DUP6 ADD SLOAD SWAP5 ADD SLOAD AND SWAP4 DUP2 MLOAD SWAP6 DUP7 MSTORE PUSH1 0x20 DUP7 ADD MSTORE DUP5 ADD MSTORE PUSH1 0x60 DUP4 ADD MSTORE ISZERO ISZERO PUSH1 0x80 DUP3 ADD MSTORE RETURN JUMPDEST POP POP CALLVALUE PUSH2 0x4CD JUMPI DUP2 PUSH1 0x3 NOT CALLDATASIZE ADD SLT PUSH2 0x4CD JUMPI PUSH1 0x20 SWAP1 MLOAD PUSH2 0xE10 DUP2 MSTORE RETURN JUMPDEST DUP3 DUP5 CALLVALUE PUSH2 0x337 JUMPI PUSH1 0x20 CALLDATASIZE PUSH1 0x3 NOT ADD SLT PUSH2 0x337 JUMPI POP PUSH2 0x64D PUSH2 0x648 PUSH2 0x8EC JUMP JUMPDEST PUSH2 0xA66 JUMP JUMPDEST DUP3 MLOAD SWAP2 DUP3 MSTORE ISZERO ISZERO PUSH1 0x20 DUP3 ADD MSTORE RETURN JUMPDEST POP POP CALLVALUE PUSH2 0x4CD JUMPI DUP2 PUSH1 0x3 NOT CALLDATASIZE ADD SLT PUSH2 0x4CD JUMPI SWAP1 SLOAD SWAP1 MLOAD PUSH1 0x1 PUSH1 0x1 PUSH1 0xA0 SHL SUB SWAP1 SWAP2 AND DUP2 MSTORE PUSH1 0x20 SWAP1 RETURN JUMPDEST DUP4 CALLVALUE PUSH2 0x337 JUMPI DUP1 PUSH1 0x3 NOT CALLDATASIZE ADD SLT PUSH2 0x337 JUMPI PUSH2 0x69C PUSH2 0x996 JUMP JUMPDEST DUP1 SLOAD PUSH1 0x1 PUSH1 0x1 PUSH1 0xA0 SHL SUB NOT DUP2 AND DUP3 SSTORE DUP2 SWAP1 PUSH1 0x1 PUSH1 0x1 PUSH1 0xA0 SHL SUB AND PUSH32 0x8BE0079C531659141344CD1FD0A4F28419497F9722A3DAAFE3B4186F6B6457E0 DUP3 DUP1 LOG3 DUP1 RETURN JUMPDEST POP POP CALLVALUE PUSH2 0x4CD JUMPI DUP2 PUSH1 0x3 NOT CALLDATASIZE ADD SLT PUSH2 0x4CD JUMPI PUSH1 0x20 SWAP1 PUSH1 0x2 SLOAD SWAP1 MLOAD SWAP1 DUP2 MSTORE RETURN JUMPDEST POP CALLVALUE PUSH2 0x17C JUMPI PUSH1 0x20 CALLDATASIZE PUSH1 0x3 NOT ADD SLT PUSH2 0x17C JUMPI SWAP1 PUSH2 0x717 PUSH2 0x8EC JUMP JUMPDEST SWAP2 PUSH2 0x720 PUSH2 0x996 JUMP JUMPDEST PUSH1 0x1 DUP1 PUSH1 0xA0 SHL SUB DUP1 SWAP4 AND SWAP3 DUP4 DUP6 MSTORE DUP2 PUSH1 0x1 SWAP4 DUP5 PUSH1 0x20 MSTORE PUSH2 0x747 PUSH1 0xFF DUP4 DUP4 DUP11 KECCAK256 ADD SLOAD AND PUSH2 0xA24 JUMP JUMPDEST DUP6 DUP8 MSTORE PUSH1 0x20 DUP6 SWAP1 MSTORE DUP7 KECCAK256 ADD DUP1 SLOAD PUSH1 0xFF NOT AND SWAP1 SSTORE DUP5 DUP4 JUMPDEST PUSH2 0x78B JUMPI JUMPDEST DUP6 DUP6 PUSH32 0x37803E2125C48EE96C38DDF04E826DAF335B0E1603579040FD275ABA6D06B6FC DUP3 DUP1 LOG2 DUP1 RETURN JUMPDEST PUSH1 0x2 DUP1 SLOAD SWAP1 DUP2 DUP4 LT ISZERO PUSH2 0x87B JUMPI DUP4 SWAP2 DUP8 PUSH2 0x7A4 DUP6 PUSH2 0x949 JUMP JUMPDEST SWAP5 SWAP1 SLOAD PUSH1 0x3 SWAP6 DUP7 SHL SHR AND EQ PUSH2 0x7DA JUMPI POP POP POP PUSH1 0x0 NOT DUP2 EQ PUSH2 0x7C7 JUMPI DUP4 ADD DUP4 PUSH2 0x75D JUMP JUMPDEST PUSH4 0x4E487B71 PUSH1 0xE0 SHL DUP7 MSTORE PUSH1 0x11 DUP4 MSTORE PUSH1 0x24 DUP7 REVERT JUMPDEST SWAP2 SWAP6 POP SWAP4 PUSH1 0x0 NOT SWAP3 SWAP1 SWAP2 DUP4 DUP2 ADD SWAP1 DUP2 GT PUSH2 0x868 JUMPI SWAP1 PUSH2 0x80C DUP6 PUSH2 0x7FF PUSH2 0x82B SWAP5 PUSH2 0x949 JUMP JUMPDEST SWAP1 SLOAD SWAP1 DUP11 SHL SHR AND SWAP2 PUSH2 0x949 JUMP JUMPDEST SWAP1 SWAP2 SWAP1 DUP3 SLOAD SWAP1 PUSH1 0x3 SHL SWAP2 PUSH1 0x1 DUP1 PUSH1 0xA0 SHL SUB DUP1 SWAP2 AND DUP4 SHL SWAP3 SHL NOT AND OR SWAP1 SSTORE JUMP JUMPDEST DUP4 SLOAD SWAP1 DUP2 ISZERO PUSH2 0x855 JUMPI POP ADD SWAP3 PUSH2 0x840 DUP5 PUSH2 0x949 JUMP JUMPDEST DUP2 SWAP4 SWAP2 SLOAD SWAP3 SHL SHL NOT AND SWAP1 SSTORE SSTORE CODESIZE DUP1 DUP1 DUP1 PUSH2 0x762 JUMP JUMPDEST PUSH4 0x4E487B71 PUSH1 0xE0 SHL DUP9 MSTORE PUSH1 0x31 SWAP1 MSTORE PUSH1 0x24 DUP8 REVERT JUMPDEST PUSH4 0x4E487B71 PUSH1 0xE0 SHL DUP10 MSTORE PUSH1 0x11 DUP4 MSTORE PUSH1 0x24 DUP10 REVERT JUMPDEST POP POP PUSH2 0x762 JUMP JUMPDEST POP DUP3 CALLVALUE PUSH2 0x337 JUMPI PUSH1 0x20 CALLDATASIZE PUSH1 0x3 NOT ADD SLT PUSH2 0x337 JUMPI POP PUSH2 0x8A1 PUSH2 0x648 PUSH2 0x8EC JUMP JUMPDEST SWAP2 SWAP1 SWAP2 ISZERO PUSH2 0x8B3 JUMPI POP PUSH1 0x20 SWAP2 MLOAD SWAP1 DUP2 MSTORE RETURN JUMPDEST PUSH1 0x64 SWAP1 PUSH1 0x20 DUP5 MLOAD SWAP2 PUSH3 0x461BCD PUSH1 0xE5 SHL DUP4 MSTORE DUP3 ADD MSTORE PUSH1 0x13 PUSH1 0x24 DUP3 ADD MSTORE PUSH19 0x5072696365206E6F7420617661696C61626C65 PUSH1 0x68 SHL PUSH1 0x44 DUP3 ADD MSTORE REVERT JUMPDEST PUSH1 0x4 CALLDATALOAD SWAP1 PUSH1 0x1 PUSH1 0x1 PUSH1 0xA0 SHL SUB DUP3 AND DUP3 SUB PUSH2 0x902 JUMPI JUMP JUMPDEST PUSH1 0x0 DUP1 REVERT JUMPDEST PUSH1 0x24 CALLDATALOAD SWAP1 PUSH1 0x1 PUSH1 0x1 PUSH1 0xA0 SHL SUB DUP3 AND DUP3 SUB PUSH2 0x902 JUMPI JUMP JUMPDEST PUSH1 0x44 CALLDATALOAD SWAP1 PUSH1 0x1 PUSH1 0x1 PUSH1 0xA0 SHL SUB DUP3 AND DUP3 SUB PUSH2 0x902 JUMPI JUMP JUMPDEST PUSH1 0x64 CALLDATALOAD SWAP1 PUSH1 0x1 PUSH1 0x1 PUSH1 0xA0 SHL SUB DUP3 AND DUP3 SUB PUSH2 0x902 JUMPI JUMP JUMPDEST PUSH1 0x2 SLOAD DUP2 LT ISZERO PUSH2 0x980 JUMPI PUSH1 0x2 PUSH1 0x0 MSTORE PUSH32 0x405787FA12A823E0F2B7631CC41B3BA8828B3321CA811111FA75CD3AA3BB5ACE ADD SWAP1 PUSH1 0x0 SWAP1 JUMP JUMPDEST PUSH4 0x4E487B71 PUSH1 0xE0 SHL PUSH1 0x0 MSTORE PUSH1 0x32 PUSH1 0x4 MSTORE PUSH1 0x24 PUSH1 0x0 REVERT JUMPDEST PUSH1 0x0 SLOAD PUSH1 0x1 PUSH1 0x1 PUSH1 0xA0 SHL SUB AND CALLER SUB PUSH2 0x9AA JUMPI JUMP JUMPDEST PUSH1 0x64 PUSH1 0x40 MLOAD PUSH3 0x461BCD PUSH1 0xE5 SHL DUP2 MSTORE PUSH1 0x20 PUSH1 0x4 DUP3 ADD MSTORE PUSH1 0x20 PUSH1 0x24 DUP3 ADD MSTORE PUSH32 0x4F776E61626C653A2063616C6C6572206973206E6F7420746865206F776E6572 PUSH1 0x44 DUP3 ADD MSTORE REVERT JUMPDEST PUSH1 0x40 MLOAD SWAP1 PUSH1 0xA0 DUP3 ADD DUP3 DUP2 LT PUSH8 0xFFFFFFFFFFFFFFFF DUP3 GT OR PUSH2 0xA0E JUMPI PUSH1 0x40 MSTORE JUMP JUMPDEST PUSH4 0x4E487B71 PUSH1 0xE0 SHL PUSH1 0x0 MSTORE PUSH1 0x41 PUSH1 0x4 MSTORE PUSH1 0x24 PUSH1 0x0 REVERT JUMPDEST ISZERO PUSH2 0xA2B JUMPI JUMP JUMPDEST PUSH1 0x40 MLOAD PUSH3 0x461BCD PUSH1 0xE5 SHL DUP2 MSTORE PUSH1 0x20 PUSH1 0x4 DUP3 ADD MSTORE PUSH1 0x13 PUSH1 0x24 DUP3 ADD MSTORE PUSH19 0x105CDCD95D081B9BDD081CDD5C1C1BDC9D1959 PUSH1 0x6A SHL PUSH1 0x44 DUP3 ADD MSTORE PUSH1 0x64 SWAP1 REVERT JUMPDEST PUSH1 0x1 PUSH1 0x1 PUSH1 0xA0 SHL SUB SWAP1 DUP2 AND PUSH1 0x0 SWAP1 DUP2 MSTORE PUSH1 0x1 PUSH1 0x20 MSTORE PUSH1 0x40 SWAP1 KECCAK256 PUSH2 0xAD3 SWAP2 SWAP1 PUSH2 0xACC PUSH1 0xFF PUSH1 0x4 PUSH2 0xA93 PUSH2 0x9EE JUMP JUMPDEST SWAP4 DUP6 DUP2 SLOAD AND DUP6 MSTORE DUP6 PUSH1 0x1 DUP3 ADD SLOAD AND PUSH1 0x20 DUP7 ADD MSTORE DUP6 PUSH1 0x2 DUP3 ADD SLOAD AND PUSH1 0x40 DUP7 ADD MSTORE PUSH1 0x3 DUP2 ADD SLOAD PUSH1 0x60 DUP7 ADD MSTORE ADD SLOAD AND ISZERO ISZERO DUP1 PUSH1 0x80 DUP5 ADD MSTORE PUSH2 0xA24 JUMP JUMPDEST MLOAD AND PUSH2 0xB4C JUMP JUMPDEST PUSH2 0xAE0 JUMPI POP PUSH1 0x0 SWAP1 PUSH1 0x0 SWAP1 JUMP JUMPDEST SWAP1 PUSH1 0x1 SWAP1 JUMP JUMPDEST ISZERO PUSH2 0xAED JUMPI JUMP JUMPDEST PUSH1 0x40 MLOAD PUSH3 0x461BCD PUSH1 0xE5 SHL DUP2 MSTORE PUSH1 0x20 PUSH1 0x4 DUP3 ADD MSTORE PUSH1 0xD PUSH1 0x24 DUP3 ADD MSTORE PUSH13 0x125B9D985B1A5908185CDCD95D PUSH1 0x9A SHL PUSH1 0x44 DUP3 ADD MSTORE PUSH1 0x64 SWAP1 REVERT JUMPDEST PUSH1 0x2 SLOAD SWAP1 PUSH9 0x10000000000000000 DUP3 LT ISZERO PUSH2 0xA0E JUMPI PUSH2 0x80C DUP3 PUSH1 0x1 PUSH2 0xB4A SWAP5 ADD PUSH1 0x2 SSTORE PUSH2 0x949 JUMP JUMPDEST JUMP JUMPDEST PUSH1 0x1 PUSH1 0x1 PUSH1 0xA0 SHL SUB AND DUP1 ISZERO PUSH2 0xBAA JUMPI PUSH1 0x1 DUP2 SUB PUSH2 0xB73 JUMPI POP PUSH8 0xDE0B6B3A7640000 SWAP1 PUSH1 0x1 SWAP1 JUMP JUMPDEST PUSH1 0x2 DUP2 SUB PUSH2 0xB8C JUMPI POP PUSH9 0x1043561A8829300000 SWAP1 PUSH1 0x1 SWAP1 JUMP JUMPDEST PUSH1 0x3 EQ PUSH2 0xB9B JUMPI PUSH1 0x0 SWAP1 PUSH1 0x0 SWAP1 JUMP JUMPDEST PUSH8 0xD02AB486CEDC0000 SWAP1 PUSH1 0x1 SWAP1 JUMP JUMPDEST POP PUSH1 0x0 SWAP1 PUSH1 0x0 SWAP1 JUMP INVALID LOG2 PUSH5 0x6970667358 0x22 SLT KECCAK256 0x5D 0xE1 REVERT CALLDATASIZE PUSH23 0x5D22FED6513D2F2F60C8BBEA3DA6F41D2F4B5AFE4C49B0 SWAP8 0xA6 0xE4 PUSH14 0x64736F6C63430008130033000000 "},"methodIdentifiers":{"GRACE_PERIOD()":"c1a287e2","MAX_PRICE_AGE()":"9d7f7e86","addAsset(address,address,address,address)":"e7fb9029","getPrice(address)":"41976e09","getPriceWithFallback(address)":"95688c39","getSupportedAssetsCount()":"68625807","owner()":"8da5cb5b","priceFeeds(address)":"9dcb511a","removeAsset(address)":"4a5e42b1","renounceOwnership()":"715018a6","supportedAssets(uint256)":"c68dbb37","transferOwnership(address)":"f2fde38b","updatePriceFeed(address,address)":"b7997da1","updatePriceFeeds(address,address,address,address,uint256)":"c621c3cc"}}}}}