{
  "_format": "hh-sol-artifact-1",
  "contractName": "RebalanceValidator",
  "sourceName": "contracts/RebalanceValidator.sol",
  "abi": [
    {
      "inputs": [],
      "name": "MAX_TRADE_IMPACT",
      "outputs": [
        {
          "internalType": "uint256",
          "name": "",
          "type": "uint256"
        }
      ],
      "stateMutability": "view",
      "type": "function"
    },
    {
      "inputs": [
        {
          "internalType": "address[]",
          "name": "assets",
          "type": "address[]"
        },
        {
          "internalType": "uint256[]",
          "name": "currentWeights",
          "type": "uint256[]"
        },
        {
          "internalType": "uint256[]",
          "name": "targetWeights",
          "type": "uint256[]"
        },
        {
          "internalType": "uint256",
          "name": "tolerance",
          "type": "uint256"
        }
      ],
      "name": "calculateRequiredTrades",
      "outputs": [
        {
          "components": [
            {
              "internalType": "address",
              "name": "fromAsset",
              "type": "address"
            },
            {
              "internalType": "address",
              "name": "toAsset",
              "type": "address"
            },
            {
              "internalType": "uint256",
              "name": "amountIn",
              "type": "uint256"
            },
            {
              "internalType": "uint256",
              "name": "minOut",
              "type": "uint256"
            }
          ],
          "internalType": "struct TradCemFund.Trade[]",
          "name": "trades",
          "type": "tuple[]"
        }
      ],
      "stateMutability": "pure",
      "type": "function"
    },
    {
      "inputs": [
        {
          "components": [
            {
              "internalType": "address",
              "name": "fromAsset",
              "type": "address"
            },
            {
              "internalType": "address",
              "name": "toAsset",
              "type": "address"
            },
            {
              "internalType": "uint256",
              "name": "amountIn",
              "type": "uint256"
            },
            {
              "internalType": "uint256",
              "name": "minOut",
              "type": "uint256"
            }
          ],
          "internalType": "struct TradCemFund.Trade[]",
          "name": "trades",
          "type": "tuple[]"
        },
        {
          "internalType": "uint256",
          "name": "totalNAV",
          "type": "uint256"
        },
        {
          "internalType": "uint256[]",
          "name": "currentBalances",
          "type": "uint256[]"
        }
      ],
      "name": "calculateTradeAmounts",
      "outputs": [
        {
          "components": [
            {
              "internalType": "address",
              "name": "fromAsset",
              "type": "address"
            },
            {
              "internalType": "address",
              "name": "toAsset",
              "type": "address"
            },
            {
              "internalType": "uint256",
              "name": "amountIn",
              "type": "uint256"
            },
            {
              "internalType": "uint256",
              "name": "minOut",
              "type": "uint256"
            }
          ],
          "internalType": "struct TradCemFund.Trade[]",
          "name": "",
          "type": "tuple[]"
        }
      ],
      "stateMutability": "pure",
      "type": "function"
    },
    {
      "inputs": [
        {
          "internalType": "address[]",
          "name": "assets",
          "type": "address[]"
        },
        {
          "internalType": "uint256[]",
          "name": "currentWeights",
          "type": "uint256[]"
        },
        {
          "internalType": "uint256[]",
          "name": "targetWeights",
          "type": "uint256[]"
        },
        {
          "internalType": "uint256",
          "name": "tolerance",
          "type": "uint256"
        }
      ],
      "name": "validateRebalance",
      "outputs": [
        {
          "internalType": "bool",
          "name": "needsRebalance",
          "type": "bool"
        }
      ],
      "stateMutability": "pure",
      "type": "function"
    }
  ],
  "bytecode": "0x60808060405234610016576109d3908161001c8239f35b600080fdfe60406080815260048036101561001457600080fd5b6000803560e01c80632999fd89146105705780632da11015146104075780634abe757a146103e65763890583f11461004b57600080fd5b346103e3579061005a3661067b565b94909561006a845184511461079c565b61007784518851146107e8565b8194829483965b85518810156100ba576100ad6100a26100b39261009b8b8a610859565b5190610932565b9761009b8a8d610859565b97610834565b969561007e565b90888a969392886127108092036103955703610348578593825160019481861b91808304600214901517156103355750848994899489946100fb8a9561093f565b9787995b610160575b505050505090919293506101178161093f565b925b8181106101315782518061012d8682610731565b0390f35b8061013f61015b9287610859565b5161014a8287610859565b526101558186610859565b50610834565b610119565b83518a1015610330576101738a83610859565b51610188846101828d85610859565b51610932565b106101a6575b61019c85969798999a610834565b99989796956100ff565b6101c56101b38b84610859565b516101be8c84610859565b5190610883565b88865b6101d4575b505061018e565b8599949198969b9a939795518110156102f85787898c8c8a6101f68686610859565b5161020b88610205898c610859565b51610883565b1161022f575b505050505061021f90610834565b8b96989194999597939a9b6101c8565b82918a8088958c94899f610255819a9b8f8b61024e816101be93610859565b5192610859565b9a8b81101561030857986102dc9a6102d1986102ca988c98610205986102c49761029261029a610155985b6001600160a01b039283908e89610859565b511696610859565b51166102a4610598565b948552602085015283015260608201526102be8383610859565b52610859565b9e610859565b918d610859565b52610182848c610859565b6102e6838b610859565b528911156102f85787898c8c8a610211565b8194999597939a9b9698506101cd565b508a986102dc9a6102d1986102ca988c98610205986102c49761029261029a61015598610280565b610104565b634e487b7160e01b895260119052602488fd5b845162461bcd60e51b8152602081850152602160248201527f546172676574207765696768747320646f6e27742073756d20746f20313030306044820152600360fc1b6064820152608490fd5b865162461bcd60e51b8152602081870152602260248201527f43757272656e74207765696768747320646f6e27742073756d20746f20313030604482015261030360f41b6064820152608490fd5b80fd5b508234610403578160031936011261040357602090516101f48152f35b5080fd5b5090346104035760608060031936011261056c5781359167ffffffffffffffff808411610568573660238501121561056857838201359061044f61044a836105f4565b6105ce565b948583815260208091016024809560071b84010192368411610564578501905b8382106105185750505050604435908111610514576104919036908401610625565b508460649687833504965b86518110156105075787826104b1838a610859565b510152816104bf8289610859565b510151605f908181029181830414901517156104f45790896104ef9204876104e7838b610859565b510152610834565b61049c565b5050634e487b7160e01b82525060118352fd5b81518061012d8982610731565b8580fd5b608082360312610564578260809161052e610598565b6105378561060c565b815261054483860161060c565b838201528d80860135908201528a8501358b82015281520191019061046f565b8980fd5b8480fd5b8280fd5b5082346104035760209061058f6105863661067b565b92919091610890565b90519015158152f35b604051906080820182811067ffffffffffffffff8211176105b857604052565b634e487b7160e01b600052604160045260246000fd5b6040519190601f01601f1916820167ffffffffffffffff8111838210176105b857604052565b67ffffffffffffffff81116105b85760051b60200190565b35906001600160a01b038216820361062057565b600080fd5b9080601f830112156106205781359061064061044a836105f4565b9182938184526020808095019260051b820101928311610620578301905b82821061066c575050505090565b8135815290830190830161065e565b60806003198201126106205767ffffffffffffffff916004358381116106205782602382011215610620578060040135906106b861044a836105f4565b908192808352602460208094019160051b8301019186831161062057602401905b82821061071a57505050509260243581811161062057836106fc91600401610625565b926044359182116106205761071391600401610625565b9060643590565b8380916107268461060c565b8152019101906106d9565b60208082019080835283518092528060408094019401926000905b83821061075b57505050505090565b845180516001600160a01b0390811688528185015116878501528082015187830152606090810151908701526080909501949382019360019091019061074c565b156107a357565b60405162461bcd60e51b815260206004820152601760248201527f4173736574732f77656967687473206d69736d617463680000000000000000006044820152606490fd5b156107ef57565b60405162461bcd60e51b815260206004820152601760248201527f5461726765742077656967687473206d69736d617463680000000000000000006044820152606490fd5b60001981146108435760010190565b634e487b7160e01b600052601160045260246000fd5b805182101561086d5760209160051b010190565b634e487b7160e01b600052603260045260246000fd5b9190820391821161084357565b929161089f845183511461079c565b6108ac84518251146107e8565b60005b8451811015610928576108c28184610859565b516108cd8284610859565b51101561090a57836108ed6108e28386610859565b516101be8486610859565b11610900576108fb90610834565b6108af565b5050505050600190565b836109236109188385610859565b516101be8487610859565b6108ed565b5050505050600090565b9190820180921161084357565b9061094c61044a836105f4565b828152809261095d601f19916105f4565b019060005b82811061096e57505050565b602090610979610598565b6000815282600081830152600060408301526000606083015282850101520161096256fea2646970667358221220b2f5878d442b3742ada203f2d2dfe2c876b1ac0d26aca8fd0f6047a8734ba85e64736f6c63430008130033",
  "linkReferences": {},
  "deployedLinkReferences": {}
}