{
  "_format": "hh-sol-artifact-1",
  "contractName": "FeeCollector",
  "sourceName": "contracts/FeeCollector.sol",
  "abi": [
    {
      "anonymous": false,
      "inputs": [
        {
          "indexed": true,
          "internalType": "address",
          "name": "fund",
          "type": "address"
        },
        {
          "indexed": true,
          "internalType": "address",
          "name": "token",
          "type": "address"
        },
        {
          "indexed": false,
          "internalType": "uint256",
          "name": "amount",
          "type": "uint256"
        }
      ],
      "name": "FeeCollected",
      "type": "event"
    },
    {
      "anonymous": false,
      "inputs": [
        {
          "indexed": true,
          "internalType": "address",
          "name": "token",
          "type": "address"
        },
        {
          "indexed": false,
          "internalType": "uint256",
          "name": "amount",
          "type": "uint256"
        },
        {
          "indexed": true,
          "internalType": "address",
          "name": "recipient",
          "type": "address"
        }
      ],
      "name": "FeeWithdrawn",
      "type": "event"
    },
    {
      "anonymous": false,
      "inputs": [
        {
          "indexed": true,
          "internalType": "address",
          "name": "previousOwner",
          "type": "address"
        },
        {
          "indexed": true,
          "internalType": "address",
          "name": "newOwner",
          "type": "address"
        }
      ],
      "name": "OwnershipTransferred",
      "type": "event"
    },
    {
      "inputs": [
        {
          "internalType": "address",
          "name": "",
          "type": "address"
        }
      ],
      "name": "accruedFees",
      "outputs": [
        {
          "internalType": "uint256",
          "name": "",
          "type": "uint256"
        }
      ],
      "stateMutability": "view",
      "type": "function"
    },
    {
      "inputs": [
        {
          "internalType": "address",
          "name": "token",
          "type": "address"
        }
      ],
      "name": "addSupportedToken",
      "outputs": [],
      "stateMutability": "nonpayable",
      "type": "function"
    },
    {
      "inputs": [
        {
          "internalType": "address",
          "name": "fund",
          "type": "address"
        }
      ],
      "name": "collectManagementFee",
      "outputs": [
        {
          "internalType": "uint256",
          "name": "feeAmount",
          "type": "uint256"
        }
      ],
      "stateMutability": "nonpayable",
      "type": "function"
    },
    {
      "inputs": [
        {
          "internalType": "address",
          "name": "fund",
          "type": "address"
        }
      ],
      "name": "collectPerformanceFee",
      "outputs": [
        {
          "internalType": "uint256",
          "name": "feeAmount",
          "type": "uint256"
        }
      ],
      "stateMutability": "nonpayable",
      "type": "function"
    },
    {
      "inputs": [
        {
          "internalType": "address",
          "name": "",
          "type": "address"
        },
        {
          "internalType": "address",
          "name": "",
          "type": "address"
        }
      ],
      "name": "fundFees",
      "outputs": [
        {
          "internalType": "uint256",
          "name": "",
          "type": "uint256"
        }
      ],
      "stateMutability": "view",
      "type": "function"
    },
    {
      "inputs": [
        {
          "internalType": "address",
          "name": "token",
          "type": "address"
        }
      ],
      "name": "getAccruedFees",
      "outputs": [
        {
          "internalType": "uint256",
          "name": "",
          "type": "uint256"
        }
      ],
      "stateMutability": "view",
      "type": "function"
    },
    {
      "inputs": [
        {
          "internalType": "address",
          "name": "fund",
          "type": "address"
        },
        {
          "internalType": "address",
          "name": "token",
          "type": "address"
        }
      ],
      "name": "getFundFees",
      "outputs": [
        {
          "internalType": "uint256",
          "name": "",
          "type": "uint256"
        }
      ],
      "stateMutability": "view",
      "type": "function"
    },
    {
      "inputs": [],
      "name": "getSupportedTokensCount",
      "outputs": [
        {
          "internalType": "uint256",
          "name": "",
          "type": "uint256"
        }
      ],
      "stateMutability": "view",
      "type": "function"
    },
    {
      "inputs": [
        {
          "internalType": "address",
          "name": "",
          "type": "address"
        }
      ],
      "name": "isSupportedToken",
      "outputs": [
        {
          "internalType": "bool",
          "name": "",
          "type": "bool"
        }
      ],
      "stateMutability": "view",
      "type": "function"
    },
    {
      "inputs": [],
      "name": "owner",
      "outputs": [
        {
          "internalType": "address",
          "name": "",
          "type": "address"
        }
      ],
      "stateMutability": "view",
      "type": "function"
    },
    {
      "inputs": [
        {
          "internalType": "address",
          "name": "token",
          "type": "address"
        }
      ],
      "name": "removeSupportedToken",
      "outputs": [],
      "stateMutability": "nonpayable",
      "type": "function"
    },
    {
      "inputs": [],
      "name": "renounceOwnership",
      "outputs": [],
      "stateMutability": "nonpayable",
      "type": "function"
    },
    {
      "inputs": [
        {
          "internalType": "uint256",
          "name": "",
          "type": "uint256"
        }
      ],
      "name": "supportedTokens",
      "outputs": [
        {
          "internalType": "address",
          "name": "",
          "type": "address"
        }
      ],
      "stateMutability": "view",
      "type": "function"
    },
    {
      "inputs": [
        {
          "internalType": "address",
          "name": "newOwner",
          "type": "address"
        }
      ],
      "name": "transferOwnership",
      "outputs": [],
      "stateMutability": "nonpayable",
      "type": "function"
    },
    {
      "inputs": [
        {
          "internalType": "address",
          "name": "token",
          "type": "address"
        }
      ],
      "name": "withdrawFees",
      "outputs": [],
      "stateMutability": "nonpayable",
      "type": "function"
    }
  ],
  "bytecode": "0x6080806040523461005f5760008054336001600160a01b0319821681178355916001600160a01b03909116907f8be0079c531659141344cd1fd0a4f28419497f9722a3daafe3b4186f6b6457e09080a36001805561092c90816100658239f35b600080fdfe6080604081815260048036101561001557600080fd5b600092833560e01c908163073112831461079657508063164e68de146105f15780631d163923146105d4578063240028e81461059657806348b3f44c1461021d5780634a4253871461055e5780636d69fcaf1461044f578063715018a6146103f5578063763191901461027757806379a3abd5146101d05780638da5cb5b1461024f578063937f6e7c1461021d578063babf3d71146101d0578063c62556261461018d5763f2fde38b146100c857600080fd5b34610189576020366003190112610189576100e16107ca565b906100ea610848565b6001600160a01b0391821692831561013757505082546001600160a01b0319811683178455167f8be0079c531659141344cd1fd0a4f28419497f9722a3daafe3b4186f6b6457e08380a380f35b906020608492519162461bcd60e51b8352820152602660248201527f4f776e61626c653a206e6577206f776e657220697320746865207a65726f206160448201526564647265737360d01b6064820152fd5b8280fd5b5091346101cd5760203660031901126101cd57823592548310156101cd57506101b76020926107fb565b905491519160018060a01b039160031b1c168152f35b80fd5b505034610219578060031936011261021957806020926101ee6107ca565b6101f66107e5565b6001600160a01b0391821683526003865283832091168252845220549051908152f35b5080fd5b505034610219576020366003190112610219579060209161023c6107ca565b506102456108a0565b6001805551908152f35b505034610219578160031936011261021957905490516001600160a01b039091168152602090f35b50829034610219576020366003190112610219576102936107ca565b61029b610848565b6001600160a01b0390811680845260056020528484205490949060ff16156103bd5784845260056020528320805460ff19169055825b8254808210156103b4578290866102e7846107fb565b939054600394851b1c161461031c5750506000198114610309576001016102d1565b634e487b7160e01b845260118352602484fd5b9495509360001991908281019081116103a1579061034d8461034061036c946107fb565b905490891b1c16916107fb565b90919082549060031b9160018060a01b03809116831b921b1916179055565b8254801561038e57019261037f846107fb565b81939154921b1b191690555580f35b634e487b7160e01b865260318452602486fd5b634e487b7160e01b875260118552602487fd5b50505050905080f35b5162461bcd60e51b81526020818401526013602482015272151bdad95b881b9bdd081cdd5c1c1bdc9d1959606a1b6044820152606490fd5b83346101cd57806003193601126101cd5761040e610848565b80546001600160a01b03198116825581906001600160a01b03167f8be0079c531659141344cd1fd0a4f28419497f9722a3daafe3b4186f6b6457e08280a380f35b509190346102195760203660031901126102195761046b6107ca565b610473610848565b6001600160a01b03811690811561052b57818452600560205260ff83852054166104e8578454680100000000000000008110156104d5579061034d828760016104be950190556107fb565b825260056020528120805460ff1916600117905580f35b634e487b7160e01b855260418652602485fd5b825162461bcd60e51b8152602081870152601760248201527f546f6b656e20616c726561647920737570706f727465640000000000000000006044820152606490fd5b825162461bcd60e51b8152602081870152600d60248201526c24b73b30b634b2103a37b5b2b760991b6044820152606490fd5b5050346102195760203660031901126102195760209181906001600160a01b036105866107ca565b1681526002845220549051908152f35b5050346102195760203660031901126102195760209160ff9082906001600160a01b036105c16107ca565b1681526005855220541690519015158152f35b503461018957826003193601126101895760209250549051908152f35b5034610189576020806003193601126107925761060c6107ca565b91610615610848565b61061d6108a0565b6001600160a01b039283168086526002835284862054909390918215610759578487526002845286868120558187541686519063a9059cbb60e01b82528282015283602482015284816044818b8a5af190811561074f5788916106eb575b50156106b65750907ff3a15b70ef42163a42bbb07edb60d02f31fd11d394c9326022f78e1c7e12f68592918654169451908152a36001805580f35b855162461bcd60e51b8152908101849052600f60248201526e151c985b9cd9995c8819985a5b1959608a1b6044820152606490fd5b9050843d8611610748575b601f8101601f1916820167ffffffffffffffff81118382101761073557869183918a528101031261073157518015158103610731573861067b565b8780fd5b634e487b7160e01b8a526041845260248afd5b503d6106f6565b87513d8a823e3d90fd5b855162461bcd60e51b815290810184905260136024820152724e6f206665657320746f20776974686472617760681b6044820152606490fd5b8380fd5b84908434610189576020366003190112610189576020926001600160a01b036107bd6107ca565b1681526002845220548152f35b600435906001600160a01b03821682036107e057565b600080fd5b602435906001600160a01b03821682036107e057565b6004548110156108325760046000527f8a35acfbc15ff81a39ae7d344fd709f28e8600b4aa8c65c6b64bfe7fe36bd19b0190600090565b634e487b7160e01b600052603260045260246000fd5b6000546001600160a01b0316330361085c57565b606460405162461bcd60e51b815260206004820152602060248201527f4f776e61626c653a2063616c6c6572206973206e6f7420746865206f776e65726044820152fd5b6002600154146108b1576002600155565b60405162461bcd60e51b815260206004820152601f60248201527f5265656e7472616e637947756172643a207265656e7472616e742063616c6c006044820152606490fdfea26469706673582212205ff59614e3fc671de9f97b6366450f9607810ca7d8dda16795a6e61d897e134064736f6c63430008130033",
  "linkReferences": {},
  "deployedLinkReferences": {}
}