{
  "_format": "hh-sol-artifact-1",
  "contractName": "DEXRouter",
  "sourceName": "contracts/DEXRouter.sol",
  "abi": [
    {
      "inputs": [
        {
          "internalType": "address",
          "name": "_pancakeRouter",
          "type": "address"
        },
        {
          "internalType": "address",
          "name": "_oneInchRouter",
          "type": "address"
        },
        {
          "internalType": "address",
          "name": "_paraSwapRouter",
          "type": "address"
        }
      ],
      "stateMutability": "nonpayable",
      "type": "constructor"
    },
    {
      "anonymous": false,
      "inputs": [
        {
          "indexed": true,
          "internalType": "address",
          "name": "previousOwner",
          "type": "address"
        },
        {
          "indexed": true,
          "internalType": "address",
          "name": "newOwner",
          "type": "address"
        }
      ],
      "name": "OwnershipTransferred",
      "type": "event"
    },
    {
      "anonymous": false,
      "inputs": [
        {
          "indexed": true,
          "internalType": "string",
          "name": "dex",
          "type": "string"
        },
        {
          "indexed": true,
          "internalType": "address",
          "name": "router",
          "type": "address"
        }
      ],
      "name": "RouterUpdated",
      "type": "event"
    },
    {
      "inputs": [],
      "name": "MAX_SLIPPAGE",
      "outputs": [
        {
          "internalType": "uint256",
          "name": "",
          "type": "uint256"
        }
      ],
      "stateMutability": "view",
      "type": "function"
    },
    {
      "inputs": [
        {
          "internalType": "address",
          "name": "fromToken",
          "type": "address"
        },
        {
          "internalType": "address",
          "name": "toToken",
          "type": "address"
        },
        {
          "internalType": "uint256",
          "name": "amountIn",
          "type": "uint256"
        }
      ],
      "name": "getBestRoute",
      "outputs": [
        {
          "internalType": "address[]",
          "name": "path",
          "type": "address[]"
        }
      ],
      "stateMutability": "view",
      "type": "function"
    },
    {
      "inputs": [],
      "name": "oneInchRouter",
      "outputs": [
        {
          "internalType": "address",
          "name": "",
          "type": "address"
        }
      ],
      "stateMutability": "view",
      "type": "function"
    },
    {
      "inputs": [],
      "name": "owner",
      "outputs": [
        {
          "internalType": "address",
          "name": "",
          "type": "address"
        }
      ],
      "stateMutability": "view",
      "type": "function"
    },
    {
      "inputs": [],
      "name": "pancakeRouter",
      "outputs": [
        {
          "internalType": "address",
          "name": "",
          "type": "address"
        }
      ],
      "stateMutability": "view",
      "type": "function"
    },
    {
      "inputs": [],
      "name": "paraSwapRouter",
      "outputs": [
        {
          "internalType": "address",
          "name": "",
          "type": "address"
        }
      ],
      "stateMutability": "view",
      "type": "function"
    },
    {
      "inputs": [],
      "name": "renounceOwnership",
      "outputs": [],
      "stateMutability": "nonpayable",
      "type": "function"
    },
    {
      "inputs": [
        {
          "internalType": "address",
          "name": "fromToken",
          "type": "address"
        },
        {
          "internalType": "address",
          "name": "toToken",
          "type": "address"
        },
        {
          "internalType": "uint256",
          "name": "amountIn",
          "type": "uint256"
        },
        {
          "internalType": "uint256",
          "name": "maxSlippage",
          "type": "uint256"
        }
      ],
      "name": "swapWithSlippageProtection",
      "outputs": [
        {
          "internalType": "uint256",
          "name": "amountOut",
          "type": "uint256"
        }
      ],
      "stateMutability": "nonpayable",
      "type": "function"
    },
    {
      "inputs": [
        {
          "internalType": "address",
          "name": "newOwner",
          "type": "address"
        }
      ],
      "name": "transferOwnership",
      "outputs": [],
      "stateMutability": "nonpayable",
      "type": "function"
    },
    {
      "inputs": [
        {
          "internalType": "string",
          "name": "dex",
          "type": "string"
        },
        {
          "internalType": "address",
          "name": "router",
          "type": "address"
        }
      ],
      "name": "updateRouter",
      "outputs": [],
      "stateMutability": "nonpayable",
      "type": "function"
    }
  ],
  "bytecode": "0x6080346100dc57601f610a4b38819003918201601f19168301916001600160401b038311848410176100e1578084926060946040528339810103126100dc57610047816100f7565b61005f6040610058602085016100f7565b93016100f7565b600080546001600160a01b03198082163390811784556040519691956001600160a01b0395948694859391908416907f8be0079c531659141344cd1fd0a4f28419497f9722a3daafe3b4186f6b6457e09080a316856001541617600155168360025416176002551690600354161760035561093f908161010c8239f35b600080fd5b634e487b7160e01b600052604160045260246000fd5b51906001600160a01b03821682036100dc5756fe608060408181526004918236101561001657600080fd5b600092833560e01c9182634a5a72701461057357508163715018a6146105165781637cf0c7ee146102905781638da5cb5b1461026857816396f2648e1461023f578163ac3af20814610216578163c21ebd07146101ed578163f2fde38b1461012657508063f97595181461010a5763faa55b6d1461009357600080fd5b34610106576060366003190112610106576100bd6100af6107c4565b6100b76107df565b906108a1565b815192839260208080860192818752855180945286019401925b8281106100e657505050500390f35b83516001600160a01b0316855286955093810193928101926001016100d7565b5080fd5b5034610106578160031936011261010657602090516103e88152f35b9050346101e95760203660031901126101e9576101416107c4565b9061014a610849565b6001600160a01b0391821692831561019757505082546001600160a01b0319811683178455167f8be0079c531659141344cd1fd0a4f28419497f9722a3daafe3b4186f6b6457e08380a380f35b906020608492519162461bcd60e51b8352820152602660248201527f4f776e61626c653a206e6577206f776e657220697320746865207a65726f206160448201526564647265737360d01b6064820152fd5b8280fd5b50503461010657816003193601126101065760015490516001600160a01b039091168152602090f35b50503461010657816003193601126101065760025490516001600160a01b039091168152602090f35b50503461010657816003193601126101065760035490516001600160a01b039091168152602090f35b505034610106578160031936011261010657905490516001600160a01b039091168152602090f35b9050346101e957816003193601126101e95780359067ffffffffffffffff92838311610512573660238401121561051257828201359384116104ff57805191856020946102e686601f19601f8a01160186610827565b8685528585019636602482840101116101e95780602488930189378501015261030d6107df565b610315610849565b6001600160a01b03169485156104cc577f37e12c06df127fbd6899289cdd9fb12efc8e54dd30f4ddb20a77b4131e042437845182206670616e63616b6560c81b878651610361816107f5565b600781520152036103da575050600180546001600160a01b031916851790559091905b51918291815191865b8381106103c65750505081018481520390207f1f95b6c427a121778abffcfd490f3c1dfad8b3c0b1cced39b53c78240bd48e668380a380f35b81810183015186820152859450820161038d565b7fd9bf0c0ec020d1a26ba6698a24db3a538215d8fbf30588bddde694887c4cb55e8451822064062d2dcc6d60db1b878651610414816107f5565b6005815201520361043c575050600280546001600160a01b031916851790555b919091610384565b7f5920724cdd5301d4429f5f97906f435392e6e5676116c66304576305257afab5908451902067070617261737761760c41b86855161047a816107f5565b6008815201520361049d5750600380546001600160a01b03191685179055610434565b83606492519162461bcd60e51b8352820152600b60248201526a0aadcd6dcdeeedc40888ab60ab1b6044820152fd5b5083606492519162461bcd60e51b8352820152600e60248201526d24b73b30b634b2103937baba32b960911b6044820152fd5b634e487b7160e01b855260418252602485fd5b8480fd5b833461057057806003193601126105705761052f610849565b80546001600160a01b03198116825581906001600160a01b03167f8be0079c531659141344cd1fd0a4f28419497f9722a3daafe3b4186f6b6457e08280a380f35b80fd5b90929150346107c05760803660031901126107c0576105906107c4565b926105996107df565b9160449081356064948535926103e8841161078d5750811561075d576105bf90886108a1565b91600283511061072b57612710908103818111610718578083029083820403610718579089939291049787519163095ea7b360e01b83523087840152602483015281858160209c8d9460018060a01b03165af190811561070e5783916106d8575b50156106a5575160020361069257600186019081871161067f5750945b851061064c5750505051908152f35b835162461bcd60e51b8152918201869052601160248301527014db1a5c1c1859d948195e18d959591959607a1b90820152fd5b634e487b7160e01b815260118452602490fd5b600186019081871161067f57509461063d565b5050835162461bcd60e51b8152918201869052600f60248301526e105c1c1c9bdd985b0819985a5b1959608a1b90820152fd5b90508881813d8311610707575b6106ef8183610827565b810103126101e9575180151581036101e95738610620565b503d6106e5565b87513d85823e3d90fd5b634e487b7160e01b8a526011865260248afd5b5050506c496e76616c696420726f75746560981b90602085519362461bcd60e51b8552840152600d6024840152820152fd5b5050506a16995c9bc8185b5bdd5b9d60aa1b90602085519362461bcd60e51b8552840152600b6024840152820152fd5b62461bcd60e51b815260208682015260116024820152700a6d8d2e0e0c2ceca40e8dede40d0d2ced607b1b858201528690fd5b8380fd5b600435906001600160a01b03821682036107da57565b600080fd5b602435906001600160a01b03821682036107da57565b6040810190811067ffffffffffffffff82111761081157604052565b634e487b7160e01b600052604160045260246000fd5b90601f8019910116810190811067ffffffffffffffff82111761081157604052565b6000546001600160a01b0316330361085d57565b606460405162461bcd60e51b815260206004820152602060248201527f4f776e61626c653a2063616c6c6572206973206e6f7420746865206f776e65726044820152fd5b604051916060830183811067ffffffffffffffff82111761081157604052600283526020830160403682378351156108f3576001600160a01b0392831690528251600110156108f35716604082015290565b634e487b7160e01b600052603260045260246000fdfea26469706673582212202adf5943836a0eb201498cfd4c991a445b2484b06296ea72a602ef3dce68b9e164736f6c63430008130033",
  "linkReferences": {},
  "deployedLinkReferences": {}
}