{
  "_format": "hh-sol-artifact-1",
  "contractName": "EmergencyModule",
  "sourceName": "contracts/EmergencyModule.sol",
  "abi": [
    {
      "inputs": [
        {
          "internalType": "address",
          "name": "_multisig",
          "type": "address"
        }
      ],
      "stateMutability": "nonpayable",
      "type": "constructor"
    },
    {
      "anonymous": false,
      "inputs": [
        {
          "indexed": true,
          "internalType": "address",
          "name": "fund",
          "type": "address"
        },
        {
          "indexed": false,
          "internalType": "string",
          "name": "reason",
          "type": "string"
        }
      ],
      "name": "EmergencyActivated",
      "type": "event"
    },
    {
      "anonymous": false,
      "inputs": [
        {
          "indexed": true,
          "internalType": "address",
          "name": "fund",
          "type": "address"
        }
      ],
      "name": "EmergencyDeactivated",
      "type": "event"
    },
    {
      "anonymous": false,
      "inputs": [
        {
          "indexed": true,
          "internalType": "address",
          "name": "fund",
          "type": "address"
        }
      ],
      "name": "FundPaused",
      "type": "event"
    },
    {
      "anonymous": false,
      "inputs": [
        {
          "indexed": true,
          "internalType": "address",
          "name": "fund",
          "type": "address"
        }
      ],
      "name": "FundUnpaused",
      "type": "event"
    },
    {
      "anonymous": false,
      "inputs": [
        {
          "indexed": true,
          "internalType": "address",
          "name": "previousOwner",
          "type": "address"
        },
        {
          "indexed": true,
          "internalType": "address",
          "name": "newOwner",
          "type": "address"
        }
      ],
      "name": "OwnershipTransferred",
      "type": "event"
    },
    {
      "inputs": [],
      "name": "EMERGENCY_THRESHOLD",
      "outputs": [
        {
          "internalType": "uint256",
          "name": "",
          "type": "uint256"
        }
      ],
      "stateMutability": "view",
      "type": "function"
    },
    {
      "inputs": [
        {
          "internalType": "address",
          "name": "fund",
          "type": "address"
        }
      ],
      "name": "disableEmergency",
      "outputs": [],
      "stateMutability": "nonpayable",
      "type": "function"
    },
    {
      "inputs": [
        {
          "internalType": "address",
          "name": "",
          "type": "address"
        }
      ],
      "name": "emergencyMode",
      "outputs": [
        {
          "internalType": "bool",
          "name": "",
          "type": "bool"
        }
      ],
      "stateMutability": "view",
      "type": "function"
    },
    {
      "inputs": [
        {
          "internalType": "address",
          "name": "fund",
          "type": "address"
        }
      ],
      "name": "emergencyPause",
      "outputs": [],
      "stateMutability": "nonpayable",
      "type": "function"
    },
    {
      "inputs": [
        {
          "internalType": "address",
          "name": "fund",
          "type": "address"
        }
      ],
      "name": "emergencyUnpause",
      "outputs": [],
      "stateMutability": "nonpayable",
      "type": "function"
    },
    {
      "inputs": [
        {
          "internalType": "address",
          "name": "fund",
          "type": "address"
        },
        {
          "internalType": "address",
          "name": "token",
          "type": "address"
        },
        {
          "internalType": "address",
          "name": "recipient",
          "type": "address"
        },
        {
          "internalType": "uint256",
          "name": "amount",
          "type": "uint256"
        }
      ],
      "name": "emergencyWithdraw",
      "outputs": [],
      "stateMutability": "nonpayable",
      "type": "function"
    },
    {
      "inputs": [
        {
          "internalType": "address",
          "name": "fund",
          "type": "address"
        }
      ],
      "name": "enableEmergency",
      "outputs": [],
      "stateMutability": "nonpayable",
      "type": "function"
    },
    {
      "inputs": [
        {
          "internalType": "address",
          "name": "fund",
          "type": "address"
        }
      ],
      "name": "isEmergency",
      "outputs": [
        {
          "internalType": "bool",
          "name": "",
          "type": "bool"
        }
      ],
      "stateMutability": "view",
      "type": "function"
    },
    {
      "inputs": [
        {
          "internalType": "address",
          "name": "fund",
          "type": "address"
        }
      ],
      "name": "isPaused",
      "outputs": [
        {
          "internalType": "bool",
          "name": "",
          "type": "bool"
        }
      ],
      "stateMutability": "view",
      "type": "function"
    },
    {
      "inputs": [
        {
          "internalType": "address",
          "name": "",
          "type": "address"
        }
      ],
      "name": "lastKnownPrices",
      "outputs": [
        {
          "internalType": "uint256",
          "name": "",
          "type": "uint256"
        }
      ],
      "stateMutability": "view",
      "type": "function"
    },
    {
      "inputs": [],
      "name": "multisig",
      "outputs": [
        {
          "internalType": "address",
          "name": "",
          "type": "address"
        }
      ],
      "stateMutability": "view",
      "type": "function"
    },
    {
      "inputs": [],
      "name": "owner",
      "outputs": [
        {
          "internalType": "address",
          "name": "",
          "type": "address"
        }
      ],
      "stateMutability": "view",
      "type": "function"
    },
    {
      "inputs": [
        {
          "internalType": "address",
          "name": "",
          "type": "address"
        }
      ],
      "name": "pausedFunds",
      "outputs": [
        {
          "internalType": "bool",
          "name": "",
          "type": "bool"
        }
      ],
      "stateMutability": "view",
      "type": "function"
    },
    {
      "inputs": [
        {
          "internalType": "address",
          "name": "",
          "type": "address"
        }
      ],
      "name": "priceCheckTimestamps",
      "outputs": [
        {
          "internalType": "uint256",
          "name": "",
          "type": "uint256"
        }
      ],
      "stateMutability": "view",
      "type": "function"
    },
    {
      "inputs": [],
      "name": "renounceOwnership",
      "outputs": [],
      "stateMutability": "nonpayable",
      "type": "function"
    },
    {
      "inputs": [
        {
          "internalType": "address",
          "name": "newOwner",
          "type": "address"
        }
      ],
      "name": "transferOwnership",
      "outputs": [],
      "stateMutability": "nonpayable",
      "type": "function"
    },
    {
      "inputs": [
        {
          "internalType": "address",
          "name": "newMultisig",
          "type": "address"
        }
      ],
      "name": "updateMultisig",
      "outputs": [],
      "stateMutability": "nonpayable",
      "type": "function"
    },
    {
      "inputs": [
        {
          "internalType": "address",
          "name": "fund",
          "type": "address"
        }
      ],
      "name": "updatePriceCheck",
      "outputs": [],
      "stateMutability": "nonpayable",
      "type": "function"
    }
  ],
  "bytecode": "0x6080346100e657601f6109f638819003918201601f19168301916001600160401b038311848410176100eb578084926020946040528339810103126100e657516001600160a01b03808216918290036100e6576000549060018060a01b0319913383821617600055604051913391167f8be0079c531659141344cd1fd0a4f28419497f9722a3daafe3b4186f6b6457e0600080a382156100b1575060035416176003556040516108f490816101028239f35b62461bcd60e51b815260206004820152601060248201526f496e76616c6964206d756c746973696760801b6044820152606490fd5b600080fd5b634e487b7160e01b600052604160045260246000fdfe6080604081815260048036101561001557600080fd5b600092833560e01c908163087d31b71461079c5750806312bc9e5d1461067b5780632929c25c146107175780634783c35b146106ee578063506a5d96146106b95780635b14f1831461067b5780636fd368b0146105cf5780637041b48a14610502578063707b73a214610455578063715018a6146103fb5780638da5cb5b146103d35780639216267a146102f0578063a38292b5146102c1578063b5144ef31461028e578063b94cb90f14610228578063bb7a6004146101ea578063eb7d3a34146101ae5763f2fde38b146100e957600080fd5b346101aa5760203660031901126101aa576101026107b7565b9061010b6107d2565b6001600160a01b0391821692831561015857505082546001600160a01b0319811683178455167f8be0079c531659141344cd1fd0a4f28419497f9722a3daafe3b4186f6b6457e08380a380f35b906020608492519162461bcd60e51b8352820152602660248201527f4f776e61626c653a206e6577206f776e657220697320746865207a65726f206160448201526564647265737360d01b6064820152fd5b8280fd5b5050346101e65760203660031901126101e65760209181906001600160a01b036101d66107b7565b1681526005845220549051908152f35b5080fd5b5050346101e65760203660031901126101e65760209160ff9082906001600160a01b036102156107b7565b1681526001855220541690519015158152f35b5050346101e65760203660031901126101e6576102436107b7565b61024b6107d2565b6001600160a01b03168083526001602052908220805460ff191690557f58c23c36c22817a3e5aea11ee4ed5a1815c9770b63d1c162bbfc7a44668818958280a280f35b5050346101e65760203660031901126101e6576001600160a01b036102b16107b7565b1682526005602052429082205580f35b5050346101e65760203660031901126101e6576020906102e76102e26107b7565b61082a565b90519015158152f35b5082346103d05760803660031901126103d05761030b6107b7565b6001600160a01b0390602435828116036101aa57604435828116036101aa5791849160ff936103386107d2565b168152600160205220541615610396576020608492519162461bcd60e51b83528201526024808201527f456d657267656e6379207769746864726177616c206e6f7420696d706c656d656044820152631b9d195960e21b6064820152fd5b6020606492519162461bcd60e51b835282015260156024820152744e6f7420696e20656d657267656e6379206d6f646560581b6044820152fd5b80fd5b5050346101e657816003193601126101e657905490516001600160a01b039091168152602090f35b83346103d057806003193601126103d0576104146107d2565b80546001600160a01b03198116825581906001600160a01b03167f8be0079c531659141344cd1fd0a4f28419497f9722a3daafe3b4186f6b6457e08280a380f35b5050346101e65760203660031901126101e6577f63eb0f7af53ae164e5c99d224c844a1b380ec4b814a159b85f56312c9257ec6b60606104936107b7565b84546001600160a01b0391908216331480156104f5575b6104b390610881565b16928385526001602052808520600160ff198254161790557026b0b73ab0b61030b1ba34bb30ba34b7b760791b8151916020835260116020840152820152a280f35b50600354821633146104aa565b5090346101aa5760203660031901126101aa5761051d6107b7565b83546001600160a01b0391908216331480156105c2575b61053d90610881565b1691828452600260205260ff828520541661058f575081835260026020528220805460ff191660011790557f42a038564f3f5f6c8c03a7d705262b33cee47e12ea5650e2e0465e0a4e6cbcf88280a280f35b6020606492519162461bcd60e51b8352820152600e60248201526d105b1c9958591e481c185d5cd95960921b6044820152fd5b5060035482163314610534565b5090346101aa5760203660031901126101aa576105ea6107b7565b6105f26107d2565b6001600160a01b031680845260026020528184205490929060ff161561064c575081835260026020528220805460ff191690557f8800679dd6ecdeefaab625ef963f37d027e9507b225db7195b49b74ebe97e8158280a280f35b6020606492519162461bcd60e51b8352820152600a602482015269139bdd081c185d5cd95960b21b6044820152fd5b5050346101e65760203660031901126101e65760209160ff9082906001600160a01b036106a66107b7565b1681526002855220541690519015158152f35b50346101aa5760203660031901126101aa5760209282916001600160a01b036106e06107b7565b168252845220549051908152f35b5050346101e657816003193601126101e65760035490516001600160a01b039091168152602090f35b50346101aa5760203660031901126101aa576107316107b7565b6107396107d2565b6001600160a01b03169182156107665750506bffffffffffffffffffffffff60a01b600354161760035580f35b906020606492519162461bcd60e51b8352820152601060248201526f496e76616c6964206d756c746973696760801b6044820152fd5b8490346101e657816003193601126101e65780603260209252f35b600435906001600160a01b03821682036107cd57565b600080fd5b6000546001600160a01b031633036107e657565b606460405162461bcd60e51b815260206004820152602060248201527f4f776e61626c653a2063616c6c6572206973206e6f7420746865206f776e65726044820152fd5b6001600160a01b031660009081526001602052604081205460ff166108675760056020526040812054420342811161086d57610e10106108675790565b50600190565b634e487b7160e01b82526011600452602482fd5b1561088857565b60405162461bcd60e51b815260206004820152600e60248201526d139bdd08185d5d1a1bdc9a5e995960921b6044820152606490fdfea2646970667358221220a410c53debaa7415c080b99684410d843d4945f73e59b4b554e89993ab852fb864736f6c63430008130033",
  "linkReferences": {},
  "deployedLinkReferences": {}
}