{
  "_format": "hh-sol-artifact-1",
  "contractName": "PriceOracle",
  "sourceName": "contracts/PriceOracle.sol",
  "abi": [
    {
      "anonymous": false,
      "inputs": [
        {
          "indexed": true,
          "internalType": "address",
          "name": "asset",
          "type": "address"
        }
      ],
      "name": "AssetAdded",
      "type": "event"
    },
    {
      "anonymous": false,
      "inputs": [
        {
          "indexed": true,
          "internalType": "address",
          "name": "asset",
          "type": "address"
        }
      ],
      "name": "AssetRemoved",
      "type": "event"
    },
    {
      "anonymous": false,
      "inputs": [
        {
          "indexed": true,
          "internalType": "address",
          "name": "previousOwner",
          "type": "address"
        },
        {
          "indexed": true,
          "internalType": "address",
          "name": "newOwner",
          "type": "address"
        }
      ],
      "name": "OwnershipTransferred",
      "type": "event"
    },
    {
      "anonymous": false,
      "inputs": [
        {
          "indexed": true,
          "internalType": "address",
          "name": "asset",
          "type": "address"
        },
        {
          "indexed": false,
          "internalType": "address",
          "name": "chainlinkFeed",
          "type": "address"
        },
        {
          "indexed": false,
          "internalType": "address",
          "name": "binanceFeed",
          "type": "address"
        },
        {
          "indexed": false,
          "internalType": "address",
          "name": "pythFeed",
          "type": "address"
        }
      ],
      "name": "PriceFeedUpdated",
      "type": "event"
    },
    {
      "inputs": [],
      "name": "GRACE_PERIOD",
      "outputs": [
        {
          "internalType": "uint256",
          "name": "",
          "type": "uint256"
        }
      ],
      "stateMutability": "view",
      "type": "function"
    },
    {
      "inputs": [],
      "name": "MAX_PRICE_AGE",
      "outputs": [
        {
          "internalType": "uint256",
          "name": "",
          "type": "uint256"
        }
      ],
      "stateMutability": "view",
      "type": "function"
    },
    {
      "inputs": [
        {
          "internalType": "address",
          "name": "asset",
          "type": "address"
        },
        {
          "internalType": "address",
          "name": "chainlinkFeed",
          "type": "address"
        },
        {
          "internalType": "address",
          "name": "binanceFeed",
          "type": "address"
        },
        {
          "internalType": "address",
          "name": "pythFeed",
          "type": "address"
        }
      ],
      "name": "addAsset",
      "outputs": [],
      "stateMutability": "nonpayable",
      "type": "function"
    },
    {
      "inputs": [
        {
          "internalType": "address",
          "name": "asset",
          "type": "address"
        }
      ],
      "name": "getPrice",
      "outputs": [
        {
          "internalType": "uint256",
          "name": "",
          "type": "uint256"
        }
      ],
      "stateMutability": "view",
      "type": "function"
    },
    {
      "inputs": [
        {
          "internalType": "address",
          "name": "asset",
          "type": "address"
        }
      ],
      "name": "getPriceWithFallback",
      "outputs": [
        {
          "internalType": "uint256",
          "name": "price",
          "type": "uint256"
        },
        {
          "internalType": "bool",
          "name": "valid",
          "type": "bool"
        }
      ],
      "stateMutability": "view",
      "type": "function"
    },
    {
      "inputs": [],
      "name": "getSupportedAssetsCount",
      "outputs": [
        {
          "internalType": "uint256",
          "name": "",
          "type": "uint256"
        }
      ],
      "stateMutability": "view",
      "type": "function"
    },
    {
      "inputs": [],
      "name": "owner",
      "outputs": [
        {
          "internalType": "address",
          "name": "",
          "type": "address"
        }
      ],
      "stateMutability": "view",
      "type": "function"
    },
    {
      "inputs": [
        {
          "internalType": "address",
          "name": "",
          "type": "address"
        }
      ],
      "name": "priceFeeds",
      "outputs": [
        {
          "internalType": "address",
          "name": "chainlinkFeed",
          "type": "address"
        },
        {
          "internalType": "address",
          "name": "binanceFeed",
          "type": "address"
        },
        {
          "internalType": "address",
          "name": "pythFeed",
          "type": "address"
        },
        {
          "internalType": "uint256",
          "name": "heartbeat",
          "type": "uint256"
        },
        {
          "internalType": "bool",
          "name": "active",
          "type": "bool"
        }
      ],
      "stateMutability": "view",
      "type": "function"
    },
    {
      "inputs": [
        {
          "internalType": "address",
          "name": "asset",
          "type": "address"
        }
      ],
      "name": "removeAsset",
      "outputs": [],
      "stateMutability": "nonpayable",
      "type": "function"
    },
    {
      "inputs": [],
      "name": "renounceOwnership",
      "outputs": [],
      "stateMutability": "nonpayable",
      "type": "function"
    },
    {
      "inputs": [
        {
          "internalType": "uint256",
          "name": "",
          "type": "uint256"
        }
      ],
      "name": "supportedAssets",
      "outputs": [
        {
          "internalType": "address",
          "name": "",
          "type": "address"
        }
      ],
      "stateMutability": "view",
      "type": "function"
    },
    {
      "inputs": [
        {
          "internalType": "address",
          "name": "newOwner",
          "type": "address"
        }
      ],
      "name": "transferOwnership",
      "outputs": [],
      "stateMutability": "nonpayable",
      "type": "function"
    },
    {
      "inputs": [
        {
          "internalType": "address",
          "name": "asset",
          "type": "address"
        },
        {
          "internalType": "address",
          "name": "feed",
          "type": "address"
        }
      ],
      "name": "updatePriceFeed",
      "outputs": [],
      "stateMutability": "nonpayable",
      "type": "function"
    },
    {
      "inputs": [
        {
          "internalType": "address",
          "name": "asset",
          "type": "address"
        },
        {
          "internalType": "address",
          "name": "chainlinkFeed",
          "type": "address"
        },
        {
          "internalType": "address",
          "name": "binanceFeed",
          "type": "address"
        },
        {
          "internalType": "address",
          "name": "pythFeed",
          "type": "address"
        },
        {
          "internalType": "uint256",
          "name": "heartbeat",
          "type": "uint256"
        }
      ],
      "name": "updatePriceFeeds",
      "outputs": [],
      "stateMutability": "nonpayable",
      "type": "function"
    }
  ],
  "bytecode": "0x6080806040523461005b5760008054336001600160a01b0319821681178355916001600160a01b03909116907f8be0079c531659141344cd1fd0a4f28419497f9722a3daafe3b4186f6b6457e09080a3610be990816100618239f35b600080fdfe6040608081526004908136101561001557600080fd5b600091823560e01c806341976e09146108825780634a5e42b1146106fc57806368625807146106dd578063715018a6146106835780638da5cb5b1461065b57806395688c39146106295780639d7f7e861461060c5780639dcb511a1461059d578063b7997da1146104d1578063c1a287e2146104b0578063c621c3cc1461033a578063c68dbb37146102f7578063e7fb9029146101805763f2fde38b146100bb57600080fd5b3461017c57602036600319011261017c576100d46108ec565b906100dd610996565b6001600160a01b0391821692831561012a57505082546001600160a01b0319811683178455167f8be0079c531659141344cd1fd0a4f28419497f9722a3daafe3b4186f6b6457e08380a380f35b906020608492519162461bcd60e51b8352820152602660248201527f4f776e61626c653a206e6577206f776e657220697320746865207a65726f206160448201526564647265737360d01b6064820152fd5b8280fd5b503461017c57608036600319011261017c5761019a6108ec565b906101a3610907565b906101ac61091d565b936101b5610933565b6101bd610996565b6001600160a01b0385811696906101d5881515610ae6565b878952600160205260ff85858b200154166102b45792610288949289928561028d9998966102016109ee565b971687528060208801921682528084880193168352806060880194610e1086528c60808a0197600189525260016020528d20975116916bffffffffffffffffffffffff60a01b9283895416178855816001890191511683825416179055600287019251169082541617905551600384015551151591019060ff801983541691151516179055565b610b22565b7f0e3c58ebfb2e7465fbb1c32e6b4f40c3c4f5ca77e8218a386aff8617831260d78280a280f35b835162461bcd60e51b8152602081870152601760248201527f417373657420616c726561647920737570706f727465640000000000000000006044820152606490fd5b503461017c57602036600319011261017c5735916002548310156103375750610321602092610949565b905491519160018060a01b039160031b1c168152f35b80fd5b503461017c5760a036600319011261017c577f906bb5559b8879b8758fe20027afedd75eda88c66cdacf37012188f1e517742a906103766108ec565b90610496610382610907565b918561046f61038f61091d565b95610398610933565b938a6084356103a5610996565b60018060a01b039360ff848683169e8f956103c1871515610ae6565b868152600160205220015416156104a1575b508061049c5750610e105b8c6103e76109ee565b94808b1686526020860190808d168252808980890194828d16865260608a0196875260808a0197600189528152600160205220975116916bffffffffffffffffffffffff60a01b9283895416178855816001890191511683825416179055600287019251169082541617905551600384015551151591019060ff801983541691151516179055565b516001600160a01b0393841681529383166020850152909116604083015281906060820190565b0390a280f35b6103de565b6104aa90610b22565b386103d3565b5050346104cd57816003193601126104cd576020905161012c8152f35b5080fd5b50903461017c578060031936011261017c577f906bb5559b8879b8758fe20027afedd75eda88c66cdacf37012188f1e517742a9061050d6108ec565b90610496610519610907565b91610522610996565b6001600160a01b039384168088526001602052818820909601546105489060ff16610a24565b8587526001602081815282892080546001600160a01b0319168688161781559182015460029092015492516001600160a01b039586168152918616851690820152931691909116604083015281906060820190565b503461017c57602036600319011261017c5760a0926001600160a01b0391908390836105c76108ec565b16815260016020522090828254169360ff8460018501541694600285015416926003850154940154169381519586526020860152840152606083015215156080820152f35b5050346104cd57816003193601126104cd5760209051610e108152f35b828434610337576020366003190112610337575061064d6106486108ec565b610a66565b825191825215156020820152f35b5050346104cd57816003193601126104cd57905490516001600160a01b039091168152602090f35b833461033757806003193601126103375761069c610996565b80546001600160a01b03198116825581906001600160a01b03167f8be0079c531659141344cd1fd0a4f28419497f9722a3daafe3b4186f6b6457e08280a380f35b5050346104cd57816003193601126104cd576020906002549051908152f35b503461017c57602036600319011261017c57906107176108ec565b91610720610996565b60018060a01b0380931692838552816001938460205261074760ff83838a20015416610a24565b8587526020859052862001805460ff1916905584835b61078b575b85857f37803e2125c48ee96c38ddf04e826daf335b0e1603579040fd275aba6d06b6fc8280a280f35b60028054908183101561087b578391876107a485610949565b949054600395861b1c16146107da5750505060001981146107c75783018361075d565b634e487b7160e01b865260118352602486fd5b91955093600019929091838101908111610868579061080c856107ff61082b94610949565b9054908a1b1c1691610949565b90919082549060031b9160018060a01b03809116831b921b1916179055565b83549081156108555750019261084084610949565b81939154921b1b191690555538808080610762565b634e487b7160e01b885260319052602487fd5b634e487b7160e01b895260118352602489fd5b5050610762565b50823461033757602036600319011261033757506108a16106486108ec565b919091156108b3575060209151908152f35b606490602084519162461bcd60e51b835282015260136024820152725072696365206e6f7420617661696c61626c6560681b6044820152fd5b600435906001600160a01b038216820361090257565b600080fd5b602435906001600160a01b038216820361090257565b604435906001600160a01b038216820361090257565b606435906001600160a01b038216820361090257565b6002548110156109805760026000527f405787fa12a823e0f2b7631cc41b3ba8828b3321ca811111fa75cd3aa3bb5ace0190600090565b634e487b7160e01b600052603260045260246000fd5b6000546001600160a01b031633036109aa57565b606460405162461bcd60e51b815260206004820152602060248201527f4f776e61626c653a2063616c6c6572206973206e6f7420746865206f776e65726044820152fd5b6040519060a0820182811067ffffffffffffffff821117610a0e57604052565b634e487b7160e01b600052604160045260246000fd5b15610a2b57565b60405162461bcd60e51b8152602060048201526013602482015272105cdcd95d081b9bdd081cdd5c1c1bdc9d1959606a1b6044820152606490fd5b6001600160a01b039081166000908152600160205260409020610ad39190610acc60ff6004610a936109ee565b93858154168552856001820154166020860152856002820154166040860152600381015460608601520154161515806080840152610a24565b5116610b4c565b610ae05750600090600090565b90600190565b15610aed57565b60405162461bcd60e51b815260206004820152600d60248201526c125b9d985b1a5908185cdcd95d609a1b6044820152606490fd5b6002549068010000000000000000821015610a0e5761080c826001610b4a9401600255610949565b565b6001600160a01b03168015610baa5760018103610b735750670de0b6b3a764000090600190565b60028103610b8c5750681043561a882930000090600190565b600314610b9b57600090600090565b67d02ab486cedc000090600190565b5060009060009056fea26469706673582212205de1fd36765d22fed6513d2f2f60c8bbea3da6f41d2f4b5afe4c49b097a6e46d64736f6c63430008130033",
  "linkReferences": {},
  "deployedLinkReferences": {}
}